:020000040800F2
:10000000E84C0020310200087D3700089F300008CE
:100010002D370008190900081D45000800000000E0
:10002000000000000000000000000000453F000844
:10003000E10E000800000000393C0008A93F00085C
:100040004B0200084B0200084B0200084B0200085C
:100050004B0200084B0200084B0200084B0200084C
:100060004B0200084B0200084B0200084B0200083C
:100070004B0200084B0200084B0200084B0200082C
:100080004B0200084B0200084B0200084B0200081C
:100090004B0200084B0200084B0200084B0200080C
:1000A0004B020008514000084B0200084B020008B8
:1000B0004B0200084B0200084B0200084B020008EC
:1000C0004B0200084B0200084B0200084B020008DC
:1000D0004B0200084B0200084B0200084B020008CC
:1000E0004B0200084B0200084B0200084B020008BC
:1000F0004B0200084B0200084B0200084B020008AC
:100100004B0200084B0200084B0200084B0200089B
:100110004B0200084B0200084B0200084B0200088B
:10012000310E00084B0200084B0200084B02000889
:100130004B02000800000000000000004B02000815
:100140004B0200084B0200084B0200084B0200085B
:100150004B0200084B0200084B0200084B0200084B
:100160004B0200084B0200084B0200084B0200083B
:100170004B0200084B0200080000000000000000D5
:100180004B0200084B02000800F002F800F041F8B2
:100190000AA090E8000C82448344AAF10107DA45E2
:1001A00001D100F036F8AFF2090EBAE80F0013F0F3
:1001B000010F18BFFB1A43F0010318479C5C0000B5
:1001C000BC5C0000103A24BF78C878C1FAD8520746
:1001D00024BF30C830C144BF04680C6070470000C1
:1001E0000023002400250026103A28BF78C1FBD840
:1001F000520728BF30C148BF0B607047642900F028
:10020000F780002070471FB505F079FD1FBD10B5C0
:1002100010BD00F0DDF91146FFF7F5FF04F090FE88
:1002200000F0FBF903B4FFF7F2FF03BC00F0FEF9A6
:100230000948804709480047FEE7FEE7FEE7FEE77A
:10024000FEE7FEE7FEE7FEE7FEE7FEE704480549B6
:10025000054A064B7047000041400008890100082C
:10026000E8460020E84C0020E8480020E84800204C
:1002700053EA020C00F069802DE9F04B4FF00006C4
:10028000002B1FBFB3FA83F503FA05F424FA05F631
:100290005E4012BF1643B2FA82F502FA05F4C5F1C8
:1002A00020051EBF22FA05FC44EA0C04203556EA5C
:1002B000044C4FEA144418BF641C4FF000084FF080
:1002C0000009904271EB030C39D3002919BFB1FA30
:1002D00081F701FA07F6B0FA80F700FA07F6C7F1DE
:1002E00020071EBF20FA07FC46EA0C062037B6FBA3
:1002F000F4FCA7EB0507103F07F01F0BCBF120061E
:100300000CFA0BFB2CFA06F644BFB3460026202F4E
:10031000A4BF5E464FF0000B5BEA060C08BF4FF02F
:10032000010B19EB0B09ABFB027C48EB0608C01B69
:1003300006FB02CC0BFB03CC71EB0C01C1E70B46B7
:10034000024641464846BDE8F08B13B54FF0000029
:100350004FF00001AFF30080BDE81C407047000083
:100360000FB41CB5074B06AA7B446946009005985C
:1003700000F00DF90020694600F01CF91CBC5DF886
:1003800014FB0000490200002DE9F0410E4604462E
:10039000002020622046E168884730B3252805D038
:1003A000D4E901219047206A401CF2E7E168204629
:1003B00000278847050018D0A5F14100192802D868
:1003C00020354FF400673246294620462760FFF764
:1003D00015FF40B1012804D0F61D26F007060836A7
:1003E000D8E7361DD6E72846DAE7206ABDE8F0816F
:1003F0002DE9F0410646002410687529314616A5FE
:1004000010D0AFF30080002802DA404213A507E0C5
:1004100031688A0701D512A502E0490704D511A564
:10042000012401E0AFF3008000210A2206F1240735
:1004300009E0B0FBF2FCB0FBF2F302FB1C00303031
:1004400078541846491C0028F3D123462A463046E2
:10045000BDE8F04100F03DB8000000002D000000B4
:100460002B000000200000004FF0000200B51346F2
:1004700094469646203922BFA0E80C50A0E80C50C4
:10048000B1F12001BFF4F7AF090728BFA0E80C5075
:1004900048BF0CC05DF804EB890028BF40F8042B6E
:1004A00008BF704748BF20F8022B11F0804F18BFDB
:1004B00000F8012B704770477047704710B500F087
:1004C0007FF8006810BD10B5044600F079F80460AC
:1004D00010BD2DE9F0470D4699469246044600F1BD
:1004E00024080168880604D5E06921F01001216024
:1004F00000E00120A84201DD471B00E00027A169C0
:100500007A1902EB0900081AA0612078C00602D40B
:100510002046AFF30080002608E0D4E901211AF854
:1005200006009047206A401C761C20624E45F4DB92
:100530002078C0060AD52046AFF3008006E0D4E953
:10054000012130209047206A401C2062381EA7F10C
:100550000107F4DC07E0D4E9012118F80500904711
:10056000206A401C2062281EA5F10105F3DC20460C
:10057000AFF300802078000602D50220BDE8F087A6
:100580000120FBE701694A1C02610878704700B549
:100590008FB0CDE901310021059105497944CDE9BC
:1005A000031011466846FFF7EFFE0FB000BD0000D4
:1005B000E5FFFFFF0A6802F8010B0A6070470000C0
:1005C0000048704784460020004870478446002059
:1005D0007546FFF7F9FFAE4605006946534620F021
:1005E0000700854618B020B5FFF730FEBDE8204073
:1005F0004FF000064FF000074FF000084FF0000BDF
:1006000021F00701AC46ACE8C009ACE8C009ACE891
:10061000C009ACE8C0098D46704710B50446AFF379
:1006200000802046BDE81040FFF7FCBD01491820BE
:10063000ABBEFEE726000200704710B50146806B96
:10064000026C12F0500F05D0026CD20626D500F0D5
:1006500041FD10BD016C41F40071016401688A68BC
:1006600012F0405F17D1027EAAB9CA6A12F4700F65
:1006700002D08A6852050ED44A6822F020024A60ED
:10068000016C21F480710164016CC90403D4016C14
:1006900041F00101016400F01BFD10BD806BC26CD4
:1006A000BDE810400846104710B5806B402101643A
:1006B000416C41F00401416400F00CFD10BD10B527
:1006C000806B00F006FD10BD70B504462DED068B65
:1006D0000020014624F81010401C0328FADB0025F6
:1006E0009FED3A0A9FED3AAB84ED060A9FED3A0B77
:1006F00084ED100B02222146394800F021FE2088AB
:1007000005F012F894ED108B53EC182B05F05CF803
:1007100041EC190BE06905F081FA53EC192B04F058
:1007200083FD04F04FFDE061608804F0FDFF53ECB1
:10073000182B05F049F841EC180B206A05F06EFA09
:1007400053EC182B04F070FD04F03CFD6D1CEDB271
:100750002062642DCED3D4ED070A9FED220A80EEED
:10076000801A00EE900A1E4884ED071A80EE801A67
:1007700084ED081A00F08EFE9FED1B0ADFED1B0AC8
:1007800084ED020A84ED030A84ED090A84ED0A0A65
:1007900084ED0C0A84ED0D0AC4ED0F0A84ED040A01
:1007A000F3EE080AC4ED050A84ED0E0A94ED050A7D
:1007B00010EE100A05F032FA53EC1A2B05F004F88B
:1007C000C4E91201BDEC068B70BD00009A9951403E
:1007D000000000000000303F0000004033334A3F7B
:1007E000380000200000C84200000000A4703D3E18
:1007F000464910B54A6822F440324A604A68436864
:100800001A434A6001684A6822F480724A600168AB
:100810004A68036942EA03224A6001684A6822F092
:1008200040724A6001684A6883681A434A600168F6
:100830008A6822F400628A6001688A68C3681A4381
:100840008A60816A6FF07062D14201688A6822F022
:1008500070628A6001688A680CD0836A1A438A6071
:1008600001688A6822F040528A6001688A68C36A17
:100870001A4301E022F040528A6001688A6822F03F
:1008800002028A6001688A68037E42EA43028A6043
:1008900090F82010002901684A680FD042F40062E5
:1008A0004A6001684A6822F460424A6001684A6806
:1008B000174C436A04EB43331A4301E022F400620D
:1008C0004A600168CA6A22F47002CA620168CA6A90
:1008D000838B104C04EB03531A43CA6201688A6885
:1008E00022F400728A6001688A6890F8303042EA27
:1008F00043228A6001688A6822F480628A60016803
:100900008A68406942EA8020886010BD0023014067
:1009100000E0FFFF0000F0FFFEE7000010B5044616
:1009200001462DED028B0222224800F009FD2088AD
:1009300004F0FAFE94ED108B53EC182B04F044FFF6
:1009400004F040FC00EE100A84ED020A608804F016
:10095000EBFE53EC182B04F037FF04F033FC00EEF1
:10096000100A154884ED030A94ED020A02F066FCB1
:1009700084ED090A94ED030A0F4802F05FFC84ED50
:100980000A0A94ED070AD4ED090A70EE600A94EDA4
:100990000F0A80EE801A84ED0C1AD4ED080A94ED4B
:1009A0000A1A70EEC10A80EE801A84ED0D1ABDECB1
:1009B000028B10BD380000201007002010B504463F
:1009C000254801680968C1F30011A1620068406A06
:1009D000206194F84020012A26D001209FED1F0AB3
:1009E00084ED0C0A84F8400094ED0C0AD4ED0B0A57
:1009F0001B4820EE200A84ED070A94ED070A02F056
:100A00001DFC84ED070A94ED070A10EE100A05F0AC
:100A100005F99FED141B53EC112B04F0B9FCC4E94C
:100A200008012069606110BD79B10029DCD06169DD
:100A3000884201DD22681144B1EB000000EE100A8B
:100A4000B8EEC00A84ED0C0ACEE76169884201DA8B
:100A500022681044401AF1E7E00100200000000085
:100A6000E0060020B7627FD93D19234010B590F809
:100A700041201F4B1968B2B10968C1F300128262AC
:100A80001968496A0161B2B1E2B14269914201DD7E
:100A900003681A44B2EB010100EE101AB8EEC00A66
:100AA00080ED0C0A10E0496A4161012180F8411093
:100AB0009FED100A10BD4269914201DA03681944A2
:100AC000891AE9E790ED0C0ADFED0B0A20EE200A07
:100AD00010EE100A05F0A2F89FED081B53EC112B45
:100AE00004F072FE04F06EFB00EE100A10BD000070
:100AF000E001002000000000CDCCCC3CA7E8482E4F
:100B0000FF2109409FED1B1A9FED1B2B80ED001A62
:100B100080ED011A80ED021A80ED031A80ED041AAF
:100B200080ED051A80ED061A80ED071A80ED081A8F
:100B300080ED091A80ED0A2B80ED0C2B80ED0E0B59
:100B400080ED102B80ED122B00210165416580EDB9
:100B5000161A80ED182B8166094980ED1B1A096869
:100B6000C96A89B2A0F870104908A0F87210A0F8FC
:100B7000741070470000000000000000000000003A
:100B8000980100202DE9F0410446A24816462DEDBB
:100B9000048B0F46007A50B1616D9F48FFF766FFE6
:100BA00010EE100A05F03AF841EC100B01E09FED51
:100BB0009B0B84ED0A0B94ED0A0B383403F03CFDDB
:100BC000984DB0EE408AF0EE608A95ED0D0A10EE79
:100BD000100A05F023F853EC182B04F0F5FD41EC56
:100BE000180B14ED040B03F0C3FCB0EE409A95ED26
:100BF0000C0AF0EE609A10EE100A05F00FF853ECB4
:100C0000192B04F0E1FD53EC182B04F00DFB04F05C
:100C1000D9FA00EE100A04ED0D0A14ED040B03F0EE
:100C2000A7FCB0EE408A95ED0D0AF0EE608A10EE5A
:100C3000100A04F0F3FF53EC182B04F0C5FD41EC4F
:100C4000180B14ED040B03F0F7FCB0EE409A95ED91
:100C50000C0AF0EE609AB1EE400A10EE100A04F0B1
:100C6000DDFF53EC192B04F0AFFD53EC182B04F00F
:100C7000DBFA04F0A7FA00EE100A04ED0B0A14EDFB
:100C80000D0A10EE100A04F0C9FF14ED0E0A41EC33
:100C9000180B10EE100A04F0C1FF41EC100BB0EE7F
:100CA000481AF0EE681A384602F0F2FE04ED080A1F
:100CB00014ED0B0A10EE100A04F0B0FF14ED0C0A4C
:100CC00041EC180B10EE100A04F0A8FF41EC100BD9
:100CD000B0EE481AF0EE681A304602F0D9FE04ED84
:100CE000070A14ED040B03F0A7FCB0EE408A14EDE4
:100CF000070AF0EE608A10EE100A04F08FFF53EC42
:100D0000182B04F061FD41EC180B14ED040B03F0FB
:100D10002FFCB0EE409A14ED080AF0EE609A10EE47
:100D2000100A04F07BFF53EC192B04F04DFD53EC3B
:100D3000182B04F089FE04F045FA00EE100A04EDC9
:100D4000060A14ED040B03F013FCB0EE408A14ED18
:100D5000070AF0EE608A10EE100A04F05FFF53EC11
:100D6000182B04F031FD41EC180B14ED040B03F0CB
:100D700063FCB0EE409A14ED080AF0EE609A10EEB3
:100D8000100A04F04BFF53EC192B04F01DFD53EC3B
:100D9000182B04F049FA04F015FA00EE100A224864
:100DA00004ED050A14ED061A90ED020A208FC1EE3B
:100DB000000AB7EE001A70EE811A00EE900AF8EE03
:100DC000600A61EEA01AF6EE000A61EEA01AFDEECE
:100DD000E11A11EE901A618754ED051A81EE802A0E
:100DE00000EE100AB8EE400A32EE011A21EE000AB7
:100DF00020EE200ABDEEC00A10EE100AA087618F17
:100E00000A4802685163A18F00688163BDEC048BBE
:100E1000BDE8F081340300208803002000000000BA
:100E20000000000098050020FC020020980100202E
:100E3000014800F073BC000024460020016818231C
:100E4000CAB2103AB2FBF3F2054B6FF30901032A61
:100E50009B5CC36500D9091D816508467047000089
:100E6000125D000810B5014600208B698A6A4FF0B8
:100E7000C07453B1B3F5005F15D072B1012A0CD024
:100E8000022A0AD0032A09D104E01AB1012A06D0A5
:100E9000022A03D1C96AC90100D5012010BDC96A5F
:100EA000A142FAD010BD002AF7D0012AF2D0022ABE
:100EB000F3D0032AF3D010BD30B50468256825F4BB
:100EC00080252560046863608368402B036803D035
:100ED00099600068C26030BD9A600068C16030BD32
:100EE0007047000070B504462DED028B01FB02F047
:100EF000B0EE408AF0EE608A206084ED028B00251F
:100F0000A562A56125619FED140A65619FED131B24
:100F100084ED070A84ED081B84ED0C0A84F8405028
:100F200004F0EBFB53EC182B04F04EFC41EC100BDF
:100F300053EC102B9FED0B0B51EC100B04F028FA27
:100F400004F040F99FED090BE06284ED0E0B84F88C
:100F50004150BDEC028B70BD00000000000000009D
:100F6000000000000000000000004E404D463AA87E
:100F700069BC593F72B6FEE70021016041608160A3
:100F80007047000078B50024009490F83C20012AB6
:100F900019D0012280F83C200A6807230568092A35
:100FA00013D9EE680A3A02EB420293409E43EE6088
:100FB0000B788A680A3B03EB43039A400368DD68B9
:100FC0002A43DA6010E0022078BD2E6902EB42026B
:100FD00093409E432E610B788A6803EB43039A404B
:100FE00003681D692A431A614A681F23072A13D21E
:100FF00005686E6B521E02EB820293409E436E6345
:101000000B790A885B1E92B203EB83039A40036854
:101010005D6B2A435A6327E005680D2A12D22E6BB6
:10102000D21F02EB820293409E432E630B790A8803
:10103000DB1F92B203EB83039A4003681D6B2A43C4
:101040001A6311E0EE6A0D3A02EB820293409E436E
:10105000EE620B790A880D3B92B203EB83039A4050
:101060000368DD6A2A43DA62164B0568144A9D421A
:1010700006D10D68122D03D1556845F480055560E1
:1010800005689D4218D10B68102B01D0112B13D18C
:10109000536843F400035360096810290CD10A49CE
:1010A0000A4A0968B1FBF2F101EB8101490000E055
:1010B000491E00910029FBD180F83C40002078BDFA
:1010C00000230140002001401400002040420F0096
:1010D00070477047704770B504004FF0000503D0AB
:1010E000206C002610B107E0012070BD204600F002
:1010F0001DF8666484F83C60206CC00610D4206C37
:1011000020F4885040F0020020642046FFF770FB76
:101110006664206C20F0020040F00100206400E0D2
:10112000012584F83C60284670BD0000F0B587B00A
:10113000064614216846FFF797F93B49394F336853
:101140000025394814390324384ABB424FD103687B
:1011500043F480730360006800F4807005900868B1
:1011600040F001000860086800F001000590086880
:1011700040F004000860086800F00400059008686A
:1011800040F0020008600868694600F0020005901F
:10119000A0208DE83100104600F032FC30208DE8B0
:1011A00031006946224800F02BFC00946946214832
:1011B000CDE9014500F024FC204C1F48C4E900059E
:1011C0000015A560C4E90350400060618000C4E9D7
:1011D00006054FF44030C4E90805204600F06EFBD8
:1011E00008B1FFF7C7FEB463A66307B0F0BD144EA5
:1011F000B342FAD1036843F400730360006800F45B
:1012000000700590086840F00100086008686946B1
:1012100000F00100059040208DE83100104600F0FC
:10122000EFFBE2E7002001404438024000000240AA
:1012300000080240000402401064024024460020DE
:101240000021014018B50021009190F83C20012AAE
:1012500007D0012280F83C2002689368DB0702D0A7
:1012600011E0022018BD936843F0010393602E4AF9
:101270002E4B1268B2FBF3F202EB420200E0521E68
:101280000092002AFBD102689368DB0742D0036C0E
:1012900040F20164A34343F48073036453685B0525
:1012A00005D5036C23F4005343F480530364036CAB
:1012B000DB0404D5436C23F00603436400E041647F
:1012C00080F83C101A496FF02203136049680068E7
:1012D000CA06184906D0884224D1816811F0405FBF
:1012E00013D01FE08842F8D0134A904203D1D1F8BE
:1012F0000423D206F1D0114A904213D1D1F804133D
:1013000001F01F011029E8D30CE0816841F0804111
:10131000816007E0016C41F010010164416C41F013
:1013200001014164002018BD1400002040420F005C
:101330000023014000200140002101400022014023
:10134000F8B5044600200E46009094F83C100129A0
:1013500007D0012184F83C1021688B68DB0702D09C
:1013600011E00220F8BD8B6843F001038B60404917
:10137000404B0968B1FBF3F101EB410100E0491E6C
:1013800000910029FBD121688B68DB0503D58B68B0
:1013900023F480738B6021688B68DB075DD0236C3E
:1013A00040F20165AB4343F4807323644968490507
:1013B00005D5216C21F4005141F480512164216C48
:1013C000C90404D5616C21F00601616400E0606429
:1013D00084F83C00A16B2948274DC863A16B2848BD
:1013E0000864A16B2748C86421686FF02200086078
:1013F0002068416841F0806141602068816841F463
:10140000807181602168134632464C31A06B00F038
:10141000BFFA68681C49C006206806D0884224D1FB
:10142000816811F0405F13D01FE08842F8D0174A5E
:10143000904203D1D1F80423D206F1D0144A90424D
:1014400013D1D1F8041301F01F011029E8D30CE0E7
:10145000816841F08041816007E0206C40F010001D
:101460002064606C40F0010060640020F8BD000062
:101470001400002040420F00002301403B060008FA
:10148000BF060008A9060008002001400021014015
:101490000022014010B50446002094F83C100129B8
:1014A0000CD0012184F83C1021688A6822F00102E6
:1014B0008A6021688A68D20702D01DE0022010BD30
:1014C0008A6822F480728A60A16B91F83520022A22
:1014D00007D1084600F0D8F818B1216C41F040015E
:1014E000216421684A6822F080624A60216C21F4FC
:1014F000885141F001012164002184F83C1010BDA5
:1015000070B5040003D094F8200010B104E001206D
:1015100070BD204600F082F82068016841F00101AA
:10152000016000F06BFB0546052604E000F066FB59
:10153000401B0A2811D820684068C007F6D02068F0
:10154000016821F00201016000F058FB05460BE044
:1015500000F054FB401B0A2806D9606A40F40030B2
:10156000606284F82060D2E7206840688007EFD48A
:10157000207E0128206801683DD021F080010160B3
:10158000607E01282068016838D021F040010160A8
:10159000A07E01282068016833D021F0200101607D
:1015A000E07E0128206801682ED041F01001016022
:1015B000207F01282068016829D021F008010160FE
:1015C000607F01282068016824D021F004010160B7
:1015D000D4E902010843D4E90412114308436168C5
:1015E000491E08432168C86100206062012084F818
:1015F0002000002070BD41F08001C0E741F04001B3
:10160000C5E741F02001CAE721F01001CFE741F022
:101610000801D4E741F00401D9E7000010B586B015
:10162000044614216846FEF71FFF144920688842CB
:1016300021D113480021026842F000720260006864
:1016400000F0007005900E481038026842F0020267
:101650000260006800F0020005904FF440700090B6
:101660000220CDE90101032003900920049069467E
:10167000044800F0C5F906B010BD00000064004049
:1016800040380240000402402DE9F0410446876DD5
:1016900000F0B4FA064694F835000025022806D07A
:1016A0008020606584F834500120BDE8F081206816
:1016B000016821F0160101602068416921F0800174
:1016C0004161206C08B9A06C20B12068016821F04C
:1016D000080101602068016821F0010101600CE04F
:1016E00000F08CFA801B052807D9202060650320B4
:1016F00084F8350084F83450D7E720680068C007C4
:10170000EED194F85C103F208840B860012084F846
:10171000350084F834500020C7E700002DE9F84375
:1017200004464FF00009CDF8009063484FF416517D
:10173000A56D0068B0FBF1F72E6894F85C100820E6
:1017400000FA01F131420FD021680A6852070BD527
:101750000A6822F004020A6094F85C108840A860CD
:10176000606D40F00100606594F85C104FF0010876
:1017700008FA01F0304208D021684969090604D509
:10178000A860606D40F00200606594F85C10042071
:101790008840304208D021680968890704D5A860CC
:1017A000606D40F00400606594F85C101020884083
:1017B000304218D021680968090714D5A86020684C
:1017C0000168490304D50068000308D5A16C07E04F
:1017D0000168C90503D4016821F008010160216C8A
:1017E00009B12046884794F85C1020208840304298
:1017F00031D021680968C9062DD5A86094F8350054
:1018000005282068016806D0490347D50068000311
:101810001DD4616C1CE021F0160101602068416953
:1018200021F080014161206C08B9A06C20B12068D2
:10183000016821F00801016094F85C103F208840A5
:10184000A86084F8358084F83490216D1FE0E16B46
:1018500009B120468847606D00282BD0606DC00715
:1018600014D0052084F835002068016821F00101BA
:1018700001600098401C0090B84203D820680068BE
:10188000C007F6D184F8358084F83490E16C0029E3
:1018900010D001B02046BDE8F04308470168C905F3
:1018A000D5D4016821F01001016084F8358084F8F6
:1018B0003490CCE7BDE8F883140000202DE9F04116
:1018C000044600F09BF906465CB1022084F835001E
:1018D000002584F834502068016821F0010101607E
:1018E0000DE00120BDE8F08100F088F9801B05289B
:1018F00005D920206065032084F83500F2E72068D0
:101900000068C007F0D12268116820480140D4E97E
:1019100001031843D4E9033633431843636918437A
:10192000A3691843E3691843236A18430843616AAB
:10193000042903D1D4E90B1319430843106020682C
:101940004069666A20F0070130460E4301270428EB
:101950000CD1A06A0643E06A40B12046FFF782FA44
:1019600020B14020606584F83570BAE72068466190
:101970002046FFF763FA94F85C203F219140816094
:10198000656584F835700020ACE700003F8010F0FA
:101990002DE9F0410446866D90F8340000250128B9
:1019A0000DD0012084F8340094F835700020012F08
:1019B00007D084F8340002252846BDE8F0810220D3
:1019C000FBE7022784F8357060652046FFF774FA5C
:1019D00094F85C103F208840B0602068016841F0B6
:1019E00016010160206C20B12068016841F00801F7
:1019F00001602068016841F001010160DCE700003E
:101A00002DE9F84FDFF8BCA10022012503264FF095
:101A10000F090AF1040BAAF1040E00BF0B6805FAC6
:101A200002F42340A34270D10F7907F00307012F7E
:101A300001D0022F16D187684FEA420806FA08FC47
:101A400027EA0C07D1F80CC00CFA08FC4CEA070C8A
:101A5000C0F808C04768A7430C79C4F30014944049
:101A60003C4344600C79E443A4070AD0C4684FEABD
:101A7000420C06FA0CF7BC438F6807FA0CF72743B1
:101A8000C7600C7904F00304022C12D1D40800EBD7
:101A9000840CDCF820405707FF0E09FA07F824EA07
:101AA0000804D1F8108008FA07F848EA0408CCF8CE
:101AB000208004684FEA420C06FA0CF7BC430F7909
:101AC00007F0030707FA0CF7274307604C6814F484
:101AD000403F70D03C4C276847F48047276024681B
:101AE00022F0030704F480440094384C07EB040C04
:101AF000DCF8084897074FEA177809FA08F7BC435B
:101B0000334FB84202D1002724E054E0314FB842AD
:101B100001D101271EE0304FB84201D1022719E060
:101B20002E4FB84201D1032714E02D4FB84201D106
:101B300004270FE02B4FB84201D105270AE02A4FB6
:101B4000B84201D1062705E0284FB84201D1072746
:101B500000E0082707FA08F72743CCF80878DAF8F6
:101B600000405746D1F804C09C435FEACC2C00D516
:101B70001C433C60DBF800405F46D1F804C09C4346
:101B80005FEA8C2C00D51C433C60DEF800407746B1
:101B9000D1F804C09C435FEA8C3C00D51C433C60F8
:101BA000084F083F3C68D1F804C09C435FEACC3C36
:101BB00000D51C433C60521C102AFFF42FAFBDE837
:101BC000F88F0000083C01404438024000300140DA
:101BD000000002400004024000080240000C0240E5
:101BE000001002400014024000180240001C024095
:101BF0000AB1816170470904FBE700000148806871
:101C0000704700000800002070B5040025D094F84B
:101C10003D00002520B984F83C50204600F0B8F87B
:101C2000242084F83D002068016821F00101016052
:101C30002068016841F4004101602068016821F4D6
:101C40000041016000F02EFA4D4A6168914201D8CE
:101C50004C4900E04C49884201D2012070BD4B49FB
:101C60002368B0FBF1F15E6826F03F060E435E602C
:101C70006368934206D94FF4967359434FF47A73CD
:101C8000B1FBF3F12368491C1E6A26F03F0631437D
:101C900019626168914210D84900401EB0FBF1F210
:101CA000521CC2F30B02042A01D2042022E0B0FB32
:101CB000F1F0401CC0F30B001CE0A268F2B301EB92
:101CC000C10303EB0116431EB3FBF6F35B1C43F4A5
:101CD00080431B0549D092B301EBC10202EB011115
:101CE000401EB0FBF1F0401CC0F30B0040F48040FC
:101CF00040F400402168CA694CF6FF739A431043D0
:101D0000C861D4E9071001432068026822F0C002CC
:101D100011430160D4E9030101432068826848F25D
:101D2000FF339A4311438160D4E9050108432168D8
:101D3000CA6822F0FF021043C86001E00EE016E01E
:101D40002068016841F0010101602564202084F8C9
:101D50003D00256384F83E50002070BD01EB410634
:101D6000431EB3FBF6F35B1CB3E70120C2E701EBB4
:101D70004101401EB0FBF1F0401CC0F30B00B7E77F
:101D8000A086010080841E0000093D0040420F0033
:101D9000F0B587B0044614216846FEF765FB276856
:101DA000234CDFF888C00022214912230325042692
:101DB00020481034674518D10F6847F002070F60BC
:101DC000096802AF01F002010591C021CDE90013BD
:101DD00087E864006946FFF713FE206840F40010AE
:101DE0002060206800F400101CE0DFF84CC067455C
:101DF00019D10F6847F002070F60096802AF01F0C0
:101E0000020105914FF44061CDE9001387E86400B9
:101E10006946FFF7F5FD206840F4800020602068E7
:101E200000F48000059007B0F0BD000000540040B1
:101E300030380240000402400058004002488168E7
:101E40000278114481607047080000200B4810B5EB
:101E5000016841F400710160016841F48061016032
:101E6000016841F480710160032000F06FF80F20D9
:101E700000F006F800F024F8002010BD003C0240FD
:101E800070B50D4D04464FF47A712878B1FBF0F02F
:101E90000A490968B1FBF0F000F00CFB48B9102CBE
:101EA00007D200222146501E00F030F800206C605E
:101EB00070BD012070BD000008000020140000204B
:101EC0000A4808B5016841F480410160006800F4E7
:101ED000804000900548001F016841F0805101607A
:101EE000006800F08050009008BD000044380240B7
:101EF000002809DB00F01F02012191404009800009
:101F000000F1E020C0F8001170470000F0B40E4B63
:101F10001B680C46C3F30223C3F10705042D00D947
:101F20000425191D072901D2002300E0DB1E01262C
:101F300006FA05F1491E214099409E40761E164042
:101F40003143F0BC02F003BB0CED00E0064900F0A9
:101F5000070208684FF6FF03184040EA0220034AD0
:101F600010430860704700000CED00E00000FA0527
:101F70002DE9F0470E46050065D0DFF81481D8F84A
:101F80000000F7B200F00700B04207D288F80070F6
:101F9000D8F8000000F00700B04254D128683D4C4A
:101FA000810712D5400703D5206840F4E050206037
:101FB0002878000703D5206840F46040206020683E
:101FC000A96820F0F000084320602878C0072DD0D1
:101FD000304968680839012812D0022813D0032834
:101FE00011D00968890700292DDA216821F0030141
:101FF00001432160FFF702FE814641F2883A0EE07C
:1020000009688903EFE709688901ECE7FFF7F6FD46
:10201000A0EB0901514502D90320BDE8F0872068F3
:10202000696800F00C00B0EB810FEFD1D8F8001018
:10203000404601F00701B14207D90770006800F07F
:102040000700B04201D00120E7E72878400705D516
:102050002068E96820F4E0500843206028780007F1
:1020600006D52068296920F4604040EAC10020605C
:1020700000F038F82168084AC1F30311515CC840E8
:102080000649086006480068FFF7FAFE0020C4E72A
:10209000003C0240083802401A5D0008140000208D
:1020A0000C0000200448054900680968044AC1F38F
:1020B0008221515CC840704714000020083802405B
:1020C0002A5D00080448054900680968044AC1F30C
:1020D0004231515CC840704714000020083802406B
:1020E0002A5D0008154810B5006810F00C0214486D
:1020F00013D01449042A0FD0082A0ED10F4C241FE4
:102100002268236802F03F025B0207D52068C0F313
:102110008810A0FB010106E0084610BD2168C1F34C
:102120008811A1FB00010023FEF7A2F82168C1F38A
:102130000141491C4900B0FBF1F010BD08380240D4
:102140000024F40040787D012DE9F84F04006ED0A2
:102150002078DFF84C93C007A9F104054AD009F1B3
:1021600004000168C1F38101012908D00068C0F3AF
:10217000810002280AD1D9F80000400206D528685B
:10218000800337D560680028E1D033E06068B0F59F
:10219000803F10D0B0F5A02F286810D020F48030F8
:1021A0002860286820F4802028606068A8B1FFF7C4
:1021B00025FD06460DE0286840F48030F4E740F441
:1021C00080202860F7E700BFFFF718FD801B642818
:1021D00073D828688003F7D50CE0FFF70FFD06469B
:1021E00005E000BFFFF70AFD801B6428F0D82868CF
:1021F0008003F7D42078DFF8AC8280074FF0000A24
:102200003ED5A748001D016811F00C0F08D00068EA
:10221000C0F3810002280BD1D9F80000400207D496
:102220002868800716D5E068012800D112E033E164
:10223000E068B8B10120C8F80000FFF7DFFC0646EF
:1022400005E000BFFFF7DAFC801B0228C0D8286831
:102250008007F7D52868216920F0F80040EAC1001E
:1022600028600DE0C8F800A0FFF7C8FC064604E0AF
:10227000FFF7C4FC801B02281FD828688007F7D40A
:102280002078000722D5864F87486169703771B181
:1022900001210160FFF7B2FC064604E0FFF7AEFC47
:1022A000801B022809D838688007F7D50EE0C0F8EF
:1022B00000A0FFF7A3FC064605E082E0FFF79EFCC6
:1022C000801B02287DD838688007F7D42078400723
:1022D00068D5DFF8CCB100270BF13C0BDBF8000030
:1022E000C0000BD4DBF8001041F08051CBF8001097
:1022F000DBF80000012700F0805000906B4E306842
:10230000C00510D4306840F480703060FFF776FC70
:10231000009005E0FFF772FC0099401A022850D89F
:102320003068C005F6D55E4EA0686C3601280FD027
:102330000528306810D020F001003060306820F0AF
:1023400004003060A068B8B1FFF758FC00900FE0BF
:10235000306840F00100F4E740F004003060F7E737
:10236000FFF74CFC0099411A41F28830814266D84F
:1023700030688007F4D50EE0FFF740FC009007E0DE
:10238000FFF73CFC0099411A41F28830814256D84F
:1023900030688007F4D42FB1DBF8001021F08051B1
:1023A000CBF80010A069C8B33D49091D0968C1F305
:1023B000810102294AD00228504607D0C8F860009F
:1023C00000E03CE0FFF71AFC04463BE04746C8F853
:1023D0006000FFF713FC064605E000BFFFF70EFCA8
:1023E000801B02282BD828688001F7D4D4E9070184
:1023F0000843A16A2E4A490802EB0141626A41EA98
:102400008211084394F82C1040EA0161C9F80010C9
:1024100001203866FFF7F2FB044606E03EE000BF0D
:10242000FFF7ECFB001B022809D828688001F7D5CC
:1024300034E000BFFFF7E2FB001B022802D90320B3
:10244000BDE8F88F28688001F4D427E00128F7D090
:10245000D9F80000E26900F4800191421CD1226A9F
:1024600000F03F01914217D147F6C071626A014006
:10247000B1EB821F10D1A26A4FF0FF3300F440315C
:1024800003EB5202B1EB024F06D194F82C1000F08E
:102490007060B0EB016F01D00120D1E70020CFE7E1
:1024A0000438024000004742800E4742007000405E
:1024B0000000FFFF10B5401EB0F1807F01D3012066
:1024C00010BD4FF0E02460610F21601702F03FF86B
:1024D0000020A06107202061002010BD70477047D8
:1024E00010B590F83C20012A22D0012280F83C202F
:1024F000CA688C6822F4407222434C6822F48062DD
:1025000022430C6822F4006222430C6922F48052B8
:1025100022434C6922F400522243C969002322F469
:1025200080420A4301684A6480F83C30002010BDB4
:10253000022010BD70B590F83C20012A32D0012451
:1025400080F83C40022280F83D2003685A689D686C
:1025500022F070060A6832435A60134B02689A42AE
:1025600014D0B2F1804F11D0104B9A420ED0104BC4
:102570009A420BD00F4B9A4208D00F4B9A4205D08B
:102580000E4B9A4202D00E4B9A4204D1496825F074
:1025900080031943916080F83D40002180F83C1091
:1025A000084670BD022070BD0000014000040040DC
:1025B00000080040000C00400004014000400140C1
:1025C0000018004010B50446022249B104290ED07B
:1025D000082913D094F84500012816D0012010BD19
:1025E00094F842000128F9D184F842200FE094F8D1
:1025F00043000128F2D184F8432008E094F8440015
:102600000128EBD184F8442001E084F8452004221D
:10261000206801F094FD2068416C41F40041416460
:1026200011492068884214D0B0F1804F11D00F4971
:1026300088420ED00E4988420BD00E49884208D0FD
:102640000D49884205D00D49884202D00C49884284
:1026500004D1816801F00701062903D0016841F027
:1026600001010160002010BD000001400004004095
:1026700000080040000C0040000401400040014000
:102680000018004010B5040003D094F83D0010B1CC
:1026900007E0012010BD002084F83C00204600F037
:1026A0001FF8022084F83D00211D206801F0D6FCAF
:1026B000012084F8460084F83E0084F83F0084F846
:1026C000400084F8410084F8420084F8430084F814
:1026D000440084F8450084F83D00002010BD00004F
:1026E00008B501681748814212D11748016841F0C6
:1026F000010101600068002200F001000090114615
:102700001920FFF703FCBDE808401920FFF7F0BBD4
:102710000D480E4A001F914207D1016841F00201A5
:102720000160006800F0020009E0094A914207D107
:10273000016841F008010160006800F008000090A5
:1027400008BD000000000140443802400004004081
:10275000000C004090F83D10012901D00120704785
:10276000022180F83D1000681149884214D0B0F170
:10277000804F11D00F4988420ED00F4988420BD0AC
:102780000E49884208D00E49884205D00D4988423A
:1027900002D00D49884204D1816801F00701062961
:1027A00003D0016841F00101016000207047000082
:1027B000000001400004004000080040000C004000
:1027C00000040140004001400018004090F83D1016
:1027D000012901D001207047022180F83D100168D5
:1027E000CA6842F00102CA6000681149884214D0E8
:1027F000B0F1804F11D00F4988420ED00E49884267
:102800000BD00E49884208D00D49884205D00D49A9
:10281000884202D00C49884204D1816801F0070146
:10282000062903D0016841F00101016000207047D2
:10283000000001400004004000080040000C00407F
:1028400000040140004001400018004070B50446FB
:1028500090F83C000025012817D0012684F83C6040
:10286000022084F83D002068826822F0770222F47A
:102870007F4282600868502838D00DDC20284FD075
:1028800005DC90B3102811D14AE0022070BD302839
:1028900046D040280AD13BE060282FD070280DD0C8
:1028A000B0F5805F03D0B0F5005F12D0012584F849
:1028B0003D60002084F83C00284670BDCB68D1E91B
:1028C0000121206801F048FC2068816841F077010F
:1028D00009E0CB68D1E90121206801F03DFC2068C6
:1028E000816841F480418160E1E719E0CA68496884
:1028F000206801F005FD5021206806E0CA6849689B
:10290000206801F00EFD6021206801F02FFCCEE769
:10291000CA684968206801F0F3FC40212068F4E7A8
:10292000226801461046F0E72DE9F0410D4604000B
:1029300003D094F83D0018B108E00120BDE8F08113
:10294000002084F83C00204600F040F8022084F883
:102950003D002068816844F2070291438160211D97
:10296000206801F07BFB226890689169166A2B68E9
:10297000AF69034340F20330814341EA0721A8686D
:10298000EF6908434FF6FC418843E96840EA0720B5
:10299000014328692F6A000140EA0730084369684B
:1029A0006D6926F0AA0646EA051529439360226858
:1029B000906154F8460B0162012004F81F09E0758C
:1029C0002076E0762077A0750020B7E710B586B0B6
:1029D000044614216846FDF747FD2068B0F1804F9A
:1029E0001FD111480021026842F001020260006814
:1029F00000F0010005900C481038026842F0010216
:102A00000260006800F001000590032000900220A1
:102A1000CDE901010120CDE9031069460348FEF725
:102A2000EFFF06B010BD0000403802400000024039
:102A300070B590F83E60044690F83F5090F84230F0
:102A400090F84320022021B104290ED0012E1BD181
:102A500014E0012E18D1012B16D184F83E0084F821
:102A6000420001220021206820E0012D0CD1012A22
:102A70000AD184F83F0084F8430014E0012D03D10B
:102A8000012B01D1012A01D0012070BD84F83E0044
:102A900084F83F0084F8420084F8430001220021BA
:102AA000206801F03FFB01220421206801F03AFB7D
:102AB0002068016841F001010160002070BD70478D
:102AC00070B50446006801694FF00005C9438907E5
:102AD00015D4C168C943890711D4E91E01610120D9
:102AE0002077206880698007204602D0FFF7E7FF43
:102AF00004E000F0D9F8204600F06BF92577206853
:102B00000169C943490717D4C168C943490713D4A8
:102B10006FF004010161022020772068806910F4C1
:102B2000407F204602D0FFF7CAFF04E000F0BCF867
:102B3000204600F04EF9257720680169C94309074E
:102B400016D4C168C943090712D46FF008010161A6
:102B5000042020772068C0698007204602D0FFF754
:102B6000AEFF04E000F0A0F8204600F032F925772F
:102B700020680169C943C90617D4C168C943C90699
:102B800013D46FF010010161082020772068C0691C
:102B900010F4407F204602D0FFF791FF04E000F0E0
:102BA00083F8204600F015F9257720680169C943AC
:102BB000C90708D1C168C943C90704D1891E016189
:102BC000204600F06BF920680169C943090609D461
:102BD000C168C943090605D46FF080010161204630
:102BE000FFF77CFC20680169C943490609D4C16824
:102BF000C943490605D46FF040010161204600F049
:102C00008DF920680169C94389060BD4C168C9439D
:102C1000890607D46FF0200101612046BDE87040AD
:102C2000FFF75DBC70BD000070B586B0044614218E
:102C30006846FDF719FC18492068884229D11748D1
:102C40000024016841F002010160016801F0020105
:102C50000591016841F0010101600068022500F062
:102C6000010005904FF4C0400090CDE901540126C9
:102C7000CDE9034669460A48FEF7C2FE4FF44070AC
:102C80000090CDE90154CDE9034669460548FEF7B9
:102C9000B7FE06B070BD00000000014030380240B1
:102CA0000004024000000240704770B5044690F8EE
:102CB0003C0000260D4601280FD0012084F83C007E
:102CC0006AB1042A1DD0082A2FD00C2A3FD0012631
:102CD000002084F83C00304670BD022070BD2068A2
:102CE00001F04CFA2068816941F008018161206897
:102CF000816921F004018161206881692A69114399
:102D000011E0206801F06AFA2068816941F40061ED
:102D100081612068816921F4806181612068816915
:102D20002A6941EA02218161D2E7206801F08CFA28
:102D30002068C16941F00801C1612068C16921F0C2
:102D40000401C1612068C1692A69114311E020684A
:102D500001F0AEFA2068C16941F40061C1612068E8
:102D6000C16921F48061C1612068C1692A6941EAB1
:102D70000221C161ACE710B5040003D094F83D0016
:102D800010B107E0012010BD002084F83C0020466F
:102D900000F01EF8022084F83D00211D206801F09B
:102DA0005DF9012084F8460084F83E0084F83F0075
:102DB00084F8400084F8410084F8420084F843001D
:102DC00084F8440084F8450084F83D00002010BDDC
:102DD0007047704710B50446022249B104290ED04D
:102DE000082913D094F84100012816D0012010BD05
:102DF00094F83E000128F9D184F83E200FE094F8C1
:102E00003F000128F2D184F83F2008E094F8400008
:102E10000128EBD184F8402001E084F84120012210
:102E2000206801F07FF916492068164A884201D0CF
:102E3000904203D1436C43F40043436420688842CA
:102E400013D0B0F1804F10D00F4988420DD00F49F8
:102E500088420AD00E49884207D0904205D00D49D9
:102E6000884202D00C49884204D1816801F00701F0
:102E7000062903D0016841F001010160002010BD66
:102E80000000014000040140000400400008004030
:102E9000000C0040004001400018004070B51B4984
:102EA00000680968884230D1194C6068401C606035
:102EB00060680025012806D96560A4F15000FDF77F
:102EC0002DFD00F0BDFF13480178032916D140788D
:102ED000022813D1A068401CA060A068B0F5487F0C
:102EE0000CD3A5600B480C30FDF768FD08499FED39
:102EF0000A0AE83901F1F80000F06CFF2068401C74
:102F000020602068282800D3256070BD980100202B
:102F1000E8050020340300200000F042704770B53F
:102F2000040004D094F83D00002510B106E0012013
:102F300070BD84F83C50204600F022F8242084F82C
:102F40003D002068C16821F40051C160204601F0B5
:102F500023FA2068016921F49041016120684169E8
:102F600021F02A0141612068C16841F40051C1602B
:102F70002564202084F83D0084F83E00002070BDC8
:102F800010B586B0044614216846FDF76DFA144961
:102F90002068884221D113480021026842F480222F
:102FA0000260006800F4802005900E481038026826
:102FB00042F004020260006800F0040005904FF443
:102FC000406000900220CDE901010320039007201A
:102FD000049069460448FEF713FD06B010BD0000DA
:102FE0000048004040380240000802402DE9F84304
:102FF000044690F83D001F4616460D4620284CD149
:10300000C5B1BEB194F83C00012846D0012084F837
:103010003C004FF00008C4F84080212084F83D00B7
:10302000FEF7ECFDA6848146E684A068B0F5805FDB
:1030300003D004E00120BDE8F883206928B12E46C2
:103040005FF0000584F83C800EE00026FAE780215E
:10305000204601F027FAA0B9AEB116F8010B21689D
:103060004860E08C401EE084E08C4B464FF000024C
:1030700000970028EBD14FF04001204601F012FAF2
:1030800030B10320D7E735F8020BC0F30800E6E7BC
:10309000202084F83D000020CDE70220CBE7FEE7AA
:1030A00010B504462DED028B53EC112B51EC100B97
:1030B00002F0CAFC41EC180B84ED048B206802F08E
:1030C000ADFD53EC182B02F07FFB41EC100B84EDAF
:1030D000200B94ED181B53EC112B02F073FC02D261
:1030E00094ED180B0FE094ED1A1B94ED200B53ECAC
:1030F000112B51EC100B02F02BFB02D294ED1A0BAA
:1031000001E094ED200B84ED1C0B51EC100B02F050
:1031100059F8BDEC028B00EE100A10BD10B500EEA0
:10312000901A2DED088BB0EE408AF8EE600A044646
:10313000C0ED010A80ED008A10EE900A02F06EFDEB
:1031400041EC190B18EE100A02F068FD9FED341BDC
:1031500053EC112B02F038FB53EC192B02F034FB2B
:1031600041EC100B53EC102B9FED2F0B51EC100B7F
:1031700002F00EF902F026F808EE100AB7EE000A87
:10318000F0EE000A38EE009A08EE200A84ED068A76
:1031900069EE098A18EE900AC0EE280AC4ED020A08
:1031A00002F03CFD41EC1B0B18EE100A02F036FD5C
:1031B0009FED1FAB53EC1A2B02F006FB53EC1B2BBD
:1031C00002F0E6F801F0FEFFE06019EE100A02F0EE
:1031D00025FD41EC190B18EE100A02F01FFD53EC0F
:1031E0001A2B02F0F1FA53EC192B02F0D1F801F08E
:1031F000E9FF28EE080A2061C0EE280A9FED0E0ABA
:10320000C4ED050A84ED070A84ED080A84ED090A75
:1032100084ED0A0A84ED0B0ABDEC088B10BD00009A
:103220001F85EB51B81E1940000000000000F03F60
:1032300000000000000000C000000000F0EE400AA6
:10324000C0ED0A0A90ED040A90ED081AD0ED051AB7
:1032500090ED092A20EE410A01EEC20AD0ED021AD1
:1032600090ED0B2A01EEA00AD0ED031A01EE820ABE
:1032700080ED070A80ED091A80ED080AC0ED0B0AFF
:103280007047000010B5B3EE080A80ED000A80ED2B
:10329000020AB1EE080A80ED010A9FED160A044603
:1032A00080ED030A9FED140B51EC100B01F08AFF27
:1032B0009FED130A206184ED050A9FED120A84ED4B
:1032C000060A9FED110A84ED090A9FED100A84EDAC
:1032D0000B0A9FED0F0A84ED080A9FED0E0A84ED9C
:1032E0000A0AB2EE010A84ED070A9FED0B0A84ED8B
:1032F0000D0A10BD00000243B670F4F7243A2B40CB
:103300007CF2B03B14AE073F96438B3B59D9003457
:10331000000048429A99593E6666E63F7FB5002410
:103320001B480094019402941849039401600125FC
:103330004FF480310561C0E90114047680F8204023
:103340001449C0E90A140226C661C46080F83040FE
:103350004461FDF7C0FE08B172B6FEE70920CDE971
:103360000005694602940A48FDF70CFE08B172B6E2
:10337000FEE70820CDE9000669460548FDF702FE94
:10338000002801D072B6FEE77FBD0000002001409A
:10339000380000200100000F7FB50024154800947C
:1033A000019402941249039401604FF48031C0E902
:1033B00001140461047680F820400F49C0E90A1422
:1033C0000125C561C46080F830404561FDF783FE8A
:1033D00008B172B6FEE70620CDE900056946029401
:1033E0000448FDF7CFFD002801D072B6FEE77FBD8F
:1033F00000210140800000200100000F0C4810B5A2
:103400000A4901601021416000218160C1600161B1
:103410004161017641768176C17601774177FEF789
:103420006FF8002801D072B6FEE710BD00640040BE
:10343000C80000202DE9F04387B014216846FDF74D
:1034400013F831480024016841F00401016001686B
:1034500001F004010591016841F0800101600168FB
:1034600001F080010591016841F0010101600168EE
:1034700001F001010591016841F00201016000685D
:10348000DFF8888000F0020048F21806059000225C
:1034900031464046FEF7ACFBDFF874904FF4985786
:1034A000002239464846FEF7A3FB4FF4C0400125F1
:1034B0008DE8310069464846FEF7A2FA48F2C0009E
:1034C000CDE90004694648460294FEF799FA4FF4A4
:1034D0008150CDE90004694640460294FEF790FA17
:1034E0000096CDE90154694640460394FEF788FAF8
:1034F0000097CDE90154694648460394FEF780FAE7
:1035000007B0BDE8F08300003038024000040240FC
:103510000008024010B596B000240F941094119446
:10352000129413941C2168461494FCF79DFF2021EB
:1035300007A8FCF799FF2E482C49C0E90014202168
:10354000816041F26701C0E903148021C0E90541AF
:10355000FFF798F808B172B6FEE74FF480500F906D
:103560000FA92348FFF772F908B172B6FEE72048A9
:10357000FFF701FC08B172B6FEE7139413A91C48CB
:103580001494FEF7D7FF08B172B6FEE76020CDE9CC
:103590000004029403944FF400700494CDE90540B4
:1035A000002269461248FFF780FB08B172B6FEE7B9
:1035B000042269460E48FFF778FB08B172B6FEE7B1
:1035C0000794089409944FF400500A94CDE90B40F5
:1035D00007A907480E94FEF783FF08B172B6FEE70D
:1035E0000348FFF721FB16B010BD000000000140AA
:1035F0009801002010B58CB024216846FCF734FFF8
:103600000024164809944FF080410A94C0E9001440
:103610004FF47A61C0E90241046184610320CDE97D
:1036200000040120CDE902040A210491CDE90540FE
:10363000CDE9074169460948FFF776F908B172B646
:10364000FEE7099409A905480A94FEF773FF0028CC
:1036500001D072B6FEE70CB010BD0000E001002002
:1036600010B586B000241748009401940294039486
:1036700004941349059401605321C0E901144FF6E5
:10368000FF71C0E903148461FEF7FCFF08B172B654
:10369000FEE74FF48050009069460A48FFF7D6F8DD
:1036A00008B172B6FEE7049404A906480594FEF733
:1036B00041FF002801D072B6FEE706B010BD000041
:1036C000000400402802002010B586B000241648EF
:1036D00000940194029403940494124905940160A7
:1036E0005321C0E90114611EC0E903148461FEF78F
:1036F000C9FF08B172B6FEE74FF4805000906946EA
:103700000948FFF7A3F808B172B6FEE7049404A9CC
:1037100005480594FEF70EFF002801D072B6FEE7BB
:1037200006B010BD000C004070020020FEE7000053
:1037300010B500224FF400710548FEF759FABDE8B4
:10374000104000224FF400410248FEF751BA000039
:10375000000802400004024010B501225102054851
:10376000FEF746FA0122BDE81040D1030248FEF7F9
:103770003FBA00000008024000040240FEE70000DB
:1037800010B504462DED048B383480ED070AC0EDEA
:10379000160A90ED160A10EE100A02F03FFA9FED9D
:1037A000821B53EC112B02F00FF841EC100B53EC81
:1037B000102B9FED7F0B51EC100B01F0E9FD41EC5C
:1037C000100B84ED020B94ED020B53EC102B9FEDCC
:1037D0007A0B51EC100B01F0DBFD41EC100B84ED8A
:1037E000040B94ED000B94ED021B53EC102B51ECE9
:1037F000110B01F0CDFD9FED721B53EC112B01F06D
:1038000013FD01F04DFFA061E06901F08DFF41EC77
:10381000180B94ED040B9FED6C1B51EC100B53EC4B
:10382000112B01F0D1FF53EC182B01F0CDFF94EDDB
:10383000001B53EC112B01F0C7FF41EC100B04ED02
:10384000040BE1696248FDF711F910EE100A02F06D
:10385000E5F941EC100B04ED020B14ED040B00F044
:10386000EBFEB0EE408A14ED070AF0EE608A10EE2F
:10387000100A02F0D3F953EC182B01F0A5FF41EC2C
:10388000180B14ED040B00F073FEB0EE409A14ED2B
:10389000080AF0EE609A10EE100A02F0BFF953EC3D
:1038A000192B01F091FF53EC182B02F0CDF801F029
:1038B00089FC00EE100A04ED060A14ED040B00F07A
:1038C00057FEB0EE408A14ED070AF0EE608A10EE63
:1038D000100A02F0A3F953EC182B01F075FF41EC2C
:1038E000180B14ED040B00F0A7FEB0EE409A14ED97
:1038F000080AF0EE609A10EE100A02F08FF953EC0D
:10390000192B01F061FF53EC182B01F08DFC01F035
:1039100059FC00EE100A2F4804ED050A14ED061AB2
:1039200090ED020AF7EE001A208FC1EE000A30EE89
:10393000A11A00EE900AF8EE600A21EE201AF6EEC7
:10394000000A21EE201ABDEEC11A11EE101A61878D
:1039500014ED051A81EE002A00EE100AB8EE400AB6
:1039600032EE211A21EE000A20EE200ABDEEC00A36
:1039700010EE100A24F83C0F34F8021C16480268B6
:10398000516334F82019006881632068401C20606E
:1039900054F8040954F85019884201D30020606596
:1039A000BDEC048B10BD0000000000000000494089
:1039B0000000000000004E40000000000000F03F4A
:1039C0007B14AE47E17A843FA7E8482EFF211940D7
:1039D00088030020FC0200209801002010B59FED14
:1039E000241B04462DED028B9FED1F8B80ED048B75
:1039F00080ED068B80ED088B80ED0A8B80ED148BBB
:103A000080ED168B80ED108B80ED128B80ED0C1B02
:103A10009FED191B80ED0E1B80ED240B18484068AC
:103A200002F0FCF841EC100B9FED161B53EC102B31
:103A300051EC110B01F0ACFC01F0C4FB9FED130A3B
:103A4000206084ED010AA06084ED208B84ED228B40
:103A500084ED1C8B84ED1E8B84ED188B84ED1A8B0A
:103A6000BDEC028B10BD0000000000000000000053
:103A7000000000000000384000000000000038C0D6
:103A8000FC02002034333333333323400AD7A33CC2
:103A900010B504462DED068B53EC112B51EC100B99
:103AA00001F0D2FF41EC190B84ED049B94ED160B51
:103AB00094ED128B53EC102B51EC180B01F0C4FF5A
:103AC000D4ED020AB7EE001A41EC1A0B81EE200A7F
:103AD00010EE100A02F0A2F853EC1A2B01F074FE5B
:103AE00094ED061B53EC112B01F09EFB41EC1A0BDD
:103AF00084ED0AAB606802F091F841EC100B94ED94
:103B0000241B53EC102B51EC110B01F041FC9FEDE9
:103B1000281B53EC112B01F08BFF53EC1A2B01F0F7
:103B200053FE53EC192B01F083FF41EC190B206875
:103B300002F074F853EC192B01F046FE53EC182BED
:103B400001F072FB41EC100B84ED140B94ED0C1B97
:103B500053EC112B01F036FF02D294ED0C0B0FE069
:103B600094ED0E1B94ED140B53EC112B51EC100B38
:103B700001F0EEFD02D294ED0E0B01E094ED140B7A
:103B800084ED100B94ED040B84ED060B94ED140BF7
:103B900084ED160B94ED100B84ED120B51EC100B11
:103BA00001F010FBBDEC068B00EE100A10BD00000A
:103BB000000000000000F03F9FED181B9FED192B47
:103BC00080ED041B80ED061B80ED081B80ED0A1BB9
:103BD00080ED201B80ED221B80ED1C1B80ED1E1B49
:103BE00080ED182B9FED112B80ED1A2B80ED240B0F
:103BF0009FED100AF6EE000A80EC020A80ED020A40
:103C000080ED141B80ED161B80ED101B80ED121B48
:103C100080ED0C1B80ED0E1B7047000000000000C3
:103C20000000000000000000000010400000000044
:103C3000000010C00AD7233C7047000001EE901A24
:103C4000C0ED010A80ED020AF8EE611A818170EE82
:103C5000C00AC28181EE812AFCEEC21A11EE901ACE
:103C600001EE902A89B2F8EE611A00EE101A018373
:103C700081EE812AB8EE400ABCEEC21A11EE102A7B
:103C800080EE801A92B200EE102A4283B8EE400A0B
:103C900080ED041A80EE801A9FED040A80ED051A6B
:103CA00080ED000A80ED080A704700000000000067
:103CB00080ED000A90ED081AD0ED040A012171EEA2
:103CC000200AF4EEC00AF1EE10FA09D2F4EEC00AAE
:103CD0000022F1EE10FA0277C0ED080A12DA14E0C1
:103CE000D0ED050A71EE600AF4EEC00AF1EE10FAAA
:103CF0000EDDF4EEC00A0222F1EE10FA0277C0EDFA
:103D0000080A02D880ED080A017790ED080A70478A
:103D1000017780ED080AF8E73EB5244C94F88A0E46
:103D2000012835D1B4F88C0EB4F88E1E884230D2FA
:103D3000B4F88C1EB4F88C2EA4F5405000EB42026F
:103D400002F50052B2F9E62EB4F88C3E00EB4303C4
:103D500003F58053B3F9443F0093CDE90121B4F852
:103D60008C1E00EB4101B1F9A23FB4F88C1E30F972
:103D700011200FA1124804F68C64FCF7F1FA6423B9
:103D80001E220F490F48FFF731F92088401C208080
:103D90003EBD002084F88A0E03B01E23BDE83040EB
:103DA000092209A10748FFF721B900007037002058
:103DB0000A256420256420256420256420256400CC
:103DC00018000020B80200200A446F6E65212121EE
:103DD0000000000070B504462DED028B0D4614481E
:103DE000FFF766FF84ED160A9FED120A124884ED74
:103DF000000A90ED070A10EE100A01F00FFF94ED93
:103E0000160A41EC180B10EE100A01F007FF41EC06
:103E1000100BB0EE481AF0EE681A2846FFF740F98A
:103E2000064984ED020A01200872BDEC028B70BDC8
:103E30000046002000000000400300203403002062
:103E400070B5334C334D00262DED028BB1EE008A58
:103E50002078DFED318A60B9FFF76AFC606844F6CC
:103E60002061884202D2401C606002E06660686D9A
:103E700018B12078012805D017E0284901202070CA
:103E800081F8880EFFF768FC607800B385ED008A42
:103E9000C5ED028A224A23491E48FCF773FE60687A
:103EA000B0F5FA6F1DD2401C6060207803282CD139
:103EB0006078D0B1012823D0022826D1BDEC028B36
:103EC000174ABDE8704017491248FCF75BBE164818
:103ED00040F6980102685163006840F6340181633E
:103EE000DDE7032066602070E2E7BDEC028BB2EEF6
:103EF0000E0ABDE87040DFED0D0A0648FFF740BC32
:103F0000C5ED008A85ED028AD8E7BDEC028B70BD55
:103F100034030020F8050020000000007037002066
:103F200068040020D00300209801002000007042A7
:103F3000034900220A7048704A600A727047000004
:103F400034030020704700009FED120A002180ED2D
:103F5000000A80ED010A80ED020A80F828109FED2A
:103F60000E0B80ED040B9FED0E0B80ED060B80ED2C
:103F7000080B80ED140B80ED0C0B80ED160B80ED23
:103F80000E0B80ED180B80ED100B80ED1A0B80ED01
:103F9000120B7047000000002D431CEBE236FA3E86
:103FA0000000000000000000FDF748BF30B593B0EE
:103FB00030216846FCF758FA14210CA8FCF754FA93
:103FC0001D480025016841F080510160006800F043
:103FD000805011901948016841F4804101600068E7
:103FE000022400F4804011900120039010200490DE
:103FF000009406940820CDE90750A820CDE90904D3
:1040000004200B906846FEF79FF808B172B6FEE7F1
:104010000CA90F2081E831004FF4A0500F904FF40D
:104020008050109005210CA8FDF7A2FF002801D0B8
:1040300072B6FEE713B030BD403802400070004059
:104040000248016841F470010160704788ED00E0AA
:104050000148FEF735BD000098010020F0B5026868
:10406000254C264D264E274F274B4FF0804CA04223
:1040700009D0604507D0A84205D0B04203D0B8426D
:1040800001D0984204D122F0700E4A6842EA0E0232
:10409000A0421BD0604519D0A84217D0B04215D01D
:1040A000B84213D0984211D0184DA8420ED0184DE6
:1040B000A8420BD0174DA84208D0174DA84205D0F2
:1040C000164DA84202D0164DA84203D122F44075E5
:1040D000CA682A434D6922F080022A4302608A6836
:1040E000C2620A688262A04201D0984201D1096985
:1040F000016301214161F0BD000001400004004066
:1041000000080040000C0040000401400040014055
:10411000004401400048014000180040001C0040DD
:104120000020004010B501F01F030121046A9940EE
:104130008C430462016A9A401143016210BD10B5BC
:1041400001F01F030421046A99408C430462016A50
:104150009A401143016210BD10B5846842EA0322FF
:1041600024F47F440A432243826010BD826822F017
:1041700070020A4342F0070181607047F0B5026A9D
:1041800022F001020262036A42688469124E24F03E
:1041900073050C682C4323F002058B682B430D4DEF
:1041A000A84201D0B04205D123F00807CB683B43B9
:1041B00023F00403A84201D0B04205D14D6922F496
:1041C000407215438A692A434260846149684163A9
:1041D0000362F0BD0000014000040140F0B5026A36
:1041E00022F010020262026A436884690D6824F4B6
:1041F000E64444EA05248D6822F0200242EA0512D2
:104200000F4D104EA84201D0B04206D1CF6822F027
:10421000800242EA071222F04002A84201D0B042D6
:1042200007D14D6923F4406343EA85038D6943EA6E
:10423000850343608461496881630262F0BD0000C8
:104240000000014000040140F0B5026A22F48072CF
:104250000262026A4368C46922F4007224F07305A2
:104260000C68124E2C438D6842EA05220E4DA8427E
:1042700001D0B04206D1CF6822F4006242EA0722A0
:1042800022F48062A84201D0B04207D14D6923F4E4
:10429000405343EA05138D6943EA05134360C46143
:1042A0004968C1630262F0BD0000014000040140A2
:1042B00030B5026A22F480520262046A4268C3691D
:1042C0000D6823F4E64343EA05238D6824F4005483
:1042D00044EA0534084DA84202D0084DA84204D152
:1042E0004D6922F4804242EA85124260C361496806
:1042F0000164046230BD0000000001400004014080
:1043000010B5036A046A24F001040462846924F08D
:10431000F00444EA021423F00A020A4384610262B0
:1043200010BD10B5036A23F0100303628369046AA9
:1043300023F4704343EA023224F0A00343EA01115C
:104340008261016210BD000030B4002211464FF4BA
:10435000FA6400BF20F8121000EB4203A3F8A21F7A
:1043600041F64475E95203F50053A3F8E61E521CCA
:10437000A242EFDBA0F5BC7000F5804001704170F7
:1043800081708180C180012230BC11030148FDF79A
:104390002FBC00000008024070B5044600680169A7
:1043A000E26821F44051114301612169A068E2698A
:1043B00008436169114308432168CA6849F20C63E4
:1043C0009A430243CA6020684169A26921F440719E
:1043D0001143416131492068884202D03049884206
:1043E00002D1FDF76FFE01E0FDF75CFEE2690023FC
:1043F000192164253226B2F5004F626828D0A0FB4F
:104400000101930F9200FBF733FF0146B0FBF5F07B
:104410006FF01802504301EB800006EB0010B0FB78
:10442000F5F000F0F002B1FBF5F002EB0012B1FB89
:10443000F5F06FF01803584301EB800006EB001015
:10444000B0FBF5F000F00F0021681044886070BDEB
:10445000A0FB010192185B41FBF70AFF0146B0FB8C
:10446000F5F00201B1FBF5F06FF01803584301EBD2
:10447000800006EBC000B0FBF5F000F0F80002EBA6
:104480004002B1FBF5F0584301EB800006EBC000A1
:10449000B0FBF5F000F00700D6E700000010014087
:1044A000001401402DE9F041984617460E46044697
:1044B000069D27E0681C25D02DB1FDF79FFBA0EBE2
:1044C0000800A8421ED920680C3050E8001F21F4D3
:1044D000D07140E80012002AF5D12068143050E86D
:1044E000001F21F0010140E80012002AF5D1202030
:1044F00084F83D0084F83E00002084F83C0003204E
:10450000BDE8F0812068006836EA000004D0002091
:10451000B842CFD00020F3E70120F9E7FEE703B46B
:1045200001984100009850EAC12018BF04204A0DAC
:1045300018BF40F0010040F2FF72B2EB515F08BFBC
:1045400040F00200012808BF052002B070470907AB
:10455000090E002804DB00F1E02080F80014704709
:1045600000F00F0000F1E02080F8141D70470000FB
:1045700010B52F499FED2C1B2DED020B84B0059833
:1045800020F000408842D8BF9DED040B2DDD294965
:10459000884209D1049840B94FF00100FBF793FF1E
:1045A00000F0A2FC06B010BD05DB9DED040B00F091
:1045B0008FFC06B010BD68469DED040B00F0A0F81E
:1045C00010F0030004BF9DED021B9DED000B0CD00D
:1045D00001280ED09DED021B9DED000B022817D087
:1045E000012000F0DDFB06B010BD00F0A5FA06B01A
:1045F00010BD9DED021B9DED000B012000F0D0FBD6
:1046000051EC100B00F0D2FD06B041EC100B10BDC8
:1046100000F092FA51EC100B00F0C8FD06B041EC2E
:10462000100B10BD000000000000000000000000A2
:10463000FB21E93F0000F07F10B52F499FED2C1BB7
:104640002DED020B84B0059820F000408842DCBFBD
:1046500000209DED040B32DD2849884209D10498E1
:1046600040B94FF00100FBF72EFF00F03DFC06B013
:1046700010BD05DB9DED040B00F02AFC06B010BD5B
:1046800068469DED040B00F03BF810F0030011D0DC
:10469000012818D09DED021B9DED000B02281AD0B9
:1046A00000F04AFA51EC100B00F080FD06B041EC2E
:1046B000100B10BD9DED021B9DED000B012000F0C5
:1046C0006FFB06B010BD9DED021B9DED000B00F0D1
:1046D00033FA06B010BD012000F062FB51EC100B64
:1046E00000F064FD06B041EC100B10BD00000000AE
:1046F0000000000000000000FB21E93F0000F07F07
:104700002DE9F14F04462DED020B2DED088B8AB0FB
:104710009FEDE70B80ED020B139EE74826F0004566
:1047200085420ADC9DED120B002084ED000B0AB0DF
:10473000BDEC088B03B0BDE8F08FE0489FEDE0AB27
:104740009FEDE1BBA84247DDE14F9FEDE39B9FED6D
:10475000E48B9DED120B53EC1A2B51EC100B002E39
:104760001CDD01F071F941EC100BBD4208D053EC97
:104770001B2B51EC100B01F067F9C4E900010BE0B1
:1047800053EC192B51EC100B01F05EF953EC182B84
:1047900001F05AF9C4E900010120C8E700F044FD26
:1047A00041EC100BBD4208D053EC1B2B51EC100B0D
:1047B00000F03AFDC4E900010BE053EC192B51EC79
:1047C000100B00F031FD53EC182B00F02DFDC4E967
:1047D00000014FF0FF30AAE7C348A84279DB9DED06
:1047E000120B51EC100B00F09FFB41EC180B9FEDEE
:1047F000C00B53EC102B00F0E7FF9FEDBF1B53ECF9
:10480000112B00F011FD00F01BFF074600F075FFB3
:1048100041EC190B53EC1A2B00F0D6FF53EC182B7C
:1048200001F006F941EC180B53EC1B2B51EC190B62
:1048300000F0CAFFDFF8C8A241EC100B4FEA155890
:104840000125FA4453EC102B51EC180B01F0FCF845
:10485000032DC4E900013DD0C1F30A5005EB451119
:10486000A8EB00001139814234DA0AEB051BB0EEE7
:1048700048AA9BED000BF0EE68AA53EC102B51EC0C
:10488000190B00F0A1FF41EC1B0B51EC1A0B53EC80
:104890001B2B01F0D9F841EC180B51EC1A0B53EC1F
:1048A000182B01F0D1F853EC1B2B01F0CDF89BED48
:1048B000020B41EC1A0B53EC102B51EC190B00F0CE
:1048C00083FF53EC1A2B01F0BFF841EC100B6D1C69
:1048D000B8E70EE0002EA8BF3846BFF628AF94ED2B
:1048E000000B51EC100B00F061FCC4E900017842B0
:1048F0001DE7C6F3130040F4801EC6F30A50A0F271
:10490000F530471100F01F05C5F12000DDF848B073
:1049100008900020069007900520EC467949002D6C
:1049200007EB0002794408BF51F8221009D051F872
:10493000223001EB8201AB404A68089922FA01F16A
:104940001943A1FB0E26A1FB0B131A449A4234BF54
:104950000123002303EB06080CEB8003D3E901A637
:104960000E448E4234BF0121002192448A4411B189
:10497000924502D903E0924501D2012100E00021D5
:10498000C3E901A641444CF82010011EA0F101002A
:10499000C4DC029800F10050850F0298DDE903673E
:1049A0008000DDF8148000F0A8FE41EC1A0B3046C0
:1049B00000F0BAFE9FED541B53EC112B00F004FFE6
:1049C00041EC1B0B384600F0AFFE9FED511B53EC42
:1049D000112B00F0F9FE41EC180B404600F0A4FE4C
:1049E0009FED4D1B53EC112B00F0EEFE41EC190B2B
:1049F00051EC180B53EC192B00F016FC53EC1B2B4D
:104A000000F012FC53EC1A2B00F00EFCCDE908016B
:104A1000002008909DED080B53EC1A2B51EC100B65
:104A200001F012F853EC1B2B01F00EF853EC182B8D
:104A300001F00AF853EC192B00F0FAFF9FED381B38
:104A400053EC112B00F0C0FE9FED370B41EC180B1F
:104A500053EC102B9DED080B51EC100B00F0B4FE45
:104A600053EC182B00F0E0FB9FED310B41EC180BE1
:104A700053EC102B9DED080B51EC100B00F0A4FE35
:104A800053EC182B00F0D0FB41EC100B139810F0F6
:104A9000004F06D06D4251EC100B00F087FB41EC4B
:104AA000100B284684ED000B41E6000000000000DA
:104AB0000000000000000000FB21E93F7CD902401B
:104AC00000004054FB21F93F3163621A61B4D03DCC
:104AD000FB21F93F000000000000601A61B4D03DE6
:104AE0007370032E8A19A33BFB213941000000009B
:104AF00083C8C96D305FE43F000000000000E03F64
:104B00002215000070140000000000000000103E9C
:104B1000000000000000103C000000000000103AFF
:104B2000182D4454FB21F93D3326A611460B113CA8
:104B300000000054FB21F93D10B52DED040B2DEDC7
:104B4000088B82B0B0EE419AF0EE619A0B9820F09B
:104B500000449FED4BABB4F1795F11DA9DED0A0B88
:104B600051EC100B00F06CFD002801BFB0EE4A0ABA
:104B7000F0EE6A0A02B0BDEC088B04BF04B010BDB1
:104B80009DED0A0B53EC102B51EC100B00F01CFEAA
:104B900041EC180B3C480621B0EE480AF0EE680ADA
:104BA000784400F081F853EC182B51EC100B00F016
:104BB0000BFE9DED0A0B41EC1B0B53EC192B51EC3A
:104BC000100B00F001FE41EC190B53EC1B2B51ECC8
:104BD000180B00F0F9FD53EC192B00F035FF9FED99
:104BE0002C0B41EC190B53EC102B51EC180B00F073
:104BF000EBFD41EC100B2848844210DA53EC192BE2
:104C000051EC100B00F020FF53EC1A2B00F010FFBA
:104C100041EC100B02B0BDEC088B04B010BD1F4876
:104C2000A042BCBF9FED1E1B8DED001B06DBA4F553
:104C300000100190002000909DED001B51EC100B26
:104C400053EC112B00F000FF9DED000B41EC180B15
:104C500053EC102B51EC1A0B00F0F6FE41EC1A0B42
:104C600053EC192B51EC180B00F0EEFE53EC1A2B01
:104C700000F0DEFE41EC100BCCE70000000000006D
:104C8000000000000000F03F941100000000000050
:104C9000000000000000E03F3333D33F0000E93F55
:104CA000000000000000D23F70B504462DED028BDD
:104CB0004D1E00EBC500B0EE408AF0EE608A90ED2C
:104CC000000B35F0060017D053EC182B51EC100BED
:104CD00000F07AFD41EC100B6D1E04EBC50090ED69
:104CE000001B51EC100B53EC112B00F09DFA41EC22
:104CF000100B35F00600E7D1022D36D0042D1CD064
:104D0000062D1CBFBDEC028B70BD53EC182B51EC73
:104D1000100B00F059FD94ED0A1B53EC112B00F021
:104D200083FA53EC182B00F04FFD94ED081B53EC65
:104D3000112B00F079FA41EC100B53EC182B51ECCD
:104D4000100B00F041FD94ED061B53EC112B00F00D
:104D50006BFA53EC182B00F037FD94ED040B53EC79
:104D6000102B00F061FA41EC100B53EC182B51ECB6
:104D7000100B00F029FD94ED021B53EC112B00F0F9
:104D800053FA53EC182B00F01FFD94ED001B53EC6D
:104D9000112B00F049FABDEC028B41EC100B70BDF9
:104DA00031B504462DED040B2DED0A8BB0EE41BA62
:104DB000F0EE61BA0B989DED0A0B20F00040B0F1C7
:104DC000795F0DDA51EC100BFFF7A9FB042808BF3F
:104DD00000F09AF89DED0A0BBDEC0A8B05B030BDD2
:104DE00053EC102B51EC100B00F0EEFC41EC180BC7
:104DF0009DED0A0B53EC182B51EC100B00F0E4FC6A
:104E000041EC190B2C48B0EE480AF0EE680A052177
:104E10007844FFF749FF9FED2ACBB0EE40AAF0EEB1
:104E200060AA9CB353EC1C2B51EC190B00F0CCFC8A
:104E300041EC1C0B53EC1A2B51EC190B00F0C4FC89
:104E40009FED210B41EC190B53EC102B51EC1B0B7C
:104E500000F0BAFC53EC192B00F0F6FD53EC182BC4
:104E600000F0B2FC53EC1B2B00F0EEFD53EC1C2BBE
:104E700000F0EAFD9DED0A1B53EC112B00F0D8FD6C
:104E8000BDEC0A8B05B041EC100B30BDFFE753ECD5
:104E90001A2B51EC180B00F097FC53EC1C2B00F074
:104EA000C3F953EC192B00F08FFC9DED0A1B53EC5A
:104EB000112B00F0B9F9E3E71C100000000000001E
:104EC000495555555555C5BF000000000000E03F4D
:104ED00010B553EC102B51EC100B00F0A5F941EC80
:104EE000100B10BD000000009FED050B10B553EC3A
:104EF000102B51EC100B00F04BFA41EC100B10BDD5
:104F000000000000000000009FED050B10B553EC01
:104F1000102B51EC100B00F057FC41EC100B10BDA6
:104F2000000000000000001082B0CDE9000121F077
:104F3000004001909DED000B02B051EC100B70474A
:104F40002DED048B82B0FCF781FFFFF72FF8FEF701
:104F500071FA82480024016841F480010160006810
:104F6000224600F48000009021463820FCF7CEFF56
:104F70003820FCF7BDFFFEF7D1F9FEF70DFAFEF77A
:104F80003DFA78487649784E0160C0E901640D1415
:104F9000C0E9034544618461C4610462FCF734FEE6
:104FA00008B172B6FEE76F48704954300160C0E93D
:104FB0000164C0E9034544618461C4610462FCF793
:104FC00023FE08B172B6FEE7FEF7A4FAFEF712FB65
:104FD0006848674901604FF41661C0E901140C216B
:104FE000C460C0E904418461C461FDF798FF08B161
:104FF00072B6FEE7FEF734FBFEF766FB5E4C01225D
:1050000008212046FCF7F4FD012210212046FCF780
:10501000EFFDFEF78DFB53480021A830FDF7DAFEC7
:1050200050480021A830FDF7CDFA4E480421A830A1
:10503000FDF7D0FE4B480421A830FDF7C3FA4948DC
:10504000B838FCF7FFF84748A830FDF7BFFB4948E0
:10505000D838FDF7BBFB47489038FDF77BFB454848
:105060004838FDF777FB43483C21D838FDF7E0FC92
:1050700040484430FEF706F94048FBF77DFF3F48C3
:105080005038FBF721FB3E4C3A484FF47A7594EDCB
:10509000000B042229468830FBF724FF35489FED9A
:1050A000390B04222946D030FBF71CFF9FED379BBC
:1050B0003248B0EE490AF0EE690A1030FBF722FDE3
:1050C0002E488830FEF740FF9FED320A29463248CD
:1050D000FEF724F89FED318A2F480A21B0EE480AE6
:1050E0003038FEF71BF82C48B0EE480A0A21303061
:1050F000FEF714F8B0EE490AF0EE690A2848FEF708
:105100006DFC2748B0EE490AF0EE690A9830FEF7C8
:1051100065FC1A4894ED000BE838FEF74DFD1E487B
:105120006030FFF711F994ED000B51EC100B00F01B
:1051300049F801EE100A0F48052244309FED190A84
:10514000D0ED030A11461848FEF778FD0220FEF75D
:10515000EFFE00BFFEF7E0FDFCE700003038024044
:1051600000540040F0000020A086010000580040DC
:1051700000480040B802002000040240E80500207A
:105180000000002000000000000000002D431CEB88
:10519000E2360A3F17B7D138100700200AD7233C60
:1051A000D0030020000000000046002081F00041F4
:1051B000704780F00040704721F00041704720F0B8
:1051C0000040704721F00042A2F16052B2F5801F0A
:1051D00001F0004328BFD2F17F6C0BD95FEA001CBD
:1051E00043EAC20242EB507018BF704728BF20F05C
:1051F00001007047B2F5801FBCBF184670474FEAE8
:10520000410C1CF5001F02D2084600F07DBD70B5B0
:1052100000F084FB00000089FFF7F6BF4FF000406C
:10522000A0F580007047000010B591EA030F48BF59
:1052300083F0004300F11084841A71EB030C05D253
:10524000121943EB0C03001B61EB0C01DFF824E1A6
:105250004FEA1154A4EB135C1EEA430F18BF9EEAF9
:10526000445F73D023EA0E03DCF1200E21EA0451DF
:1052700043F4801332D322FA0CFE10EB0E0023FA13
:105280000CFE41EB0E01CCF1200E03FA0EFE10EBEA
:105290000E0051F10001B1F5801FCCF1200E32D289
:1052A00001EB045112FA0EF2BDE8104058BF7047EE
:1052B000401C38BF5FEA420218BF7047002814BF85
:1052C00020F0010041F100014FEA410313F5001FF6
:1052D00038BF7047A1F1C04100F06EBB012A43EB1B
:1052E0000302ACF1200CDCF11F0E32BF4FF0000EB8
:1052F00023FA0CF310EB030041EB0451B4EB115F04
:10530000D0D0A1EB045101F5801149085FEA3000CB
:1053100001EB04510ED350F1000038BF12FA0EFE1B
:1053200008D1BDE81040C9E7401C38BF5FEA42021F
:10533000CAD1C3E7BDE810404FEA410313F5001F8F
:1053400038BF7047A1F1C04100F036BB9EEA445F10
:1053500008D011EA5E0FBDE8104004BF01F0004123
:1053600000207047BDE8104070B500F0D7FA00BFCC
:1053700064FBBE3E0000E0FF491058BFC1F1404150
:105380005B1058BFC3F140438B42EFF3008070477E
:105390002DE9C04130B4DFF8A0C23CEA111418BFB7
:1053A0003CEA131400F0EC8081EA03051CEA1114B6
:1053B00044EAD57418BF1CEA131500F0C780A4EBAB
:1053C00005044FF0004545EAC12145EAC32341EAFF
:1053D000505143EA525304F17F74994204F500346A
:1053E0004FEAC0204FEAC22208BF904200F09C80E2
:1053F0004FEA13650FF24016765D4FEA134506FB40
:1054000005F7C7F1807706FB07F74FEAD737A7FB09
:1054100003687642C8F58038A7FB06CE38BFA8F1EE
:10542000010807FB08E64FF0000EA6FB028CE6FB26
:1054300003CEDCF1000CCEF1004E38BFAEF1010E10
:10544000A6FB0C584FF000074FF00005E6FB0E8757
:10545000A1FB08C6A0FB07CE16EB0E0645F1000522
:10546000E1FB076515F1E04E7EBFA4F580345FEAED
:1054700046066D4116F1800745F100054FEA1727F2
:105480004FEA066647EA0567A6F1DE46B6F1805F99
:105490004FEA15251FD9384624F0010C05EBC471DD
:1054A000BCF1FE6F01EB0C1102D8F0BCBDE800812D
:1054B00024425CBF01F5801E9EEAC47F02D4F0BC8A
:1054C000BDE80081244238D4F0BCA1F1C041BDE860
:1054D000004100F071BA4FEAD22242EA43524FEA49
:1054E000D323A7FB02864FEAD02040EA415007FBB6
:1054F00003661EEA0E0F4FEAD12105FB026658BF74
:10550000A6EB0056B6EB00564FEA520E4EEAC37EAB
:1055100018EB0E0E56EB530EBDD518EB02085E418C
:105520007F1C55F10005B6E74FF480154FF00007DA
:105530004FF000064FF00008ADE7F0BC4FF0000060
:1055400001F1C04101F00041BDE8008111EA0C1FEA
:105550000CEA131500D00CE013EA0C1F00F02580B4
:105560004FF00000F0BC81EA030101F00041BDE80A
:105570000081F0BCBDE8004181EA030100F01CBAE3
:10558000F0BCBDE8004170B500F0C8F9097EFC3EF2
:1055900000F007B881EA03014FF0000001F000417C
:1055A000704781EA030100F007BAF0BCBDE8004192
:1055B0004FF0000021497047FFFDFBF9F7F5F4F2C9
:1055C000F0EEEDEBE9E8E6E4E3E1E0DEDDDBDAD89E
:1055D000D7D5D4D3D1D0CFCDCCCBCAC8C7C6C5C4FC
:1055E000C2C1C0BFBEBDBCBBBAB9B8B7B6B5B4B313
:1055F000B2B1B0AFAEADACABAAA9A8A8A7A6A5A4FE
:10560000A3A3A2A1A09F9F9E9D9C9C9B9A999998C1
:105610009797969595949393929191908F8F8E8E64
:105620008D8C8C8B8B8A89898888878786858584F1
:1056300084838382828181800000FF070000F87FDD
:105640004FEA41034FEA5353A3F58063D3F11E039E
:10565000C8BFD3F1210C0CDD4FF0004242EAC12259
:1056600042EA505232FA03FC8CEAE17CACEBE17086
:105670007047102BC4BF0020704703F5787CBCF145
:10568000FF3F04D06FF0004282EA2100704770B5FE
:1056900000F044F94992248000207047F2E70000AE
:1056A0004FEA1153A3F58063D3F11E03A8BFD3F1D2
:1056B000200C08DB4FF0004242EAC12252EA50526D
:1056C00032FA03F0704709420BD4102BC4BF0020FC
:1056D000704703F5787CBCF1FF3F05D04FF0FF30F9
:1056E00070474FF00000704770B500F017F900BF29
:1056F0004992248000207047F0E710F0004248BF34
:105700004042B0FA80F310FA03F10AD0C3F11D034E
:1057100003F580634FEA415002EB035202EBD121C3
:1057200070474FF000007047B0FA80F310FA03F1B1
:105730000AD0C3F11D0303F580634FEA41504FEADD
:10574000035202EBD12170474FF000007047000078
:1057500051EA030C17D41CF5801F58BFBCF5801FFD
:1057600000F10680994218BF704708BF9042704709
:1057700007D711F5801F58BF13F5801F19D4994220
:105780007047894270471CF5801F08D5BCF5801F03
:10579000F7D58B4218BF704708BF824270474FF45D
:1057A000001C1CEB410F38BF1CEB430F01D28B4296
:1057B000704770B500F0B2F8922449004FF00051E4
:1057C0004FF08053FFF7D8BDDFF848C170B51CEA31
:1057D000111E1EBF1CEA13159EEA0C0F95EA0C0F52
:1057E00000F06F8081EA030423EA4C134EEAD47E72
:1057F00021EA4C1141F4801143F48013AE44A1FB23
:10580000024CA0FB0365AEF17F7E361955EB0C050B
:10581000A1FB034C4CF10003A0FB021C16EB0C0691
:10582000654153F10003094218BF46F0010613F425
:10583000007F0BD14FEA03314FEA0530340341EAD0
:10584000155140EA16506FF003020AE04FEAC321F7
:105850004FEAC520F40241EA555140EA56506FF034
:10586000020202EB2E4201EB025585EACE710AD00C
:105870005FEA440C18BF24F0004450F1000041F1ED
:10588000000120EAD47040F2FE7C624500D270BD77
:10589000A84214BF4FF080444FF04044002E08BF90
:1058A0000024BEF1806FA8BFA1F1C041BDE87040E7
:1058B00080F282804FF0000001F1C04101F0004110
:1058C00070479EEA0C0F0CEA131518BF95EA0C0FEF
:1058D00006D04FF0000081EA030E0EF0004170BDCB
:1058E00000F01CF88900013E00F007B800F009B88C
:1058F0004FEA430C5FEA5C5C08D081EA030100F0E8
:105900005BB84FEA410C5FEA5C5CF6D14FF00000F7
:10591000014970470000FF070000F87F0EF1020EFA
:105920002EF0030E5EF8046B364205D4012A43EBD9
:10593000030515F5001F12D8012841EB010C1CF5D9
:10594000001F0CD80ED14FEAD17C15F5001F0CEBCF
:105950004C0C0CF1020C08BF4CEBD37C04E04FF074
:10596000080C01E04FEAD37C0CEB4C0526FA05F657
:1059700006F00706B6F1040C06D20EEB860CBDE865
:1059800070404CF0010C6047DFE80CF0090B02029C
:105990004FF000414FF00000A1F5002170BD194605
:1059A0001046012851EB010418BFD4F5001484BF40
:1059B000002001F0004170BD0808A0F500114FEA79
:1059C0003101704753EA010C17D41CF5801F58BFF2
:1059D000BCF5801F00F106808B4218BF704708BFDE
:1059E0008242704707D713F5801F58BF11F5801FFB
:1059F00019D48B4270479B4270471CF5801F08D515
:105A0000BCF5801FF7D5994218BF704708BF904278
:105A100070474FF4001C1CEB430F38BF1CEB410FC9
:105A200001D2994270470FB40CBC03BCFFF7C1BE52
:105A300091EA030F10B581F000413FF5FDAB83F013
:105A4000004300F009B8000010B591EA030F48BF09
:105A500083F000433FF5F0AB841A71EB030C07D2DF
:105A600012198CF0004C43EB0C03001B61EB0C0192
:105A7000DFF8A4E14FEA1154A4EB135C1EEA430FD4
:105A800018BF9EEA445F00F0B08023EA6E035242E2
:105A900021EA0451C3EB6E0338BF5B1EDCF1200E1C
:105AA00025D322FA0CFE10EB0E0043FA0CFE41EB5C
:105AB0000E01CCF1200E03FA0EFE10EB0E0051F198
:105AC0000001CCF1200E29D412FA0EF201EB0451A0
:105AD000BDE8104058BF7047401C1CBFB2F1004FDA
