:020000040800F2
:10000000680B002029020008492E00087928000802
:10001000212E000881060008E533000800000000DA
:100020000000000000000000000000001F2F00087A
:10003000E5070008000000001D2F0008212F000820
:10004000430200084302000843020008430200087C
:10005000430200084302000843020008430200086C
:10006000430200084302000843020008430200085C
:10007000430200084302000843020008430200084C
:100080004302000843020008C904000843020008B4
:10009000430200084302000843020008430200082C
:1000A00043020008C92F0008430200084302000869
:1000B000D52F0008E12F0008430200084302000882
:1000C00043020008430200084302000843020008FC
:1000D00043020008430200084302000843020008EC
:1000E00043020008430200084302000843020008DC
:1000F00043020008430200084302000843020008CC
:1001000043020008430200084302000843020008BB
:1001100043020008430200084302000843020008AB
:1001200035070008430200084302000843020008A4
:100130004302000800000000000000004302000825
:10014000430200084302000843020008430200087B
:10015000430200084302000843020008430200086B
:10016000430200084302000843020008430200085B
:1001700043020008430200080000000000000000E5
:10018000430200084302000800F002F800F03CF8C7
:100190000AA090E8000C82448344AAF10107DA45E2
:1001A00001D100F031F8AFF2090EBAE80F0013F0F8
:1001B000010F18BFFB1A43F001031847D43C00009D
:1001C000F43C0000103A24BF78C878C1FAD852072E
:1001D00024BF30C830C144BF04680C6070470000C1
:1001E0000023002400250026103A28BF78C1FBD840
:1001F000520728BF30C148BF0B6070471FB503F0DE
:100200002CFE1FBD10B510BD00F0E2F81146FFF73F
:10021000F5FF03F05FF900F000F903B4FFF7F2FF18
:1002200003BC00F003F90000094880470948004773
:10023000FEE7FEE7FEE7FEE7FEE7FEE7FEE7FEE796
:10024000FEE7FEE704480549054A064B70470000F3
:10025000B92F00088901000868050020680B0020FC
:10026000680700206807002053EA020C00F069804C
:100270002DE9F04B4FF00006002B1FBFB3FA83F5BA
:1002800003FA05F424FA05F65E4012BF1643B2FAEB
:1002900082F502FA05F4C5F120051EBF22FA05FC1D
:1002A00044EA0C04203556EA044C4FEA144418BFC3
:1002B000641C4FF000084FF00009904271EB030CF2
:1002C00039D3002919BFB1FA81F701FA07F6B0FA5C
:1002D00080F700FA07F6C7F120071EBF20FA07FCD7
:1002E00046EA0C062037B6FBF4FCA7EB0507103FE7
:1002F00007F01F0BCBF120060CFA0BFB2CFA06F6CD
:1003000044BFB3460026202FA4BF5E464FF0000B2B
:100310005BEA060C08BF4FF0010B19EB0B09ABFBB6
:10032000027C48EB0608C01B06FB02CC0BFB03CC8F
:1003300071EB0C01C1E70B46024641464846BDE859
:10034000F08B13B54FF000004FF00001AFF30080C9
:10035000BDE81C4070474FF0000200B513469446BC
:100360009646203922BFA0E80C50A0E80C50B1F10D
:100370002001BFF4F7AF090728BFA0E80C5048BF21
:100380000CC05DF804EB890028BF40F8042B08BFBF
:10039000704748BF20F8022B11F0804F18BF00F8BB
:1003A000012B704770477047704710B500F008F890
:1003B000006810BD10B5044600F002F8046010BDDE
:1003C00000487047080500200048704708050020D5
:1003D0007546FFF7F9FFAE4605006946534620F023
:1003E0000700854618B020B5FFF72CFFBDE8204078
:1003F0004FF000064FF000074FF000084FF0000BE1
:1004000021F00701AC46ACE8C009ACE8C009ACE893
:10041000C009ACE8C0098D46704710B50446AFF37B
:1004200000802046BDE81040FFF7F7BE01491820C4
:10043000ABBEFEE726000200704710B50146806B98
:10044000026C12F0500F05D0026CD20626D500F0D7
:10045000A1FA10BD016C41F40071016401688A6861
:1004600012F0405F17D1027EAAB9CA6A12F4700F67
:1004700002D08A6852050ED44A6822F020024A60EF
:10048000016C21F480710164016CC90403D4016C16
:1004900041F00101016400F07BFA10BD806BC26C79
:1004A000BDE810400846104710B5806B402101643C
:1004B000416C41F00401416400F06CFA10BD10B5CC
:1004C000806B00F066FA10BD10B5044800F063FAC6
:1004D000BDE81040024800F05EBA0000180000209D
:1004E0006000002000210A4620F81120491C032941
:1004F000FADB9FED130ADFED170A80ED050A9FED89
:10050000110A80ED0F0A9FED100A80ED060A9FED9B
:100510000F0A80ED070A9FED0E0A80ED010A80EDBB
:10052000020A80ED080A80ED090A80ED0B0A80EDD1
:100530000C0AC0ED0E0A80ED030A80ED040A704734
:100540009A9951409A99513AF6281C40CDCC1C40BA
:1005500000000000A4703D3E464910B54A6822F4F0
:1005600040324A604A6843681A434A6001684A68F0
:1005700022F480724A6001684A68036942EA0322F1
:100580004A6001684A6822F040724A6001684A681D
:1005900083681A434A6001688A6822F400628A60AC
:1005A00001688A68C3681A438A60816A6FF0706262
:1005B000D14201688A6822F070628A6001688A68A4
:1005C0000CD0836A1A438A6001688A6822F040521C
:1005D0008A6001688A68C36A1A4301E022F04052C7
:1005E0008A6001688A6822F002028A6001688A686B
:1005F000037E42EA43028A6090F8201000290168D5
:100600004A680FD042F400624A6001684A6822F4E6
:1006100060424A6001684A68174C436A04EB4333FE
:100620001A4301E022F400624A600168CA6A22F4B7
:100630007002CA620168CA6A838B104C04EB0353D0
:100640001A43CA6201688A6822F400728A600168EB
:100650008A6890F8303042EA43228A6001688A68EA
:1006600022F480628A6001688A68406942EA8020D8
:10067000886010BD0023014000E0FFFF0000F0FF94
:10068000FEE7000010B50446014602221B4800F0B8
:1006900057FB2088D4ED0F0A00EE100AB8EE400A8E
:1006A00020EE800A84ED010A608801EE100A1448E9
:1006B000B8EE411A60EE810AC4ED020A02F06EF94A
:1006C00084ED080A94ED020A0D4802F067F984ED02
:1006D000090AD4ED060A94ED081A30EEC11AD4EDD9
:1006E0000E0AC1EE201AC4ED0B1A94ED071A31EE72
:1006F000400A80EE201A84ED0C1A10BD180000206C
:10070000780400209FED080A9FED081B80ED020A87
:1007100080ED041B0021816180ED010A80ED000A5B
:10072000C16180ED081B7047000000000000000060
:1007300000000000014800F071BC0000A804002087
:1007400001681823CAB2103AB2FBF3F2054B6FF3FB
:100750000901032A9B5CC36500D9091D8165084610
:10076000704700006E3E000810B5014600208B69FE
:100770008A6A4FF0C07453B1B3F5005F15D072B1FF
:10078000012A0CD0022A0AD0032A09D104E01AB1A6
:10079000012A06D0022A03D1C96AC90100D5012065
:1007A00010BDC96AA142FAD010BD002AF7D0012AB3
:1007B000F2D0022AF3D0032AF3D010BD30B504687A
:1007C000256825F480252560046863608368402BD4
:1007D000036803D099600068C26030BD9A60006809
:1007E000C16030BD704700005143016080ED010AD7
:1007F0000022C261026101EE101A8260DFED0B0A75
:10080000B8EEC11AC260C0ED050AC0ED060A21EEBD
:10081000000A9FED071AC0ED090AC1EE001AC0EDEB
:10082000081AC0ED0A0AC0ED0B0A7047000000006C
:100830000000704272B6FEE700210160416070471F
:100840007047000078B50024009490F83C20012AFD
:1008500019D0012280F83C200A6807230568092A7C
:1008600013D9EE680A3A02EB420293409E43EE60CF
:100870000B788A680A3B03EB43039A400368DD6800
:100880002A43DA6010E0022078BD2E6902EB4202B2
:1008900093409E432E610B788A6803EB43039A4092
:1008A00003681D692A431A614A681F23072A13D265
:1008B00005686E6B521E02EB820293409E436E638C
:1008C0000B790A885B1E92B203EB83039A4003689C
:1008D0005D6B2A435A6327E005680D2A12D22E6BFE
:1008E000D21F02EB820293409E432E630B790A884B
:1008F000DB1F92B203EB83039A4003681D6B2A430C
:100900001A6311E0EE6A0D3A02EB820293409E43B5
:10091000EE620B790A880D3B92B203EB83039A4097
:100920000368DD6A2A43DA62164B0568144A9D4261
:1009300006D10D68122D03D1556845F48005556028
:1009400005689D4218D10B68102B01D0112B13D1D3
:10095000536843F400035360096810290CD10A4915
:100960000A4A0968B1FBF2F101EB8101490000E09C
:10097000491E00910029FBD180F83C40002078BD41
:1009800000230140002001401400002040420F00DD
:1009900070477047704770B5044600680668456840
:1009A00016F0020F05F020012AD049B3216CC906C8
:1009B00003D4216C41F400712164816811F0405F1F
:1009C00017D1217EA9B9C16A11F4700F02D08168D4
:1009D00049050ED4416821F020014160206C20F4CB
:1009E00080702064206CC00403D4206C40F00100AF
:1009F00020642046FFF7CCFF21686FF012000860EA
:100A000016F0040F05F0800132D089B3206CC006C7
:100A100003D4206C40F4005020642068816811F4F5
:100A2000401F1ED1816B11F4401F02D0816849051F
:100A300017D44168490514D4816811F0405F10D182
:100A4000217E71B9416821F080014160206C20F461
:100A500080502064206CC00503D4206C40F001005D
:100A600020642046FFF7ECFE21686FF00C00086060
:100A700016F0010F05F040010FD071B12068006839
:100A8000C0070AD0206C40F480302064204600F07B
:100A900043F821686FF00100086016F0200F05F0A0
:100AA00080610ED000290CD0606C40F002006064C0
:100AB00020686FF0200505602046FFF76BFF206877
:100AC000056070BD70B504004FF0000503D0206CC8
:100AD000002610B107E0012070BD204600F01EF88E
:100AE000666484F83C60206CC00610D4206C20F44E
:100AF000885040F0020020642046FFF72DFD666418
:100B0000206C20F0020040F00100206400E001258C
:100B100084F83C60284670BD70470000F0B587B08F
:100B2000064614216846FFF716FC3F493D4F3368DF
:100B300000253D48143903243C4ABB424ED103688A
:100B400043F480730360006800F4807005900868C7
:100B500040F001000860086800F001000590086896
:100B600040F004000860086800F004000590086880
:100B700040F0020008600868694600F00200059035
:100B8000A0208DE83100104600F0CCFB30208DE82D
:100B900031006946264800F0C5FB009469462548A7
:100BA000CDE9014500F0BEFB244C2348C4E9000513
:100BB0000015A560C4E90350400060618000C4E9ED
:100BC00006054FF44030C4E90805204600F0F6FA67
:100BD00008B1FFF72FFEB463A66319E0184EB342C5
:100BE0001ED1036843F400730360006800F40070D2
:100BF0000590086840F0010008600868694600F048
:100C00000100059040208DE83100104600F08AFB7D
:100C100000221146122000F00BFE122000F0FAFD17
:100C200007B0F0BD002001404438024000000240FF
:100C3000000802400004024010640240A8040020A2
:100C40000021014018B50021009190F83C20012AB4
:100C500007D0012280F83C2002689368DB0702D0AD
:100C600011E0022018BD936843F0010393602E4AFF
:100C70002E4B1268B2FBF3F202EB420200E0521E6E
:100C80000092002AFBD102689368DB0742D0036C14
:100C900040F20164A34343F48073036453685B052B
:100CA00005D5036C23F4005343F480530364036CB1
:100CB000DB0404D5436C23F00603436400E0416485
:100CC00080F83C101A496FF02203136049680068ED
:100CD000CA06184906D0884224D1816811F0405FC5
:100CE00013D01FE08842F8D0134A904203D1D1F8C4
:100CF0000423D206F1D0114A904213D1D1F8041343
:100D000001F01F011029E8D30CE0816841F0804117
:100D1000816007E0016C41F010010164416C41F019
:100D200001014164002018BD1400002040420F0062
:100D30000023014000200140002101400022014029
:100D4000F8B5044600200E46009094F83C100129A6
:100D500007D0012184F83C1021688B68DB0702D0A2
:100D600011E00220F8BD8B6843F001038B6040491D
:100D7000404B0968B1FBF3F101EB410100E0491E72
:100D800000910029FBD121688B68DB0503D58B68B6
:100D900023F480738B6021688B68DB075DD0236C44
:100DA00040F20165AB4343F480732364496849050D
:100DB00005D5216C21F4005141F480512164216C4E
:100DC000C90404D5616C21F00601616400E060642F
:100DD00084F83C00A16B2948274DC863A16B2848C3
:100DE0000864A16B2748C86421686FF0220008607E
:100DF0002068416841F0806141602068816841F469
:100E0000807181602168134632464C31A06B00F03E
:100E10003FFA68681C49C006206806D0884224D181
:100E2000816811F0405F13D01FE08842F8D0174A64
:100E3000904203D1D1F80423D206F1D0144A904253
:100E400013D1D1F8041301F01F011029E8D30CE0ED
:100E5000816841F08041816007E0206C40F0100023
:100E60002064606C40F0010060640020F8BD000068
:100E70001400002040420F00002301403B04000802
:100E8000BF040008A904000800200140002101401F
:100E90000022014070B5040003D094F8200010B186
:100EA00004E0012070BD204600F082F8206801684F
:100EB00041F00101016000F033FB0546052604E026
:100EC00000F02EFB401B0A2811D820684068C0079C
:100ED000F6D02068016821F00201016000F020FBDB
:100EE00005460BE000F01CFB401B0A2806D9606A8F
:100EF00040F40030606284F82060D2E720684068E7
:100F00008007EFD4207E0128206801683DD021F0C1
:100F100080010160607E01282068016838D021F0DE
:100F200040010160A07E01282068016833D021F0D3
:100F300020010160E07E0128206801682ED041F088
:100F400010010160207F01282068016829D021F06C
:100F500008010160607F01282068016824D021F029
:100F600004010160D4E902010843D4E904121143E9
:100F700008436168491E08432168C8610020606217
:100F8000012084F82000002070BD41F08001C0E7FE
:100F900041F04001C5E741F02001CAE721F010010E
:100FA000CFE741F00801D4E741F00401D9E70000A0
:100FB00010B586B0044614216846FFF7CCF91449F1
:100FC0002068884221D113480021026842F0007253
:100FD0000260006800F0007005900E48103802684A
:100FE00042F002020260006800F0020005904FF437
:100FF000407000900220CDE90101032003900920F8
:1010000004906946044800F08DF906B010BD000058
:101010000064004040380240000402402DE9F843DB
:1010200004464FF00009CDF8009063484FF4165184
:10103000A56D0068B0FBF1F72E6894F85C100820ED
:1010400000FA01F131420FD021680A6852070BD52E
:101050000A6822F004020A6094F85C108840A860D4
:10106000606D40F00100606594F85C104FF001087D
:1010700008FA01F0304208D021684969090604D510
:10108000A860606D40F00200606594F85C10042078
:101090008840304208D021680968890704D5A860D3
:1010A000606D40F00400606594F85C10102088408A
:1010B000304218D021680968090714D5A860206853
:1010C0000168490304D50068000308D5A16C07E056
:1010D0000168C90503D4016821F008010160216C91
:1010E00009B12046884794F85C102020884030429F
:1010F00031D021680968C9062DD5A86094F835005B
:1011000005282068016806D0490347D50068000318
:101110001DD4616C1CE021F016010160206841695A
:1011200021F080014161206C08B9A06C20B12068D9
:10113000016821F00801016094F85C103F208840AC
:10114000A86084F8358084F83490216D1FE0E16B4D
:1011500009B120468847606D00282BD0606DC0071C
:1011600014D0052084F835002068016821F00101C1
:1011700001600098401C0090B84203D820680068C5
:10118000C007F6D184F8358084F83490E16C0029EA
:1011900010D001B02046BDE8F04308470168C905FA
:1011A000D5D4016821F01001016084F8358084F8FD
:1011B0003490CCE7BDE8F883140000202DE9F0411D
:1011C000044600F0ADF906465CB1022084F8350013
:1011D000002584F834502068016821F00101016085
:1011E0000DE00120BDE8F08100F09AF9801B052890
:1011F00005D920206065032084F83500F2E72068D7
:101200000068C007F0D12268116820480140D4E985
:1012100001031843D4E90336334318436369184381
:10122000A3691843E3691843236A18430843616AB2
:10123000042903D1D4E90B13194308431060206833
:101240004069666A20F0070130460E4301270428F2
:101250000CD1A06A0643E06A40B12046FFF784FA49
:1012600020B14020606584F83570BAE72068466197
:101270002046FFF765FA94F85C203F219140816099
:10128000656584F835700020ACE700003F8010F001
:101290002DE9F0410446866D90F8340000250128C0
:1012A0000DD0012084F8340094F835700020012F0F
:1012B00007D084F8340002252846BDE8F0810220DA
:1012C000FBE7022784F8357060652046FFF776FA61
:1012D00094F85C103F208840B0602068016841F0BD
:1012E00016010160206C20B12068016841F00801FE
:1012F00001602068016841F001010160DCE7000045
:1013000070B5044600F00CF90546601C02D0044894
:101310000078044400F004F9401BA042FAD370BDE9
:10132000080000202DE9F84FDFF8BCA100220125BC
:1013300003264FF00F090AF1040BAAF1040E00BFB7
:101340000B6805FA02F42340A34270D10F7907F02D
:101350000307012F01D0022F16D187684FEA4208F8
:1013600006FA08FC27EA0C07D1F80CC00CFA08FCB6
:101370004CEA070CC0F808C04768A7430C79C4F3CF
:10138000001494403C4344600C79E443A4070AD021
:10139000C4684FEA420C06FA0CF7BC438F6807FAA0
:1013A0000CF72743C7600C7904F00304022C12D118
:1013B000D40800EB840CDCF820405707FF0E09FA34
:1013C00007F824EA0804D1F8108008FA07F848EA78
:1013D0000408CCF8208004684FEA420C06FA0CF7A7
:1013E000BC430F7907F0030707FA0CF727430760A0
:1013F0004C6814F4403F70D03C4C276847F4804759
:101400002760246822F0030704F480440094384CD9
:1014100007EB040CDCF8084897074FEA177809FA3D
:1014200008F7BC43334FB84202D1002724E054E010
:10143000314FB84201D101271EE0304FB84201D1EF
:10144000022719E02E4FB84201D1032714E02D4F97
:10145000B84201D104270FE02B4FB84201D1052734
:101460000AE02A4FB84201D1062705E0284FB842CA
:1014700001D1072700E0082707FA08F72743CCF82F
:101480000878DAF800405746D1F804C09C435FEA78
:10149000CC2C00D51C433C60DBF800405F46D1F803
:1014A00004C09C435FEA8C2C00D51C433C60DEF8F2
:1014B00000407746D1F804C09C435FEA8C3C00D5DD
:1014C0001C433C60084F083F3C68D1F804C09C4373
:1014D0005FEACC3C00D51C433C60521C102AFFF450
:1014E0002FAFBDE8F88F0000083C014044380240AF
:1014F00000300140000002400004024000080240A9
:10150000000C02400010024000140240001802408B
:10151000001C02400AB1816170470904FBE700002A
:1015200001488068704700000800002070B5040082
:1015300025D094F83D00002520B984F83C50204681
:1015400000F0B8F8242084F83D002068016821F0FC
:10155000010101602068016841F4004101602068D8
:10156000016821F40041016000F02EFA4D4A6168E3
:10157000914201D84C4900E04C49884201D20120F7
:1015800070BD4B492368B0FBF1F15E6826F03F0661
:101590000E435E606368934206D94FF496735943D5
:1015A0004FF47A73B1FBF3F12368491C1E6A26F0ED
:1015B0003F06314319626168914210D84900401ECC
:1015C000B0FBF1F2521CC2F30B02042A01D2042038
:1015D00022E0B0FBF1F0401CC0F30B001CE0A2685D
:1015E000F2B301EBC10303EB0116431EB3FBF6F3A9
:1015F0005B1C43F480431B0549D092B301EBC1024D
:1016000002EB0111401EB0FBF1F0401CC0F30B00D7
:1016100040F4804040F400402168CA694CF6FF73F2
:101620009A431043C861D4E9071001432068026857
:1016300022F0C00211430160D4E903010143206894
:10164000826848F2FF339A4311438160D4E905016F
:1016500008432168CA6822F0FF021043C86001E015
:101660000EE016E02068016841F001010160256488
:10167000202084F83D00256384F83E50002070BD92
:1016800001EB4106431EB3FBF6F35B1CB3E70120FD
:10169000C2E701EB4101401EB0FBF1F0401CC0F37A
:1016A0000B00B7E7A086010080841E0000093D0002
:1016B00040420F00F0B587B0044614216846FEF79B
:1016C0004AFE2768234CDFF888C0002221491223F4
:1016D0000325042620481034674518D10F6847F0C9
:1016E00002070F60096802AF01F002010591C021F5
:1016F000CDE9001387E864006946FFF713FE206810
:1017000040F400102060206800F400101CE0DFF8B6
:101710004CC0674519D10F6847F002070F60096890
:1017200002AF01F0020105914FF44061CDE90013D1
:1017300087E864006946FFF7F5FD206840F4800003
:101740002060206800F48000059007B0F0BD000024
:10175000005400403038024000040240005800406D
:1017600002488168027811448160704708000020B7
:101770000B4810B5016841F400710160016841F443
:1017800080610160016841F480710160032000F014
:101790006FF80F2000F006F800F024F8002010BDCC
:1017A000003C024070B50D4D04464FF47A71287824
:1017B000B1FBF0F00A490968B1FBF0F000F00CFB56
:1017C00048B9102C07D200222146501E00F030F8F4
:1017D00000206C6070BD012070BD0000080000207A
:1017E000140000200A4808B5016841F480410160F6
:1017F000006800F4804000900548001F016841F037
:1018000080510160006800F08050009008BD000029
:1018100044380240002809DB00F01F0201219140FA
:101820004009800000F1E020C0F80011704700007E
:10183000F0B40E4B1B680C46C3F30223C3F107053B
:10184000042D00D90425191D072901D2002300E029
:10185000DB1E012606FA05F1491E214099409E40F3
:10186000761E16403143F0BC01F0BDBD0CED00E02A
:10187000064900F0070208684FF6FF03184040EAE7
:101880000220034A10430860704700000CED00E09E
:101890000000FA052DE9F0470E46050065D0DFF897
:1018A0001481D8F80000F7B200F00700B04207D268
:1018B00088F80070D8F8000000F00700B04254D15A
:1018C00028683D4C810712D5400703D5206840F4B5
:1018D000E05020602878000703D5206840F460407D
:1018E00020602068A96820F0F00008432060287874
:1018F000C0072DD0304968680839012812D0022865
:1019000013D0032811D00968890700292DDA21682E
:1019100021F0030101432160FFF702FE814641F2FD
:10192000883A0EE009688903EFE709688901ECE766
:10193000FFF7F6FDA0EB0901514502D90320BDE8F0
:10194000F0872068696800F00C00B0EB810FEFD1E0
:10195000D8F80010404601F00701B14207D90770DE
:10196000006800F00700B04201D00120E7E72878C6
:10197000400705D52068E96820F4E050084320605E
:101980002878000706D52068296920F4604040EADD
:10199000C100206000F038F82168084AC1F3031143
:1019A000515CC8400649086006480068FFF7FAFE27
:1019B0000020C4E7003C024008380240763E0008A0
:1019C000140000200C000020044805490068096844
:1019D000044AC1F38221515CC840704714000020C2
:1019E00008380240863E0008044805490068096836
:1019F000044AC1F34231515CC840704714000020D2
:101A000008380240863E0008154810B5006810F0FE
:101A10000C02144813D01449042A0FD0082A0ED1FE
:101A20000F4C241F2268236802F03F025B0207D597
:101A30002068C0F38810A0FB010106E0084610BD35
:101A40002168C1F38811A1FB00010023FEF70CFC03
:101A50002168C1F30141491C4900B0FBF1F010BD00
:101A6000083802400024F40040787D012DE9F84F49
:101A700004006ED02078DFF84C93C007A9F104056C
:101A80004AD009F104000168C1F38101012908D09D
:101A90000068C0F3810002280AD1D9F80000400292
:101AA00006D52868800337D560680028E1D033E088
:101AB0006068B0F5803F10D0B0F5A02F286810D036
:101AC00020F480302860286820F480202860606836
:101AD000A8B1FFF725FD06460DE0286840F48030E8
:101AE000F4E740F480202860F7E700BFFFF718FD17
:101AF000801B642873D828688003F7D50CE0FFF7B3
:101B00000FFD064605E000BFFFF70AFD801B6428B5
:101B1000F0D828688003F7D42078DFF8AC828007FB
:101B20004FF0000A3ED5A748001D016811F00C0FC8
:101B300008D00068C0F3810002280BD1D9F800005A
:101B4000400207D42868800716D5E068012800D134
:101B500012E033E1E068B8B10120C8F80000FFF7F7
:101B6000DFFC064605E000BFFFF7DAFC801B022819
:101B7000C0D828688007F7D52868216920F0F800C8
:101B800040EAC10028600DE0C8F800A0FFF7C8FCDB
:101B9000064604E0FFF7C4FC801B02281FD8286813
:101BA0008007F7D42078000722D5864F87486169DF
:101BB000703771B101210160FFF7B2FC064604E005
:101BC000FFF7AEFC801B022809D838688007F7D5DC
:101BD0000EE0C0F800A0FFF7A3FC064605E082E097
:101BE000FFF79EFC801B02287DD838688007F7D459
:101BF0002078400768D5DFF8CCB100270BF13C0B0B
:101C0000DBF80000C0000BD4DBF8001041F080517D
:101C1000CBF80010DBF80000012700F080500090A6
:101C20006B4E3068C00510D4306840F4807030606E
:101C3000FFF776FC009005E0FFF772FC0099401A70
:101C4000022850D83068C005F6D55E4EA0686C36C4
:101C500001280FD00528306810D020F00100306036
:101C6000306820F004003060A068B8B1FFF758FC7D
:101C700000900FE0306840F00100F4E740F004000D
:101C80003060F7E7FFF74CFC0099411A41F28830C9
:101C9000814266D830688007F4D50EE0FFF740FC3B
:101CA000009007E0FFF73CFC0099411A41F28830B0
:101CB000814256D830688007F4D42FB1DBF8001089
:101CC00021F08051CBF80010A069C8B33D49091D2F
:101CD0000968C1F3810102294AD00228504607D081
:101CE000C8F8600000E03CE0FFF71AFC04463BE067
:101CF0004746C8F86000FFF713FC064605E000BF42
:101D0000FFF70EFC801B02282BD828688001F7D42F
:101D1000D4E907010843A16A2E4A490802EB0141B0
:101D2000626A41EA8211084394F82C1040EA01618A
:101D3000C9F8001001203866FFF7F2FB044606E000
:101D40003EE000BFFFF7ECFB001B022809D8286823
:101D50008001F7D534E000BFFFF7E2FB001B02284B
:101D600002D90320BDE8F88F28688001F4D427E069
:101D70000128F7D0D9F80000E26900F4800191420F
:101D80001CD1226A00F03F01914217D147F6C07181
:101D9000626A0140B1EB821F10D1A26A4FF0FF339B
:101DA00000F4403103EB5202B1EB024F06D194F83C
:101DB0002C1000F07060B0EB016F01D00120D1E772
:101DC0000020CFE70438024000004742800E47421F
:101DD000007000400000FFFF10B5401EB0F1807F92
:101DE00001D3012010BD4FF0E02460610F21601786
:101DF00001F0F9FA0020A06107202061002010BD49
:101E00007047704710B590F83C20012A22D001227B
:101E100080F83C20CA688C6822F4407222434C68E7
:101E200022F4806222430C6822F4006222430C698F
:101E300022F4805222434C6922F400522243C969A1
:101E4000002322F480420A4301684A6480F83C304F
:101E5000002010BD022010BD70B590F83C20012A72
:101E600032D0012480F83C40022280F83D200368F3
:101E70005A689D6822F070060A6832435A60134B14
:101E800002689A4214D0B2F1804F11D0104B9A429E
:101E90000ED0104B9A420BD00F4B9A4208D00F4BEA
:101EA0009A4205D00E4B9A4202D00E4B9A4204D170
:101EB000496825F080031943916080F83D40002176
:101EC00080F83C10084670BD022070BD0000014043
:101ED0000004004000080040000C004000040140E5
:101EE000004001400018004010B50446022249B1EC
:101EF00004290ED0082913D094F84500012816D0E3
:101F0000012010BD94F842000128F9D184F8422044
:101F10000FE094F843000128F2D184F8432008E050
:101F200094F844000128EBD184F8442001E084F8BF
:101F300045200422206801F0CAF82068416C41F471
:101F40000041416411492068884214D0B0F1804FAB
:101F500011D00F4988420ED00E4988420BD00E494D
:101F6000884208D00D49884205D00D49884202D0E8
:101F70000C49884204D1816801F00701062903D089
:101F8000016841F001010160002010BD0000014026
:101F90000004004000080040000C00400004014024
:101FA000004001400018004010B5040003D094F830
:101FB0003D0010B107E0012010BD002084F83C0076
:101FC000204600F01FF8022084F83D00211D206803
:101FD00001F00CF8012084F8460084F83E0084F8F3
:101FE0003F0084F8400084F8410084F8420084F8FF
:101FF000430084F8440084F8450084F83D00002044
:1020000010BD000008B50068154988420FD1154879
:10201000016841F0010101600068002200F0010048
:10202000009001211920FFF703FC192012E00E494E
:10203000884213D10B48001F016841F00201016082
:102040000068002200F00200009001211D20FFF72F
:10205000EFFB1D20BDE80840FFF7DCBB08BD00001A
:1020600000000140443802400004004090F83D1058
:10207000012901D001207047022180F83D1001683C
:10208000CA6842F00102CA6000681149884214D04F
:10209000B0F1804F11D00F4988420ED00E498842CE
:1020A0000BD00E49884208D00D49884205D00D4911
:1020B000884202D00C49884204D1816801F00701AE
:1020C000062903D0016841F001010160002070473A
:1020D000000001400004004000080040000C0040E7
:1020E00000040140004001400018004070B5044663
:1020F00090F83C000025012817D0012684F83C60A8
:10210000022084F83D002068826822F0770222F4E1
:102110007F4282600868502838D00DDC20284FD0DC
:1021200005DC90B3102811D14AE0022070BD3028A0
:1021300046D040280AD13BE060282FD070280DD02F
:10214000B0F5805F03D0B0F5005F12D0012584F8B0
:102150003D60002084F83C00284670BDCB68D1E982
:102160000121206800F0C0FF2068816841F07701FC
:1021700009E0CB68D1E90121206800F0B5FF2068B3
:10218000816841F480418160E1E719E0CA684968EB
:10219000206801F07DF85021206806E0CA6849688F
:1021A000206801F086F86021206800F0A7FFCEE7E4
:1021B000CA684968206801F06BF840212068F4E79C
:1021C000226801461046F0E72DE9F0410D46040073
:1021D00003D094F83D0018B108E00120BDE8F0817B
:1021E000002084F83C00204600F040F8022084F8EB
:1021F0003D002068816844F2070291438160211DFF
:10220000206800F0F3FE226890689169166A2B68D6
:10221000AF69034340F20330814341EA0721A868D4
:10222000EF6908434FF6FC418843E96840EA07201C
:10223000014328692F6A000140EA073008436968B2
:102240006D6926F0AA0646EA0515294393602268BF
:10225000906154F8460B0162012004F81F09E075F3
:102260002076E0762077A0750020B7E710B586B01D
:10227000044614216846FEF76EF82068B0F1804FDE
:1022800027D115480021026842F00102026000686F
:1022900000F00100059010481038026842F0010279
:1022A0000260006800F00100059003200090022009
:1022B000CDE901010120CDE9031069460748FFF788
:1022C00031F8002211461C20FFF7B2FA1C20FFF75C
:1022D000A1FA06B010BD00004038024000000240E4
:1022E00070B590F83E60044690F83F5090F8423048
:1022F00090F84320022021B1042914D0012E25D1C9
:102300001EE0012E22D1012B20D184F83E0084F85A
:10231000420001220021206800F0CCFE2068C16844
:1023200041F002012FE0012D10D1012A0ED184F8D5
:102330003F0084F843000421206800F0BBFE1EE04B
:10234000012D03D1012B01D1012A01D0012070BD43
:1023500084F83E0084F83F0084F8420084F843008B
:1023600001220021206800F0A5FE0122042120683E
:1023700000F0A0FE2068C16841F00201C160206841
:10238000C16841F00401C1602068016841F00101A9
:102390000160002070BD704770B504460068016997
:1023A0004FF00005C943890715D4C168C94389079F
:1023B00011D4E91E0161012020772068806980071F
:1023C000204602D0FFF7E7FF04E000F0D9F82046EE
:1023D00000F06BF9257720680169C943490717D4D4
:1023E000C168C943490713D46FF004010161022099
:1023F00020772068806910F4407F204602D0FFF7E4
:10240000CAFF04E000F0BCF8204600F04EF9257742
:1024100020680169C943090716D4C168C94309077F
:1024200012D46FF008010161042020772068C06990
:102430008007204602D0FFF7AEFF04E000F0A0F8CE
:10244000204600F032F9257720680169C943C906A2
:1024500017D4C168C943C90613D46FF010010161D4
:10246000082020772068C06910F4407F204602D001
:10247000FFF791FF04E000F083F8204600F015F923
:10248000257720680169C943C90708D1C168C943D4
:10249000C90704D1891E0161204600F06BF920684C
:1024A0000169C943090609D4C168C943090605D4AD
:1024B0006FF0800101612046FFF7A2FC20680169EE
:1024C000C943490609D4C168C943490605D46FF018
:1024D00040010161204600F067F920680169C943A5
:1024E00089060BD4C168C943890607D46FF020015F
:1024F00001612046BDE87040FFF783BC70BD00005D
:1025000070B586B0044614216846FDF724FF1849CB
:102510002068884229D117480024016841F002014F
:102520000160016801F002010591016841F00101BB
:1025300001600068022500F0010005904FF4C040E2
:102540000090CDE901540126CDE9034669460A48C9
:10255000FEF7E8FE4FF440700090CDE90154CDE95C
:10256000034669460548FEF7DDFE06B070BD000073
:1025700000000140303802400004024000000240E8
:10258000704770B5044690F83C0000260D460128BF
:102590000FD0012084F83C006AB1042A1DD0082A1B
:1025A0002FD00C2A3FD00126002084F83C00304672
:1025B00070BD022070BD206800F0A8FD2068816910
:1025C00041F0080181612068816921F00401816185
:1025D000206881692A69114311E0206800F0C6FD76
:1025E0002068816941F4006181612068816921F47A
:1025F00080618161206881692A6941EA02218161E3
:10260000D2E7206800F0E8FD2068C16941F00801C8
:10261000C1612068C16921F00401C1612068C169FC
:102620002A69114311E0206800F00AFE2068C169A0
:1026300041F40061C1612068C16921F48061C16118
:102640002068C1692A6941EA0221C161ACE710B57D
:10265000040003D094F83D0010B107E0012010BD44
:10266000002084F83C00204600F01EF8022084F888
:102670003D00211D206800F0B9FC012084F84600CF
:1026800084F83E0084F83F0084F8400084F841005C
:1026900084F8420084F8430084F8440084F845003C
:1026A00084F83D00002010BD7047704710B5044607
:1026B000022249B104290ED0082913D094F8410010
:1026C000012816D0012010BD94F83E000128F9D150
:1026D00084F83E200FE094F83F000128F2D184F8FE
:1026E0003F2008E094F840000128EBD184F8402016
:1026F00001E084F841200122206800F0DBFC16494B
:102700002068164A884201D0904203D1436C43F4BA
:10271000004343642068884213D0B0F1804F10D04A
:102720000F4988420DD00F4988420AD00E4988428D
:1027300007D0904205D00D49884202D00C4988420A
:1027400004D1816801F00701062903D0016841F036
:1027500001010160002010BD0000014000040140A3
:102760000004004000080040000C00400040014010
:102770000018004010B509490068096888420BD16B
:10278000074C6068401C60606068042804D30548FA
:10279000FDF778FF0020606010BD00007801002088
:1027A0000000002088030020704770B5040004D0AA
:1027B00094F83D00002510B106E0012070BD84F8BA
:1027C0003C50204600F022F8242084F83D00206888
:1027D000C16821F40051C160204600F07DFD2068F1
:1027E000016921F4904101612068416921F02A01C9
:1027F00041612068C16841F40051C1602564202016
:1028000084F83D0084F83E00002070BD10B586B00D
:10281000044614216846FDF79EFD1449206888424D
:1028200021D113480021026842F48022026000682E
:1028300000F4802005900E481038026842F004022F
:102840000260006800F0040005904FF440600090C2
:102850000220CDE90101032003900720049069467E
:102860000448FEF75FFD06B010BD000000480040C0
:102870004038024000080240FEE7000010B500EEBC
:10288000901A2DED088BB0EE408AF8EE600A0446EF
:10289000C0ED010A80ED008A10EE900A01F06CFA9A
:1028A00041EC190B18EE100A01F066FA9FED341B8B
:1028B00053EC112B01F096F853EC192B01F092F820
:1028C00041EC100B53EC102B9FED2F0B51EC100B28
:1028D00000F030FF00F0FCFE08EE100AB7EE000A30
:1028E000F0EE000A38EE009A08EE200A84ED068A1F
:1028F00069EE098A18EE900AC0EE280AC4ED020AB1
:1029000001F03AFA41EC1B0B18EE100A01F034FA10
:102910009FED1FAB53EC1A2B01F064F853EC1B2B0B
:1029200000F008FF00F0D4FEE06019EE100A01F09C
:1029300023FA41EC190B18EE100A01F01DFA53ECC2
:102940001A2B01F04FF853EC192B00F0F3FE00F0B6
:10295000BFFE28EE080A2061C0EE280A9FED0E0A8D
:10296000C4ED050A84ED070A84ED080A84ED090A1E
:1029700084ED0A0A84ED0B0ABDEC088B10BD000043
:102980001F85EB51B81E1940000000000000F03F09
:1029900000000000000000C000000000F0EE400A4F
:1029A000C0ED0A0A90ED040A90ED081AD0ED051A60
:1029B00090ED092A20EE410A01EEC20AD0ED021A7A
:1029C00090ED0B2A01EEA00AD0ED031A01EE820A67
:1029D00080ED070A80ED091A80ED080AC0ED0B0AA8
:1029E0007047000010B504469FED1B0B00F00BFD77
:1029F0009FED1B1B51EC100B53EC112B00F0F2FF61
:102A000000F066FEB3EE080A206084ED020AB1EE23
:102A1000080A84ED010A9FED140A84ED030A9FED74
:102A2000130A84ED040A9FED120A84ED050A9FED56
:102A3000110A84ED080A9FED100A84ED0A0A9FED41
:102A40000F0A84ED070A9FED0E0A84ED090AB2EE23
:102A5000010A84ED060A10BD0000000000000040DD
:102A600000000000000038400080BB44CDCCAC40EA
:102A700014AE073F96438B3B59D9003400004842BF
:102A80009A99593E7FB500241B4800940194029402
:102A900018490394016001254FF480310561C0E9B4
:102AA0000114047680F820401449C0E90A14022673
:102AB000C661C46080F830404461FEF703F808B195
:102AC00072B6FEE70920CDE90005694602940A487E
:102AD000FDF7B8FE08B172B6FEE70820CDE90006A2
:102AE00069460548FDF7AEFE002801D072B6FEE744
:102AF0007FBD000000200140180000200100000FF1
:102B00007FB500241548009401940294124903945F
:102B100001604FF48031C0E901140461047680F84B
:102B200020400F49C0E90A140125C561C46080F83E
:102B300030404561FDF7C6FF08B172B6FEE70620DA
:102B4000CDE90005694602940448FDF77BFE0028A4
:102B500001D072B6FEE77FBD002101406000002079
:102B60000100000F0C4810B50A49016010214160B6
:102B700000218160C1600161416101764176817609
:102B8000C17601774177FEF785F9002801D072B64A
:102B9000FEE710BD00640040A80000202DE9F041D0
:102BA00086B014216846FDF7D6FB2C480024016846
:102BB00041F004010160016801F004010591016820
:102BC00041F080010160016801F080010591016818
:102BD00041F001010160016801F001010591016806
:102BE00041F00201016000681D4F00F0020048F250
:102BF00018050590002229463846FEF78BFCDFF8C1
:102C000064804FF49856002231464046FEF782FC1D
:102C10004EF2C000CDE90004694640460294FEF73A
:102C200081FB4FF48150CDE9000469463846029497
:102C3000FEF778FB00950125CDE901546946384639
:102C40000394FEF76FFB0096CDE9015469464046B8
:102C50000394FEF767FB06B0BDE8F0813038024010
:102C6000000402400008024010B596B000240F9402
:102C700010941194129413941C2168461494FDF737
:102C80006AFB202107A8FDF766FB2E482C49C0E906
:102C900000142021816041F26701C0E90314802102
:102CA000C0E90541FFF780F908B172B6FEE74FF4BD
:102CB00080500F900FA92348FFF718FA08B172B699
:102CC000FEE72048FFF7C3FC08B172B6FEE7139495
:102CD00013A91C481494FFF7BFF808B172B6FEE7B9
:102CE0006020CDE90004029403944FF40070049432
:102CF000CDE90540002269461248FFF742FC08B1C1
:102D000072B6FEE7042269460E48FFF73AFC08B1A6
:102D100072B6FEE70794089409944FF400500A94A1
:102D2000CDE90B4007A907480E94FFF76BF808B1EF
:102D300072B6FEE70348FFF7E3FB16B010BD0000D4
:102D4000000001407801002010B58CB024216846B5
:102D5000FDF701FB0024164809944FF080410A94C6
:102D6000C0E900144FF44871C0E9024180210461B8
:102D700081610320CDE900040120CDE902040A218C
:102D80000491CDE90540CDE9074169460848FFF7C0
:102D90001BFA08B172B6FEE7099409A904480A941F
:102DA000FFF75AF8002801D072B6FEE70CB010BD4C
:102DB000C001002010B586B000241848009401948A
:102DC00002940394049414490594016042F2CF01E3
:102DD000C0E9011442F20F71C0E90314802181613E
:102DE000FFF7E2F808B172B6FEE74FF480500090AA
:102DF00069460A48FFF77AF908B172B6FEE704940B
:102E000004A906480594FFF727F8002801D072B6F8
:102E1000FEE706B010BD00000004004008020020DC
:102E2000FEE7000010B5012251020548FEF772FBD3
:102E30000122BDE81040D1030248FEF76BBB000041
:102E40000008024000040240FEE70000DFED280A0F
:102E50009FED281B9FED293B9FED2A4BB7EE002AE3
:102E60004AB3012A26D1C0ED120AC0ED130AC0ED03
:102E7000140AC0ED150A80ED0E1B80ED101B80EDCD
:102E80000A1B80ED0C1B80ED063B80ED084BDFED4F
:102E90001F0A80ED160A9FED1E1AC0ED020A00BF40
:102EA00080ED001A80ED031A80EE201A32EE410AFE
:102EB00080ED040A7047C0ED120AC0ED130AC0EDA0
:102EC000140AC0ED150A80ED0E1B80ED101B80ED7D
:102ED0000A1B80ED0C1B80ED063B80ED084BDFEDFF
:102EE0000D0A80ED160AC0ED020A9FED0B1AD7E716
:102EF00000000000000000000000000000000000D2
:102F00000000384000000000000038C04913EF38CE
:102F1000B29DCF3EE65A343946B61B3F70477047E4
:102F2000FEF71EBC30B593B030216846FDF713FAAA
:102F300014210CA8FDF70FFA1D480025016841F087
:102F400080510160006800F08050119019480168BC
:102F500041F4804101600068022400F48040119037
:102F60000120039010200490009406940820CDE9DD
:102F70000750A820CDE9090404200B906846FEF70D
:102F800075FD08B172B6FEE70CA90F2081E831008B
:102F90004FF4A0500F904FF48050109005210CA8D2
:102FA000FEF778FC002801D072B6FEE713B030BD02
:102FB00040380240007000400248016841F470014E
:102FC0000160704788ED00E00148FFF7E5B90000B7
:102FD000780100200148FFF7DFB90000C0010020A0
:102FE0000148FFF7D9B9000008020020F0B50268D7
:102FF000254C264D264E274F274B4FF0804CA042A4
:1030000009D0604507D0A84205D0B04203D0B842ED
:1030100001D0984204D122F0700E4A6842EA0E02B2
:10302000A0421BD0604519D0A84217D0B04215D09D
:10303000B84213D0984211D0184DA8420ED0184D66
:10304000A8420BD0174DA84208D0174DA84205D072
:10305000164DA84202D0164DA84203D122F4407565
:10306000CA682A434D6922F080022A4302608A68B6
:10307000C2620A688262A04201D0984201D1096905
:10308000016301214161F0BD0000014000040040E6
:1030900000080040000C00400004014000400140D6
:1030A000004401400048014000180040001C00405E
:1030B0000020004010B501F01F030121046A99406F
:1030C0008C430462016A9A401143016210BD10B53D
:1030D00001F01F030421046A99408C430462016AD1
:1030E0009A401143016210BD10B5846842EA032280
:1030F00024F47F440A432243826010BD826822F098
:1031000070020A4342F0070181607047F0B5026A1D
:1031100022F001020262036A42688469124E24F0BE
:1031200073050C682C4323F002058B682B430D4D6F
:10313000A84201D0B04205D123F00807CB683B4339
:1031400023F00403A84201D0B04205D14D6922F416
:10315000407215438A692A43426084614968416329
:103160000362F0BD0000014000040140F0B5026AB6
:1031700022F010020262026A436884690D6824F436
:10318000E64444EA05248D6822F0200242EA051252
:103190000F4D104EA84201D0B04206D1CF6822F0A8
:1031A000800242EA071222F04002A84201D0B04257
:1031B00007D14D6923F4406343EA85038D6943EAEF
:1031C000850343608461496881630262F0BD000049
:1031D0000000014000040140F0B5026A22F4807250
:1031E0000262026A4368C46922F4007224F0730523
:1031F0000C68124E2C438D6842EA05220E4DA842FF
:1032000001D0B04206D1CF6822F4006242EA072220
:1032100022F48062A84201D0B04207D14D6923F464
:10322000405343EA05138D6943EA05134360C461C3
:103230004968C1630262F0BD000001400004014022
:1032400030B5026A22F480520262046A4268C3699D
:103250000D6823F4E64343EA05238D6824F4005403
:1032600044EA0534084DA84202D0084DA84204D1D2
:103270004D6922F4804242EA85124260C361496886
:103280000164046230BD0000000001400004014000
:1032900010B5036A046A24F001040462846924F00E
:1032A000F00444EA021423F00A020A438461026231
:1032B00010BD10B5036A23F0100303628369046A2A
:1032C00023F4704343EA023224F0A00343EA0111DD
:1032D0008261016210BD000070B50446006801699A
:1032E000E26821F44051114301612169A068E2695B
:1032F00008436169114308432168CA6849F20C63B5
:103300009A430243CA6020684169A26921F440716E
:103310001143416131492068884202D030498842D6
:1033200002D1FEF761FB01E0FEF74EFBE2690023EC
:10333000192164253226B2F5004F626828D0A0FB1F
:103340000101930F9200FCF78FFF0146B0FBF5F0EF
:103350006FF01802504301EB800006EB0010B0FB49
:10336000F5F000F0F002B1FBF5F002EB0012B1FB5A
:10337000F5F06FF01803584301EB800006EB0010E6
:10338000B0FBF5F000F00F0021681044886070BDBC
:10339000A0FB010192185B41FCF766FF0146B0FB00
:1033A000F5F00201B1FBF5F06FF01803584301EBA3
:1033B000800006EBC000B0FBF5F000F0F80002EB77
:1033C0004002B1FBF5F0584301EB800006EBC00072
:1033D000B0FBF5F000F00700D6E700000010014058
:1033E00000140140FEE70907090E002804DB00F184
:1033F000E02080F80014704700F00F0000F1E0209A
:1034000080F8141D704700B52DED048BB0EE409A86
:10341000F0EE609A83B051EC190B00F0E1FB41EC47
:10342000180B18EE100A18EE901A8DED008B00287C
:1034300018BF0120084320F00040C0F17F6000F178
:10344000E040C00F14D019EE101A19EE900A8DED5D
:10345000009B002918BF0121084320F00040C0F163
:103460007F6000F1E040C00F04BF0120FCF7A2FF25
:10347000B0EE480A03B0F0EE680ABDEC048B00BD64
:103480002DE9F041124C074601F6330520680E463F
:103490004563206885633846FDF732FF2068456341
:1034A0002068A6F63306764286633846FDF728FF85
:1034B00020684663206886633846FDF721FF206850
:1034C0004663206885633846BDE8F041FDF718BFC4
:1034D000780100202DED028B82B0FEF749F9FFF74D
:1034E00021FDFFF75BFB6D480024016841F480017A
:1034F00001600068224600F48000009021463820D8
:10350000FEF796F93820FEF785F9FFF7BBFAFFF7CB
:10351000F7FAFFF727FB63486149634E0160C0E992
:1035200001640D14C0E9034544618461C46104620F
:10353000FDF7FCFF08B172B6FEE75A485B4954300C
:103540000160C0E90164C0E9034544618461C4616C
:103550000462FDF7EBFF08B172B6FEE7FFF784FBEC
:10356000FFF7F2FB5348524901604FF4E131C0E9E3
:1035700001140C21C460C0E904418461C461FFF7F7
:1035800014F908B172B6FEE7FFF714FC4A4C0022AA
:1035900008212046FDF7BEFF002210212046FDF73E
:1035A000B9FF002261154548FDF7B4FF00224FF432
:1035B00000412046FDF7AEFF3A480021A830FFF752
:1035C00075F838480021A830FEF78EFC35480421F4
:1035D000A830FFF76BF833480421A830FEF784FCCD
:1035E0003048B838FDF72EFB2E48A830FEF73EFDD8
:1035F00030489038FEF73AFD2E484838FEF736FD41
:103600002C483C219038FEF76BFE2D48FDF714F94D
:103610002C48FCF767FF9FED2C8A26480422B0EE69
:10362000480AC8214430FDF7DFF826484030FFF74C
:10363000D9F924487030FDF765F822489830FDF735
:1036400061F8DFED228A1F484FF47A71B0EE680A04
:10365000F030FFF713F91B48B0EE480A0A21C030DA
:10366000FFF70CF917490022F031B0EE680AA1F516
:10367000D870FFF7EBFB13490122F031B0EE680A76
:10368000A1F5A870FFF7E2FB4FF4FA74FFF7CAFB4D
:1036900021460120FFF7F4FEF8E700003038024031
:1036A00000540040D0000020A086010000580040D7
:1036B0000048004050020020000402400008024080
:1036C00000000020880300200AD7233C17B7D13818
:1036D00021F00042A2F16052B2F5801F01F00043D8
:1036E00028BFD2F17F6C0BD95FEA001C43EAC2020B
:1036F00042EB507018BF704728BF20F001007047A0
:10370000B2F5801FBCBF184670474FEA410C1CF54C
:10371000001F02D2084600F0A5BB70B500F00CFAFD
:1037200000000089FFF7F6BF4FF00040A0F58000D1
:10373000704700002DE9C04130B4DFF8A0C23CEA78
:10374000111418BF3CEA131400F0EC8081EA030561
:103750001CEA111444EAD57418BF1CEA131500F0D2
:10376000C780A4EB05044FF0004545EAC12145EAB6
:10377000C32341EA505143EA525304F17F74994202
:1037800004F500344FEAC0204FEAC22208BF90423D
:1037900000F09C804FEA13650FF24016765D4FEA09
:1037A000134506FB05F7C7F1807706FB07F74FEADD
:1037B000D737A7FB03687642C8F58038A7FB06CE4B
:1037C00038BFA8F1010807FB08E64FF0000EA6FB82
:1037D000028CE6FB03CEDCF1000CCEF1004E38BFCC
:1037E000AEF1010EA6FB0C584FF000074FF000059C
:1037F000E6FB0E87A1FB08C6A0FB07CE16EB0E0664
:1038000045F10005E1FB076515F1E04E7EBFA4F52B
:1038100080345FEA46066D4116F1800745F10005E8
:103820004FEA17274FEA066647EA0567A6F1DE4624
:10383000B6F1805F4FEA15251FD9384624F0010CF8
:1038400005EBC471BCF1FE6F01EB0C1102D8F0BCAA
:10385000BDE8008124425CBF01F5801E9EEAC47F62
:1038600002D4F0BCBDE80081244238D4F0BCA1F100
:10387000C041BDE8004100F0ADB94FEAD22242EAB2
:1038800043524FEAD323A7FB02864FEAD02040EAF7
:10389000415007FB03661EEA0E0F4FEAD12105FBDC
:1038A000026658BFA6EB0056B6EB00564FEA520E22
:1038B0004EEAC37E18EB0E0E56EB530EBDD518EB39
:1038C00002085E417F1C55F10005B6E74FF48015F4
:1038D0004FF000074FF000064FF00008ADE7F0BCD6
:1038E0004FF0000001F1C04101F00041BDE800814E
:1038F00011EA0C1F0CEA131500D00CE013EA0C1FA0
:1039000000F025804FF00000F0BC81EA030101F0D7
:103910000041BDE80081F0BCBDE8004181EA03013F
:1039200000F058B9F0BCBDE8004170B500F004F9F2
:10393000097EFC3E00F007B881EA03014FF0000069
:1039400001F00041704781EA030100F043B9F0BC87
:10395000BDE800414FF0000021497047FFFDFBF931
:10396000F7F5F4F2F0EEEDEBE9E8E6E4E3E1E0DEB2
:10397000DDDBDAD8D7D5D4D3D1D0CFCDCCCBCAC824
:10398000C7C6C5C4C2C1C0BFBEBDBCBBBAB9B8B74B
:10399000B6B5B4B3B2B1B0AFAEADACABAAA9A8A83E
:1039A000A7A6A5A4A3A3A2A1A09F9F9E9D9C9C9B0C
:1039B0009A999998979796959594939392919190B7
:1039C0008F8F8E8E8D8C8C8B8B8A89898888878748
:1039D0008685858484838382828181800000FF07BD
:1039E0000000F87FDFF848C170B51CEA111E1EBF49
:1039F0001CEA13159EEA0C0F95EA0C0F00F06F807D
:103A000081EA030423EA4C134EEAD47E21EA4C11E6
:103A100041F4801143F48013AE44A1FB024CA0FB9F
:103A20000365AEF17F7E361955EB0C05A1FB034C07
:103A30004CF10003A0FB021C16EB0C06654153F190
:103A40000003094218BF46F0010613F4007F0BD1B2
:103A50004FEA03314FEA0530340341EA155140EA99
:103A600016506FF003020AE04FEAC3214FEAC52067
:103A7000F40241EA555140EA56506FF0020202EB5F
:103A80002E4201EB025585EACE710AD05FEA440C62
:103A900018BF24F0004450F1000041F1000120EA79
:103AA000D47040F2FE7C624500D270BDA84214BFC3
:103AB0004FF080444FF04044002E08BF0024BEF178
:103AC000806FA8BFA1F1C041BDE8704080F2828044
:103AD0004FF0000001F1C04101F0004170479EEA43
:103AE0000C0F0CEA131518BF95EA0C0F06D04FF017
:103AF000000081EA030E0EF0004170BD00F01CF8DA
:103B00008900013E00F007B800F009B84FEA430C05
:103B10005FEA5C5C08D081EA030100F05BB84FEA21
:103B2000410C5FEA5C5CF6D14FF000000149704740
:103B30000000FF070000F87F0EF1020E2EF0030ECA
:103B40005EF8046B364205D4012A43EB030515F5F4
:103B5000001F12D8012841EB010C1CF5001F0CD8E6
:103B60000ED14FEAD17C15F5001F0CEB4C0C0CF17B
:103B7000020C08BF4CEBD37C04E04FF0080C01E0D2
:103B80004FEAD37C0CEB4C0526FA05F606F0070647
:103B9000B6F1040C06D20EEB860CBDE870404CF07A
:103BA000010C6047DFE80CF0090B02024FF0004106
:103BB0004FF00000A1F5002170BD19461046012804
:103BC00051EB010418BFD4F5001484BF002001F0AC
:103BD000004170BD0808A0F500114FEA310170479F
:103BE0002DE9F04101F5801CBCF5001FC0F2A98051
:103BF0004FEA115C21EA0C510CF1FD0C41F48011EB
:103C00005FEA5C0C0CF5C07C01D34000494130A454
:103C1000890241EA905187028E0E0A0CA45D04FBD2
:103C200004F602FB06F6C6F14046A4FB0662F60D5A
:103C300046EA422606FB06F4A4FB01235242C3F1E6
:103C4000404338BF5B1EA6FB02420024E6FB032470
:103C5000D20B42EA4446A6FB0623A1FB02E2A3FBE9
:103C600007E4E3FB61426442C2F1404E38BFAEF16B
:103C7000010EA6FB04234FF00002E6FB0E32A2FB6E
:103C800003463400E2FB6264A1FB06E6A4FB07E8FE
:103C9000E4FB61687642C8F1405838BFA8F10108DA
:103CA000A2FB06E4A3FB08E5E2FB6854A1FB05E6E2
:103CB000A7FB04E8E1FB648618F1200556F1000635
:103CC000A809A8F11B08B10908F03F08B8F10A0FCC
:103CD00040EA86601CD901EB0C51BDE8F08100BFC1
:103CE000FCF5EEE8E2DDD8D3CFCBC7C3C0BDB9B693
:103CF000B4B1AEACA9A7A5A3A19F9D9B9A98969598
:103D00009392908F8D8C8B8988878685848382811E
:103D1000A0FB006800FB01F208EB4208B8EB872823
:103D200007D5341858EB0104D5D5401C51F10001DA
:103D3000D1E7341A78EB0104CDD4401E71F10001B3
:103D4000C9E75FEA4C0C5FEA9C5C0DD105D34FF0EC
:103D5000000001F00041BDE8F081BDE8F04170B520
:103D6000FFF7EAFE6DDBFFBEBDE8F0414FF000005B
:103D7000004970470000F87F43004FEAD30C4FEA38
:103D80003C0C43401FBF40070CF1605113F0FE4F45
:103D900070471CF0006F03D100200CF00041704709
:103DA0000CF0004343EA507010B540EACC0000F03C
:103DB0000EF800BF000000924FEA0001FFF70ABFB3
:103DC0004FF000414FF00000A1F5002170470EF1C7
:103DD000020E2EF0030E5EF8044B244204D44FEA88
:103DE0004102B2F17F4F11D84FEA4003B3F17F4F48
:103DF0000CD80ED14FEAD07CB2F17F4F0CEB4C0CBB
:103E00000CF1020C08BF4CEBD17C04E04FF0080C25
:103E100001E04FEAD17C0CEB4C0324FA03F404F0EC
:103E20000704B4F1040C06D20EEB840CBDE810407C
:103E30004CF0010C6047DFE80CF0070802024FF07D
:103E40000040A0F5800010BD0846420018BFD2F126
:103E5000807288BF00F0004010BD4FF04070E1EE6E
:103E6000100A7047FF2141EAD050C0057047000694
:103E700010160006101600000000000000000102ED
:103E80000304060708090000000001020304000003
:103E9000B03E00080000002018000000C401000827
:103EA000C83E000818000020500B0000E001000888
:103EB00000000000000000000100000010000000F1
:083EC000000000000024F400E2
:040000050800018965
:00000001FF
