:020000040800F2
:10000000805A002079020008C936000853300008E1
:1000100079360008150A00087D4B00080000000032
:10002000000000000000000000000000E94400089B
:10003000890D000800000000693A00081546000814
:10004000930200089302000893020008930200083C
:10005000930200089302000893020008930200082C
:10006000930200089302000893020008930200081C
:10007000930200089302000893020008930200080C
:1000800093020008930200089302000893020008FC
:1000900093020008930200089302000893020008EC
:1000A00093020008BD46000893020008930200086E
:1000B00093020008C9460008930200089302000852
:1000C00093020008930200089302000893020008BC
:1000D00093020008930200089302000893020008AC
:1000E000930200089302000893020008930200089C
:1000F000930200089302000893020008930200088C
:10010000930200089302000893020008930200087B
:10011000930200089302000893020008930200086B
:10012000D90C00089302000893020008930200080B
:100130009302000800000000000000009302000885
:10014000930200089302000893020008930200083B
:10015000930200089302000893020008930200082B
:10016000930200089302000893020008930200081B
:100170009302000893020008000000000000000045
:10018000930200089302000800F002F800F065F8FE
:100190000AA090E8000C82448344AAF10107DA45E2
:1001A00001D100F05AF8AFF2090EBAE80F0013F0CF
:1001B000010F18BFFB1A43F001031847C459000090
:1001C000E459000010F8013B0A4413F0030408BF8F
:1001D00010F8014B1D1108BF10F8015B641E05D01B
:1001E00010F8016B641E01F8016BF9D1002D15D0D8
:1001F00010F8014B03F00C030C2BA1EB04040ABF15
:1002000010F8013BA4EB8314A4EB032405F10103D4
:1002100014F8016B5B1E01F8016BF9D5914238BFF0
:1002200010F8013BD1D3704700230024002500269D
:10023000103A28BF78C1FBD8520728BF30C148BF49
:100240000B607047642900F0F780002070471FB5ED
:1002500005F07BFC1FBD10B510BD00F0CFF91146B5
:10026000FFF7F5FF04F022FD00F0EDF903B4FFF70E
:10027000F2FF03BC00F0F0F9094880470948004745
:10028000FEE7FEE7FEE7FEE7FEE7FEE7FEE7FEE746
:10029000FEE7FEE704480549054A064B70470000A3
:1002A000AD4600088901000880540020805A0020D3
:1002B000805600208056002053EA020C00F069802E
:1002C0002DE9F04B4FF00006002B1FBFB3FA83F56A
:1002D00003FA05F424FA05F65E4012BF1643B2FA9B
:1002E00082F502FA05F4C5F120051EBF22FA05FCCD
:1002F00044EA0C04203556EA044C4FEA144418BF73
:10030000641C4FF000084FF00009904271EB030CA1
:1003100039D3002919BFB1FA81F701FA07F6B0FA0B
:1003200080F700FA07F6C7F120071EBF20FA07FC86
:1003300046EA0C062037B6FBF4FCA7EB0507103F96
:1003400007F01F0BCBF120060CFA0BFB2CFA06F67C
:1003500044BFB3460026202FA4BF5E464FF0000BDB
:100360005BEA060C08BF4FF0010B19EB0B09ABFB66
:10037000027C48EB0608C01B06FB02CC0BFB03CC3F
:1003800071EB0C01C1E70B46024641464846BDE809
:10039000F08B13B54FF000004FF00001AFF3008079
:1003A000BDE81C40704700000FB41CB5074B06AAFF
:1003B0007B4469460090059800F003F900206946E7
:1003C00000F012F91CBC5DF814FB000035020000BF
:1003D0002DE9F0410E460446002020622046E168E7
:1003E000884730B3252805D0D4E901219047206AF9
:1003F000401CF2E7E168204600278847050018D036
:10040000A5F14100192802D820354FF40067324683
:10041000294620462760FFF715FF40B1012804D088
:10042000F61D26F007060836D8E7361DD6E728461B
:10043000DAE7206ABDE8F0812DE9F04106460024A4
:1004400010687529314616A510D0AFF3008000283A
:1004500002DA404213A507E031688A0701D512A5E8
:1004600002E0490704D511A5012401E0AFF30080A3
:1004700000210A2206F1240709E0B0FBF2FCB0FBE0
:10048000F2F302FB1C00303078541846491C002857
:10049000F3D123462A463046BDE8F04100F032B899
:1004A000000000002D0000002B00000020000000D4
:1004B0004FF0000200B5134694469646203922BFFD
:1004C000A0E80C50A0E80C50B1F12001BFF4F7AF48
:1004D000090728BFA0E80C5048BF0CC05DF804EB2A
:1004E000890028BF40F8042B08BF704748BF20F898
:1004F000022B11F0804F18BF00F8012B7047704796
:10050000704770472DE9F0470D46994692460446DC
:1005100000F124080168880604D5E06921F0100183
:10052000216000E00120A84201DD471B00E0002718
:10053000A1697A1902EB0900081AA0612078C006A7
:1005400002D42046AFF30080002608E0D4E9012160
:100550001AF806009047206A401C761C20624E451F
:10056000F4DB2078C0060AD52046AFF3008006E011
:10057000D4E9012130209047206A401C2062381EB7
:10058000A7F10107F4DC07E0D4E9012118F8050020
:100590009047206A401C2062281EA5F10105F3DC6B
:1005A0002046AFF300802078000602D50220BDE887
:1005B000F0870120FBE7000001694A1C026108780E
:1005C000704700B58FB0CDE9013100210591054993
:1005D0007944CDE9031011466846FFF7F9FE0FB0E4
:1005E00000BD0000E5FFFFFF0A6802F8010B0A608A
:1005F0007047000000487047205400207546FFF700
:10060000F9FFAE4605006946534620F007008546CF
:1006100018B020B5FFF73EFEBDE820404FF00006C1
:100620004FF000074FF000084FF0000B21F00701DA
:10063000AC46ACE8C009ACE8C009ACE8C009ACE81D
:10064000C0098D46704710B50446AFF300802046C0
:10065000BDE81040FFF70ABE01491820ABBEFEE717
:1006600026000200704710B50146806B026C12F044
:10067000500F05D0026CD20626D500F03BFD10BD10
:10068000016C41F40071016401688A6812F0405FF6
:1006900017D1027EAAB9CA6A12F4700F02D08A6812
:1006A00052050ED44A6822F020024A60016C21F4FF
:1006B00080710164016CC90403D4016C41F0010133
:1006C000016400F015FD10BD806BC26CBDE81040E8
:1006D0000846104710B5806B40210164416C41F021
:1006E0000401416400F006FD10BD10B5806B00F000
:1006F00000FD10BD70B504462DED048B00200546AD
:1007000024F81050401C0428FADB9FED290A9FEDC5
:100710002F8A84ED060A9FED290B9FED269B84ED21
:10072000120B9FED280A84ED070A9FED270A84ED3E
:10073000080A84ED028A84ED038A84ED0B8A84ED35
:100740000C8A84ED0E8A9FED220A84ED0F8A84EDD7
:10075000110A84ED048AB3EE0A0A84ED050A84EDD9
:10076000108A94ED050A10EE100A05F07DF953EC9D
:10077000192B04F04FFFC4E9140184ED168A84EDAF
:10078000178A84ED188A84ED198A84ED1C8A84ED19
:100790001D8A84ED1E8A84ED1F8A84F8805084F8B7
:1007A000815084ED1A8A84ED1B8ABDEC048B70BDE8
:1007B0007B144E40000000000000303F000000604D
:1007C0008FC2493F9A99194048E11A400000000041
:1007D000CDCCCC3D464910B54A6822F440324A603F
:1007E0004A6843681A434A6001684A6822F4807282
:1007F0004A6001684A68036942EA03224A60016864
:100800004A6822F040724A6001684A6883681A4365
:100810004A6001688A6822F400628A6001688A6816
:10082000C3681A438A60816A6FF07062D1420168BE
:100830008A6822F070628A6001688A680CD0836AD4
:100840001A438A6001688A6822F040528A6001680F
:100850008A68C36A1A4301E022F040528A60016844
:100860008A6822F002028A6001688A68037E42EA8E
:1008700043028A6090F82010002901684A680FD06E
:1008800042F400624A6001684A6822F460424A60A9
:1008900001684A68174C436A04EB43331A4301E08A
:1008A00022F400624A600168CA6A22F47002CA62D5
:1008B0000168CA6A838B104C04EB03531A43CA6263
:1008C00001688A6822F400728A6001688A6890F878
:1008D000303042EA43228A6001688A6822F48062EA
:1008E0008A6001688A68406942EA8020886010BD99
:1008F0000023014000E0FFFF0000F0FF9FED061A1B
:10090000DFED040A20EE011A41EE000A20EE800A13
:1009100070470000D2EE783F018E44BEF5EEC00A6B
:1009200010B5F1EE10FA2DED028B51D0B0EEE01AB9
:10093000F0EEC01AB4EEE11AF1EE10FA1DDD80EE11
:10094000201AF5EEC00AF1EE10FA07DDBDEC028BBD
:10095000B0EE410ABDE81040FFF7D0BF9FED268BF7
:10096000B5EEC00AF1EE10FAB0EE410A02DBFFF775
:10097000C5FF11E0FFF7C2FF1BE080EE801A9FED7C
:10098000208BB5EEC00AF1EE10FAB0EE410A0CDD94
:10099000FFF7B4FFB1EE400A10EE100A05F064F85C
:1009A00053EC182B04F066FB0BE0FFF7A7FFB1EE4A
:1009B000400A10EE100A05F057F853EC182B04F01B
:1009C00069FF04F025FB00EE100ABDEC028B10BDA0
:1009D000B5EEC00AF1EE10FA02DD9FED0B0AF4E766
:1009E000B5EEC00AF1EE10FA02D29FED080AECE76C
:1009F0009FED070AE9E700007FBDC282FB210940A5
:100A00007FBDC282FB21F93FDC0FC93FDC0FC9BFAC
:100A100000000000FEE7000010B5044601462DED81
:100A2000028B0222374800F09BFC208804F0A2FDD4
:100A300094ED128B53EC182B04F0ECFD04F0E8FA63
:100A400000EE100A84ED020A608804F093FD53EC76
:100A5000182B04F0DFFD04F0DBFA00EE100A2A4840
:100A600084ED030A94ED020A02F084FB84ED0B0A84
:100A700094ED030A254802F07DFB84ED0C0A94ED09
:100A8000070AD4ED0B0A224870EE600A94ED110AB1
:100A900080EE801A84ED0E1AD4ED080A94ED0C1A3B
:100AA00070EEC10A80EE801A84ED0F1A94ED0E0AE2
:100AB00010EE101A814212DC94ED0E0A154A10EE67
:100AC000101A91420BD894ED0F0A10EE101A8142C1
:100AD00005DC94ED0F0A10EE100A90420ED90E4874
:100AE000007803280AD102F0C9FDBDEC028B002278
:100AF000BDE810400821094801F00AB8BDEC028B9E
:100B000010BD0000800B0020E81200201813002008
:100B100000004041000040C1C00E0020000402401F
:100B200010B50121044681621F480068406A2061B7
:100B300094F84020012A28D09FED1C0A84ED0C0A6D
:100B400084F84010D4ED0B0A194920EE200A10EE6B
:100B5000100A884226DC10EE100A1649884221D875
:100B6000BDEEC00A1448B8EEC00A02F003FBBDEEA9
:100B7000C00A10EE100AE083A06A012812D0E08BB0
:100B80004042A0832069606110BD6169884201DD37
:100B900022681144081A00EE100AB8EEC00A84ED6B
:100BA0000C0ACFE7E08BECE7280D002000000000E6
:100BB00000002043000020C35812002010B501227D
:100BC000826290F8411004461B480068406A81B177
:100BD00020616169884201DD23681944081A00EE2A
:100BE000100ADFED160A1649B8EEC00A84ED0C0AA9
:100BF0000AE0606184F841209FED120A10BD00BF39
:100C000030EE600A84ED0C0A10EE100A8842F7DA22
:100C10007AB100BF10EE100A04F026FF94ED0E1B0F
:100C200053EC112B04F0F6FC04F0F2F900EE100A7C
:100C300010BDB1EE400AEDE7280D00200000A042F3
:100C40000000A042000000009FED1E1A9FED1E2B29
:100C500080ED001A80ED011A80ED021A80ED031A72
:100C600080ED041A80ED051A80ED061A80ED071A52
:100C700080ED081A80ED091A80ED0A2B80ED0C2B0F
:100C80000021A0F8401080ED0E1A80ED0F1AA0F898
:100C9000421080ED120B80ED142B80ED162B0166B7
:100CA0004166A0F8681080ED1C2B8167084980ED33
:100CB0001F1A0968C96AA0F8801080ED211A80ED1A
:100CC000221A704700000000000000000000000031
:100CD000E00C002070470000014800F0AFBC0000AD
:100CE000C053002001681823CAB2103AB2FBF3F2D5
:100CF000054B6FF30901032A9B5CC36500D9091DED
:100D000081650846704700005E5B000810B501462B
:100D100000208B698A6A4FF0C07453B1B3F5005F4D
:100D200015D072B1012A0CD0022A0AD0032A09D1A7
:100D300004E01AB1012A06D0022A03D1C96AC90106
:100D400000D5012010BDC96AA142FAD010BD002A09
:100D5000F7D0012AF2D0022AF3D0032AF3D010BD33
:100D600030B50468256825F4802525600468636033
:100D70008368402B036803D099600068C26030BD6F
:100D80009A600068C16030BD7047000070B50446CD
:100D90002DED028B01FB02F0B0EE408AF0EE608A8E
:100DA000206084ED028B0025A562A5612561656147
:100DB000A583E5839FED120B84ED080B9FED120ACE
:100DC00084ED0C0A84F8405004F0BDFB53EC182B62
:100DD00004F020FC41EC100B53EC102B9FED0B0B9F
:100DE00051EC100B04F0FAF904F012F99FED090B25
:100DF000E06284ED0E0B84F84150BDEC028B70BDB7
:100E000000000000000000000000000000000000E2
:100E100000004E40FFFDCE9B2F1BB43F72B6FEE795
:100E200070B50D462DED028B044690ED120AD0ED03
:100E3000130AB1EE400AFFF771FD84ED180A9FED29
:100E4000498B002D12DBB5EEC00AF1EE10FA22D26A
:100E500010EE100A454988421DD210EE100A04F027
:100E600003FE53EC182B04F005F911E0B5EEC00AAF
:100E7000F1EE10FA0FDD10EE100A3D4988420ADC4F
:100E800010EE100A04F0F0FD53EC182B04F002FDF4
:100E900004F0BEF8206694ED180ADFED360A80EE05
:100EA000201AB0EEC10A10EE100A04F0DDFD41EC8C
:100EB000100B84ED3A0B94ED3C1B53EC112B04F01A
:100EC000A7FC0AD294ED3C1B94ED3A0B53EC112B8A
:100ED00051EC100B04F0DEFC0FE094ED3C0B53ECF6
:100EE000102B9FED250B51EC100B04F0D3FC94ED6F
:100EF0003A1B53EC112B04F0BDF804F089F860663E
:100F0000D4F8880004F036FB94ED0E1B53EC112B43
:100F100004F080FB41EC180B606E04F0A5FD53EC6F
:100F2000182B04F05BF99FED161B53EC112B04F00A
:100F300071FB04F0ABFA00EE100A1348B8EEC00AD9
:100F400002F018F984ED1B0A002D01DAB1EE400A17
:100F500084ED1A0A94ED3A0B84ED3C0BBDEC028B48
:100F600070BD00007FBDC282FB211940DC0F49C06B
:100F7000DC0F49400000484233CBD8AFBF15C03F1B
:100F8000000000E03D1923404813002000210160CB
:100F90004160632282608181C181818201824182BC
:100FA0007047000078B50024009490F83C20012A96
:100FB00019D0012280F83C200A6807230568092A15
:100FC00013D9EE680A3A02EB420293409E43EE6068
:100FD0000B788A680A3B03EB43039A400368DD6899
:100FE0002A43DA6010E0022078BD2E6902EB42024B
:100FF00093409E432E610B788A6803EB43039A402B
:1010000003681D692A431A614A681F23072A13D2FD
:1010100005686E6B521E02EB820293409E436E6324
:101020000B790A885B1E92B203EB83039A40036834
:101030005D6B2A435A6327E005680D2A12D22E6B96
:10104000D21F02EB820293409E432E630B790A88E3
:10105000DB1F92B203EB83039A4003681D6B2A43A4
:101060001A6311E0EE6A0D3A02EB820293409E434E
:10107000EE620B790A880D3B92B203EB83039A4030
:101080000368DD6A2A43DA62164B0568144A9D42FA
:1010900006D10D68122D03D1556845F480055560C1
:1010A00005689D4218D10B68102B01D0112B13D16C
:1010B000536843F400035360096810290CD10A49AE
:1010C0000A4A0968B1FBF2F101EB8101490000E035
:1010D000491E00910029FBD180F83C40002078BDDA
:1010E00000230140002001405C0B002040420F0023
:1010F00070477047704770B504004FF0000503D08B
:10110000206C002610B107E0012070BD204600F0E1
:101110001DF8666484F83C60206CC00610D4206C16
:1011200020F4885040F0020020642046FFF752FB74
:101130006664206C20F0020040F00100206400E0B2
:10114000012584F83C60284670BD0000F0B587B0EA
:10115000064614216846FFF7ABF93B49394F33681F
:101160000025394814390324384ABB424FD103685B
:1011700043F480730360006800F480700590086891
:1011800040F001000860086800F001000590086860
:1011900040F004000860086800F00400059008684A
:1011A00040F0020008600868694600F002000590FF
:1011B000A0208DE83100104600F0B2FB30208DE811
:1011C00031006946224800F0ABFB00946946214893
:1011D000CDE9014500F0A4FB204C1F48C4E90005FF
:1011E0000015A560C4E90350400060618000C4E9B7
:1011F00006054FF44030C4E90805204600F0EEFA39
:1012000008B1FFF70BFEB463A66307B0F0BD144E40
:10121000B342FAD1036843F400730360006800F43A
:1012200000700590086840F0010008600868694691
:1012300000F00100059050208DE83100104600F0CC
:101240006FFBE2E70020014044380240000002400A
:10125000000802400004024010640240C053002015
:101260000021014018B50021009190F83C20012A8E
:1012700007D0012280F83C2002689368DB0702D087
:1012800011E0022018BD936843F0010393602E4AD9
:101290002E4B1268B2FBF3F202EB420200E0521E48
:1012A0000092002AFBD102689368DB0742D0036CEE
:1012B00040F20164A34343F48073036453685B0505
:1012C00005D5036C23F4005343F480530364036C8B
:1012D000DB0404D5436C23F00603436400E041645F
:1012E00080F83C101A496FF02203136049680068C7
:1012F000CA06184906D0884224D1816811F0405F9F
:1013000013D01FE08842F8D0134A904203D1D1F89D
:101310000423D206F1D0114A904213D1D1F804131C
:1013200001F01F011029E8D30CE0816841F08041F1
:10133000816007E0016C41F010010164416C41F0F3
:1013400001014164002018BD5C0B002040420F00E9
:101350000023014000200140002101400022014003
:10136000F8B5044600200E46009094F83C10012980
:1013700007D0012184F83C1021688B68DB0702D07C
:1013800011E00220F8BD8B6843F001038B604049F7
:10139000404B0968B1FBF3F101EB410100E0491E4C
:1013A00000910029FBD121688B68DB0503D58B6890
:1013B00023F480738B6021688B68DB075DD0236C1E
:1013C00040F20165AB4343F48073236449684905E7
:1013D00005D5216C21F4005141F480512164216C28
:1013E000C90404D5616C21F00601616400E0606409
:1013F00084F83C00A16B2948274DC863A16B28489D
:101400000864A16B2748C86421686FF02200086057
:101410002068416841F0806141602068816841F442
:10142000807181602168134632464C31A06B00F018
:101430003FFA68681C49C006206806D0884224D15B
:10144000816811F0405F13D01FE08842F8D0174A3E
:10145000904203D1D1F80423D206F1D0144A90422D
:1014600013D1D1F8041301F01F011029E8D30CE0C7
:10147000816841F08041816007E0206C40F01000FD
:101480002064606C40F0010060640020F8BD000042
:101490005C0B002040420F0000230140670600085B
:1014A000EB060008D506000800200140002101409D
:1014B0000022014070B5040003D094F8200010B160
:1014C00004E0012070BD204600F082F82068016829
:1014D00041F00101016000F021FB0546052604E012
:1014E00000F01CFB401B0A2811D820684068C00788
:1014F000F6D02068016821F00201016000F00EFBC7
:1015000005460BE000F00AFB401B0A2806D9606A7A
:1015100040F40030606284F82060D2E720684068C0
:101520008007EFD4207E0128206801683DD021F09B
:1015300080010160607E01282068016838D021F0B8
:1015400040010160A07E01282068016833D021F0AD
:1015500020010160E07E0128206801682ED041F062
:1015600010010160207F01282068016829D021F046
:1015700008010160607F01282068016824D021F003
:1015800004010160D4E902010843D4E904121143C3
:1015900008436168491E08432168C86100206062F1
:1015A000012084F82000002070BD41F08001C0E7D8
:1015B00041F04001C5E741F02001CAE721F01001E8
:1015C000CFE741F00801D4E741F00401D9E700007A
:1015D00010B586B0044614216846FEF769FF144929
:1015E0002068884221D113480021026842F000722D
:1015F0000260006800F0007005900E481038026824
:1016000042F002020260006800F0020005904FF410
:10161000407000900220CDE90101032003900920D1
:1016200004906946044800F07BF906B010BD000044
:101630000064004040380240000402402DE9F843B5
:1016400004464FF00009CDF8009063484FF416515E
:10165000A56D0068B0FBF1F72E6894F85C100820C7
:1016600000FA01F131420FD021680A6852070BD508
:101670000A6822F004020A6094F85C108840A860AE
:10168000606D40F00100606594F85C104FF0010857
:1016900008FA01F0304208D021684969090604D5EA
:1016A000A860606D40F00200606594F85C10042052
:1016B0008840304208D021680968890704D5A860AD
:1016C000606D40F00400606594F85C101020884064
:1016D000304218D021680968090714D5A86020682D
:1016E0000168490304D50068000308D5A16C07E030
:1016F0000168C90503D4016821F008010160216C6B
:1017000009B12046884794F85C1020208840304278
:1017100031D021680968C9062DD5A86094F8350034
:1017200005282068016806D0490347D500680003F2
:101730001DD4616C1CE021F0160101602068416934
:1017400021F080014161206C08B9A06C20B12068B3
:10175000016821F00801016094F85C103F20884086
:10176000A86084F8358084F83490216D1FE0E16B27
:1017700009B120468847606D00282BD0606DC007F6
:1017800014D0052084F835002068016821F001019B
:1017900001600098401C0090B84203D8206800689F
:1017A000C007F6D184F8358084F83490E16C0029C4
:1017B00010D001B02046BDE8F04308470168C905D4
:1017C000D5D4016821F01001016084F8358084F8D7
:1017D0003490CCE7BDE8F8835C0B00202DE9F041A4
:1017E000044600F09BF906465CB1022084F83500FF
:1017F000002584F834502068016821F0010101605F
:101800000DE00120BDE8F08100F088F9801B05287B
:1018100005D920206065032084F83500F2E72068B0
:101820000068C007F0D12268116820480140D4E95F
:1018300001031843D4E9033633431843636918435B
:10184000A3691843E3691843236A18430843616A8C
:10185000042903D1D4E90B1319430843106020680D
:101860004069666A20F0070130460E4301270428CC
:101870000CD1A06A0643E06A40B12046FFF746FA61
:1018800020B14020606584F83570BAE72068466171
:101890002046FFF727FA94F85C203F2191408160B1
:1018A000656584F835700020ACE700003F8010F0DB
:1018B0002DE9F0410446866D90F83400002501289A
:1018C0000DD0012084F8340094F835700020012FE9
:1018D00007D084F8340002252846BDE8F0810220B4
:1018E000FBE7022784F8357060652046FFF738FA79
:1018F00094F85C103F208840B0602068016841F097
:1019000016010160206C20B12068016841F00801D7
:1019100001602068016841F001010160DCE700001E
:101920002DE9F84FDFF8BCA10022012503264FF076
:101930000F090AF1040BAAF1040E00BF0B6805FAA7
:1019400002F42340A34270D10F7907F00307012F5F
:1019500001D0022F16D187684FEA420806FA08FC28
:1019600027EA0C07D1F80CC00CFA08FC4CEA070C6B
:10197000C0F808C04768A7430C79C4F3001494402A
:101980003C4344600C79E443A4070AD0C4684FEA9E
:10199000420C06FA0CF7BC438F6807FA0CF7274392
:1019A000C7600C7904F00304022C12D1D40800EBB8
:1019B000840CDCF820405707FF0E09FA07F824EAE8
:1019C0000804D1F8108008FA07F848EA0408CCF8AF
:1019D000208004684FEA420C06FA0CF7BC430F79EA
:1019E00007F0030707FA0CF7274307604C6814F465
:1019F000403F70D03C4C276847F4804727602468FC
:101A000022F0030704F480440094384C07EB040CE4
:101A1000DCF8084897074FEA177809FA08F7BC433B
:101A2000334FB84202D1002724E054E0314FB8428E
:101A300001D101271EE0304FB84201D1022719E041
:101A40002E4FB84201D1032714E02D4FB84201D1E7
:101A500004270FE02B4FB84201D105270AE02A4F97
:101A6000B84201D1062705E0284FB84201D1072727
:101A700000E0082707FA08F72743CCF80878DAF8D7
:101A800000405746D1F804C09C435FEACC2C00D5F7
:101A90001C433C60DBF800405F46D1F804C09C4327
:101AA0005FEA8C2C00D51C433C60DEF80040774692
:101AB000D1F804C09C435FEA8C3C00D51C433C60D9
:101AC000084F083F3C68D1F804C09C435FEACC3C17
:101AD00000D51C433C60521C102AFFF42FAFBDE818
:101AE000F88F0000083C01404438024000300140BB
:101AF000000002400004024000080240000C0240C6
:101B0000001002400014024000180240001C024075
:101B10000AB1816170470904FBE700000148806851
:101B200070470000500B002070B5040025D094F8D9
:101B30003D00002520B984F83C50204600F0B8F85C
:101B4000242084F83D002068016821F00101016033
:101B50002068016841F4004101602068016821F4B7
:101B60000041016000F02EFA4D4A6168914201D8AF
:101B70004C4900E04C49884201D2012070BD4B49DC
:101B80002368B0FBF1F15E6826F03F060E435E600D
:101B90006368934206D94FF4967359434FF47A73AE
:101BA000B1FBF3F12368491C1E6A26F03F0631435E
:101BB00019626168914210D84900401EB0FBF1F2F1
:101BC000521CC2F30B02042A01D2042022E0B0FB13
:101BD000F1F0401CC0F30B001CE0A268F2B301EB73
:101BE000C10303EB0116431EB3FBF6F35B1C43F486
:101BF00080431B0549D092B301EBC10202EB0111F6
:101C0000401EB0FBF1F0401CC0F30B0040F48040DC
:101C100040F400402168CA694CF6FF739A431043B0
:101C2000C861D4E9071001432068026822F0C002AD
:101C300011430160D4E9030101432068826848F23E
:101C4000FF339A4311438160D4E9050108432168B9
:101C5000CA6822F0FF021043C86001E00EE016E0FF
:101C60002068016841F0010101602564202084F8AA
:101C70003D00256384F83E50002070BD01EB410615
:101C8000431EB3FBF6F35B1CB3E70120C2E701EB95
:101C90004101401EB0FBF1F0401CC0F30B00B7E760
:101CA000A086010080841E0000093D0040420F0014
:101CB000F0B587B0044614216846FEF7F9FB2768A3
:101CC000234CDFF888C00022214912230325042673
:101CD00020481034674518D10F6847F002070F609D
:101CE000096802AF01F002010591C021CDE900139E
:101CF00087E864006946FFF713FE206840F400108F
:101D00002060206800F400101CE0DFF84CC067453C
:101D100019D10F6847F002070F60096802AF01F0A0
:101D2000020105914FF44061CDE9001387E864009A
:101D30006946FFF7F5FD206840F4800020602068C8
:101D400000F48000059007B0F0BD00000054004092
:101D500030380240000402400058004002488168C8
:101D60000278114481607047500B00200B4810B579
:101D7000016841F400710160016841F48061016013
:101D8000016841F480710160032000F06FF80F20BA
:101D900000F006F800F024F8002010BD003C0240DE
:101DA00070B50D4D04464FF47A712878B1FBF0F010
:101DB0000A490968B1FBF0F000F00AFB48B9102CA1
:101DC00007D200222146501E00F030F800206C603F
:101DD00070BD012070BD0000500B00205C0B002086
:101DE0000A4808B5016841F480410160006800F4C8
:101DF000804000900548001F016841F0805101605B
:101E0000006800F08050009008BD00004438024097
:101E1000002809DB00F01F020121914040098000E9
:101E200000F1E020C0F8001170470000F0B40E4B44
:101E30001B680C46C3F30223C3F10705042D00D928
:101E40000425191D072901D2002300E0DB1E01260D
:101E500006FA05F1491E214099409E40761E164023
:101E60003143F0BC02F08BBE0CED00E0064900F0FF
:101E7000070208684FF6FF03184040EA0220034AB1
:101E800010430860704700000CED00E00000FA0508
:101E90002DE9F0470E46050065D0DFF81481D8F82B
:101EA0000000F7B200F00700B04207D288F80070D7
:101EB000D8F8000000F00700B04254D128683D4C2B
:101EC000810712D5400703D5206840F4E050206018
:101ED0002878000703D5206840F46040206020681F
:101EE000A96820F0F000084320602878C0072DD0B2
:101EF000304968680839012812D0022813D0032815
:101F000011D00968890700292DDA216821F0030121
:101F100001432160FFF702FE814641F2883A0EE05C
:101F200009688903EFE709688901ECE7FFF7F6FD27
:101F3000A0EB0901514502D90320BDE8F0872068D4
:101F4000696800F00C00B0EB810FEFD1D8F80010F9
:101F5000404601F00701B14207D90770006800F060
:101F60000700B04201D00120E7E72878400705D5F7
:101F70002068E96820F4E0500843206028780007D2
:101F800006D52068296920F4604040EAC10020603D
:101F900000F038F82168084AC1F30311515CC840C9
:101FA0000649086006480068FFF7FAFE0020C4E70B
:101FB000003C024008380240665B00085C0B0020D1
:101FC000540B00200448054900680968044AC1F31D
:101FD0008221515CC84070475C0B002008380240E9
:101FE000765B00080448054900680968044AC1F3A3
:101FF0004231515CC84070475C0B002008380240F9
:10200000765B0008154810B5006810F00C02144803
:1020100013D04110042A0FD0082A0ED10F4C241FD0
:102020002268236802F03F025B0207D52068C0F3F4
:102030008810A0FB010106E0084610BD2168C1F32D
:102040008811A1FB00010023FEF736F92168C1F3D6
:102050000141491C4900B0FBF1F010BD08380240B5
:102060000024F4002DE9F84F04006ED02078DFF84A
:102070004C93C007A9F104054AD009F10400016896
:10208000C1F38101012908D00068C0F38100022852
:102090000AD1D9F80000400206D52868800337D558
:1020A00060680028E1D033E06068B0F5803F10D070
:1020B000B0F5A02F286810D020F480302860286860
:1020C00020F4802028606068A8B1FFF727FD06464D
:1020D0000DE0286840F48030F4E740F48020286068
:1020E000F7E700BFFFF71AFD801B642873D8286844
:1020F0008003F7D50CE0FFF711FD064605E000BFB1
:10210000FFF70CFD801B6428F0D828688003F7D403
:102110002078DFF8AC8280074FF0000A3ED5A74850
:10212000001D016811F00C0F08D00068C0F3810099
:1021300002280BD1D9F80000400207D42868800794
:1021400016D5E068012800D112E033E1E068B8B1AB
:102150000120C8F80000FFF7E1FC064605E000BFDB
:10216000FFF7DCFC801B0228C0D828688007F7D561
:102170002868216920F0F80040EAC10028600DE0DD
:10218000C8F800A0FFF7CAFC064604E0FFF7C6FC4B
:10219000801B02281FD828688007F7D42078000702
:1021A00022D5864F87486169703771B1012101607E
:1021B000FFF7B4FC064604E0FFF7B0FC801B0228E2
:1021C00009D838688007F7D50EE0C0F800A0FFF7FF
:1021D000A5FC064605E082E0FFF7A0FC801B022874
:1021E0007DD838688007F7D42078400768D5DFF8B5
:1021F000CCB100270BF13C0BDBF80000C0000BD486
:10220000DBF8001041F08051CBF80010DBF8000043
:10221000012700F0805000906B4E3068C00510D44C
:10222000306840F480703060FFF778FC009005E083
:10223000FFF774FC0099401A022850D83068C00596
:10224000F6D55E4EA0686C3601280FD005283068A0
:1022500010D020F001003060306820F004003060C1
:10226000A068B8B1FFF75AFC00900FE0306840F06A
:102270000100F4E740F004003060F7E7FFF74EFCA0
:102280000099411A41F28830814266D8306880074F
:10229000F4D50EE0FFF742FC009007E0FFF73EFCAC
:1022A0000099411A41F28830814256D8306880073F
:1022B000F4D42FB1DBF8001021F08051CBF80010DE
:1022C000A069C8B33D49091D0968C1F3810102290C
:1022D0004AD00228504607D0C8F8600000E03CE031
:1022E000FFF71CFC04463BE04746C8F86000FFF7D8
:1022F00015FC064605E000BFFFF710FC801B022816
:102300002BD828688001F7D4D4E907010843A16AD3
:102310002E4A490802EB0141626A41EA82110843F0
:1023200094F82C1040EA0161C9F8001001203866C9
:10233000FFF7F4FB044606E03EE000BFFFF7EEFBCC
:10234000001B022809D828688001F7D534E000BFB7
:10235000FFF7E4FB001B022802D90320BDE8F88F39
:1023600028688001F4D427E00128F7D0D9F80000CC
:10237000E26900F4800191421CD1226A00F03F0121
:10238000914217D147F6C071626A0140B1EB821FDA
:1023900010D1A26A4FF0FF3300F4403103EB520238
:1023A000B1EB024F06D194F82C1000F07060B0EB46
:1023B000016F01D00120D1E70020CFE704380240AF
:1023C00000004742800E4742007000400000FFFFBF
:1023D00010B5401EB0F1807F01D3012010BD4FF039
:1023E000E02460610F21601702F0C9FB0020A061AA
:1023F00007202061002010BD7047704710B590F88D
:102400003C20012A22D0012280F83C20CA688C6836
:1024100022F4407222434C6822F4806222430C680A
:1024200022F4006222430C6922F4805222434C6958
:1024300022F400522243C969002322F480420A4355
:1024400001684A6480F83C30002010BD022010BDB5
:1024500070B590F83C20012A32D0012480F83C402D
:10246000022280F83D2003685A689D6822F07006B9
:102470000A6832435A60134B02689A4214D0B2F190
:10248000804F11D0104B9A420ED0104B9A420BD075
:102490000F4B9A4208D00F4B9A4205D00E4B9A42EE
:1024A00002D00E4B9A4204D1496825F080031943AB
:1024B000916080F83D40002180F83C10084670BDD6
:1024C000022070BD000001400004004000080040F0
:1024D000000C004000040140004001400018004092
:1024E00010B5040003D094F83D0010B107E00120BE
:1024F00010BD002084F83C00204600F01FF80220A8
:1025000084F83D00211D206802F0E4F8012084F8E1
:10251000460084F83E0084F83F0084F8400084F8C8
:10252000410084F8420084F8430084F8440084F8B1
:10253000450084F83D00002010BD000008B501688A
:102540001A4881420FD11A48016841F00101016027
:102550000068002200F00100009001211920FFF71F
:1025600065FC192012E01248124A001F914211D155
:10257000016841F0020101600068002200F00200E1
:10258000009002211D20FFF751FC1D20BDE80840EE
:10259000FFF73EBC084A914207D1016841F00801AB
:1025A0000160006800F00800009008BD00000140D4
:1025B0004438024000040040000C004090F83D10F8
:1025C000012901D001207047022180F83D100068E8
:1025D0001149884214D0B0F1804F11D00F49884280
:1025E0000ED00F4988420BD00E49884208D00E49C0
:1025F000884205D00D49884202D00D49884204D155
:10260000816801F00701062903D0016841F001014A
:1026100001600020704700000000014000040040FD
:1026200000080040000C0040000401400040014050
:102630000018004090F83D10012901D0012070479A
:10264000022180F83D100168CA6842F00102CA60A8
:1026500000681149884214D0B0F1804F11D00F4961
:1026600088420ED00E4988420BD00E49884208D0CD
:102670000D49884205D00D49884202D00C49884254
:1026800004D1816801F00701062903D0016841F0F7
:10269000010101600020704700000140000400407B
:1026A00000080040000C00400004014000400140D0
:1026B000001800400168CA6822F00102CA6001687F
:1026C0000A6A41F211131A4207D10A6A9B101A4290
:1026D00003D10A6822F001020A60012180F83D104E
:1026E0000020704770B5044690F83C000025012892
:1026F00017D0012684F83C60022084F83D00206851
:10270000826822F0770222F47F42826008685028B3
:1027100038D00DDC20284FD005DC90B3102811D123
:102720004AE0022070BD302846D040280AD13BE064
:1027300060282FD070280DD0B0F5805F03D0B0F5A1
:10274000005F12D0012584F83D60002084F83C0031
:10275000284670BDCB68D1E90121206802F02BF832
:102760002068816841F0770109E0CB68D1E9012157
:10277000206802F020F82068816841F4804181607F
:10278000E1E719E0CA684968206802F0E9F85021D9
:10279000206806E0CA684968206802F0F2F8602103
:1027A000206802F012F8CEE7CA684968206802F093
:1027B000D7F840212068F4E7226801461046F0E788
:1027C0002DE9F0410D46040003D094F83D0018B106
:1027D00008E00120BDE8F081002084F83C0020469C
:1027E00000F040F8022084F83D002068816844F23F
:1027F000070291438160211D206801F06BFF226870
:1028000090689169166A2B68AF69034340F2033000
:10281000814341EA0721A868EF6908434FF6FC416C
:102820008843E96840EA0720014328692F6A0001CC
:1028300040EA0730084369686D6926F0AA0646EA4F
:102840000515294393602268906154F8460B016294
:10285000012004F81F09E0752076E0762077A07546
:102860000020B7E710B586B0044614216846FDF78E
:102870001FFE2068B0F1804F1FD11148002102686F
:1028800042F001020260006800F0010005900C486F
:102890001038026842F001020260006800F0010096
:1028A0000590032000900220CDE901010120CDE92F
:1028B000031069460348FFF733F806B010BD000067
:1028C000403802400000024070B590F83E60044677
:1028D00090F83F5090F8423090F84320022021B108
:1028E00004290ED0012E1BD114E0012E18D1012B8A
:1028F00016D184F83E0084F84200012200212068AD
:1029000020E0012D0CD1012A0AD184F83F0084F87F
:10291000430014E0012D03D1012B01D1012A01D084
:10292000012070BD84F83E0084F83F0084F8420026
:1029300084F8430001220021206801F02FFF0122CA
:102940000421206801F02AFF2068016841F001019C
:102950000160002070BD704770B5044600680169D1
:102960004FF00005C943890715D4C168C9438907D9
:1029700011D4E91E01610120207720688069800759
:10298000204602D0FFF7E7FF04E000F0C3F820463E
:1029900000F055F9257720680169C943490717D424
:1029A000C168C943490713D46FF0040101610220D3
:1029B00020772068806910F4407F204602D0FFF71E
:1029C000CAFF04E000F0A6F8204600F038F92577A9
:1029D00020680169C943090716D4C168C9430907BA
:1029E00012D46FF008010161042020772068C069CB
:1029F0008007204602D0FFF7AEFF04E000F08AF81F
:102A0000204600F01CF9257720680169C943C906F2
:102A100017D4C168C943C90613D46FF0100101610E
:102A2000082020772068C06910F4407F204602D03B
:102A3000FFF791FF04E000F06DF8204600F0FFF88A
:102A4000257720680169C943C90708D1C168C9430E
:102A5000C90704D1891E0161204600F055F920689C
:102A60000169C943090609D4C168C943090605D4E7
:102A70006FF0800101612046FFF7BEFC206801690C
:102A8000C943490609D4C168C943490605D46FF052
:102A900040010161204600F0FFF920680169C94347
:102AA00089060BD4C168C943890607D46FF0200199
:102AB00001612046BDE87040FFF79FBC70BD00007B
:102AC00010B586B0044614216846FDF7F1FC0E49A6
:102AD0002068884216D10D480021026842F00102A8
:102AE0000260006800F0010005904FF470600090F3
:102AF0000220CDE901010120CDE903106946044817
:102B0000FEF70EFF06B010BD000001403038024055
:102B100000000240704770B5044690F83C00002663
:102B20000D4601280FD0012084F83C006AB1042A28
:102B30001DD0082A2FD00C2A3FD00126002084F86F
:102B40003C00304670BD022070BD206801F046FE9A
:102B50002068816941F0080181612068816921F064
:102B600004018161206881692A69114311E02068AC
:102B700001F064FE2068816941F400618161206890
:102B8000816921F480618161206881692A6941EA53
:102B900002218161D2E7206801F086FE2068C169C8
:102BA00041F00801C1612068C16921F00401C161DF
:102BB0002068C1692A69114311E0206801F0A8FE6C
:102BC0002068C16941F40061C1612068C16921F4D4
:102BD0008061C1612068C1692A6941EA0221C1613D
:102BE000ACE710B5040003D094F83D0010B107E045
:102BF000012010BD002084F83C00204600F01EF8A3
:102C0000022084F83D00211D206801F063FD0120B1
:102C100084F8460084F83E0084F83F0084F84000C1
:102C200084F8410084F8420084F8430084F84400AA
:102C300084F8450084F83D00002010BD70477047BF
:102C400010B50446022249B104290ED0082913D038
:102C500094F84100012816D0012010BD94F83E00E0
:102C60000128F9D184F83E200FE094F83F000128B4
:102C7000F2D184F83F2008E094F840000128EBD11D
:102C800084F8402001E084F841200122206801F00E
:102C900085FD16492068164A884201D0904203D12A
:102CA000436C43F4004343642068884213D0B0F17E
:102CB000804F10D00F4988420DD00F4988420AD06A
:102CC0000E49884207D0904205D00D49884202D073
:102CD0000C49884204D1816801F00701062903D01C
:102CE000016841F001010160002010BD00000140B9
:102CF000000401400004004000080040000C0040B7
:102D0000004001400018004070B555492DED028B80
:102D10000068096888427DD1524800F53C75017809
:102D2000032978D14078042875D1A868401CA86090
:102D3000A86864286FD30020A860A5F53870FDF757
:102D4000EFFE462105F58140FEF76AF805F581445E
:102D5000B4F82C01012874D19FED430A84ED230AB5
:102D60009FED420A424984ED240A94ED1A0AB0EE1E
:102D7000C00A10EE100A88425DDB50219FED3D8AAB
:102D800004F59870B0EE480A00F064F9B0EE480A15
:102D9000502104F5B07000F05DF994ED1A0A36493F
:102DA000B0EEC00A10EE100A884215DBB0EE480AF9
:102DB000642104F5987000F04DF9B0EE480A6421E2
:102DC00004F5B07000F046F99FED2C0A84ED230A5B
:102DD0009FED2B0A84ED240A94ED1A0A2949B0EEDE
:102DE000C00A10EE100A88420CDBB0EE480AC82177
:102DF000254800F02FF92448B0EE480AC8213030A9
:102E000000F028F994ED1A0A2049B0EEC00A10EE3D
:102E1000100A01E021E014E088420CDBB0EE480A21
:102E2000FA21194800F016F91748B0EE480AFA21BD
:102E3000303000F00FF96421154801F057FB84EDA4
:102E40002E0A2868401C28601248FDF7E5FDBDECFD
:102E5000028BBDE8704001F0B3BABDEC028B70BDCF
:102E6000E00C0020C00E002012FD9D3D17B7513A26
:102E70000000A04217B751380000D242F98A2F3D16
:102E8000A69BC43A000002436053002000000C439C
:102E90003052002028110020704770B5040004D083
:102EA00094F83D00002510B106E0012070BD84F8C3
:102EB0003C50204600F022F8242084F83D00206891
:102EC000C16821F40051C160204601F095FD2068E1
:102ED000016921F4904101612068416921F02A01D2
:102EE00041612068C16841F40051C160256420201F
:102EF00084F83D0084F83E00002070BDF0B587B036
:102F0000044614216846FDF7D3FA21481F4F26686E
:102F100000221F491038022303240725BE4215D181
:102F20000E6846F400360E60096801F40031059120
:102F3000016841F0010101600068694600F001008C
:102F400005900C20CDE90003124818E0124FBE4254
:102F50001AD10E6846F480260E60096801F48021BB
:102F60000591016841F0040101600068694600F0C4
:102F7000040005904FF44060CDE90003074802AE1D
:102F800086E83400FEF7CCFC07B0F0BD00440040FA
:102F90004038024000000240004800400008024063
:102FA0002DE9F843044690F83D001F4616460D46AD
:102FB00020284CD1C5B1BEB194F83C00012846D0C0
:102FC000012084F83C004FF00008C4F84080212024
:102FD00084F83D00FEF7A2FDA6848146E684A06841
:102FE000B0F5805F03D004E00120BDE8F8832069DC
:102FF00028B12E465FF0000584F83C800EE00026E4
:10300000FAE78021204601F07DFDA0B9AEB116F8A7
:10301000010B21684860E08C401EE084E08C4B4648
:103020004FF0000200970028EBD14FF040012046FE
:1030300001F068FD30B10320D7E735F8020BC0F38B
:103040000800E6E7202084F83D000020CDE70220BC
:10305000CBE7FEE710B500EE901A2DED088BB0EE31
:10306000408AF8EE600A0446C0ED010A80ED008A4D
:1030700010EE900A02F0F8FC41EC190B18EE100A61
:1030800002F0F2FC9FED341B53EC112B02F0C2FA5C
:1030900053EC192B02F0BEFA41EC100B53EC102B41
:1030A0009FED2F0B51EC100B02F098F801F0B0FFE0
:1030B00008EE100AB7EE000AF0EE000A38EE009AA9
:1030C00008EE200A84ED068A69EE098A18EE900A55
:1030D000C0EE280AC4ED020A02F0C6FC41EC1B0B4C
:1030E00018EE100A02F0C0FC9FED1FAB53EC1A2B38
:1030F00002F090FA53EC1B2B02F070F801F088FFFD
:10310000E06019EE100A02F0AFFC41EC190B18EE6A
:10311000100A02F0A9FC53EC1A2B02F07BFA53ECD4
:10312000192B02F05BF801F073FF28EE080A20610A
:10313000C0EE280A9FED0E0AC4ED050A84ED070AC9
:1031400084ED080A84ED090A84ED0A0A84ED0B0A6D
:10315000BDEC088B10BD00001F85EB51B81E194057
:10316000000000000000F03F00000000000000C070
:1031700000000000F0EE400AC0ED0A0A90ED040ADB
:1031800090ED081AD0ED051A90ED092A20EE410ABB
:1031900001EEC20AD0ED021A90ED0B2A01EEA00A50
:1031A000D0ED031A01EE820A80ED070A80ED091ABC
:1031B00080ED080AC0ED0B0A7047000010B5B3EEB1
:1031C000080A80ED000A80ED020AB1EE080A80EDDF
:1031D000010A9FED160A044680ED030A9FED140BC9
:1031E00051EC100B01F014FF9FED130A206184EDE8
:1031F000050A9FED120A84ED060A9FED110A84ED7F
:10320000090A9FED100A84ED0B0A9FED0F0A84ED69
:10321000080A9FED0E0A84ED0A0AB2EE010A84ED57
:10322000070A9FED0B0A84ED0D0A10BD0000F04265
:10323000F72C7FBDFA2129409C50883BCDCCCC3F58
:1032400096438B3B59D90034000048429A99593E25
:103250006666E63F7FB500241B4800940194029403
:1032600018490394016001254FF480310561C0E9DC
:103270000114047680F820401449C0E90A1402269B
:10328000C661C46080F830404461FDF734FF08B186
:1032900072B6FEE70820CDE90005694602940A48A7
:1032A000FDF780FE08B172B6FEE70920CDE9000601
:1032B00069460548FDF776FE002801D072B6FEE7A4
:1032C0007FBD000000200140800B00200100000FA6
:1032D0007FB5002415480094019402941249039488
:1032E00001604FF48031C0E901140461047680F874
:1032F00020400F49C0E90A140125C561C46080F867
:1033000030404561FDF7F7FE08B172B6FEE70620D2
:10331000CDE90005694602940448FDF743FE002804
:1033200001D072B6FEE77FBD00210140C80B00202E
:103330000100000F0C4810B50A49016010214160DE
:1033400000218160C1600161416101764176817631
:10335000C17601774177FEF7ADF8002801D072B64B
:10336000FEE710BD00640040100C00202DE9F04382
:1033700087B014216846FDF79BF8314800240168A6
:1033800041F004010160016801F004010591016848
:1033900041F080010160016801F080010591016840
:1033A00041F001010160016801F00101059101682E
:1033B00041F0020101600068DFF8888000F002003F
:1033C00041F20C360590002231464046FEF7A0FB44
:1033D000DFF8749048F21807002239464846FEF795
:1033E00097FB4FF4C04001258DE831006946404607
:1033F000FEF796FA48F2C300CDE90004694640465C
:103400000294FEF78DFA0096CDE9015469464046D4
:103410000394FEF785FA4FF48150CDE90004694624
:1034200048460294FEF77CFA0097CDE901546946BC
:1034300048460394FEF774FA07B0BDE8F083000035
:1034400030380240000802400004024010B596B037
:1034500000240F9410941194129413941C21684624
:103460001494FDF725F8202107A8FDF721F834482A
:103470003249C0E9001442F2CF01C0E90241802183
:103480000461C0E90541FFF72BF808B172B6FEE709
:103490004FF480500F900FA92948FFF723F908B186
:1034A00072B6FEE72648FFF79CFB08B172B6FEE74E
:1034B000139413A922481494FEF7CAFF08B172B6F8
:1034C000FEE76020CDE9000402940394049405947F
:1034D000002269461A480694FFF71DFB08B172B630
:1034E000FEE7042269461648FFF715FB08B172B6DD
:1034F000FEE7082269461248FFF70DFB08B172B6D5
:10350000FEE70C2269460E48FFF705FB08B172B6CC
:10351000FEE70794089409944FF400500A94CDE90B
:103520000B4007A906480E94FEF768FF08B172B673
:10353000FEE70348FFF7C4FA16B010BD00000140D3
:10354000E00C002010B58CB024216846FCF7B0FFD9
:103550000024164809944FF080410A94C0E90014F1
:103560004FF47A61C0E90241046184610320CDE92E
:1035700000040120CDE902040A210491CDE90540AF
:10358000CDE9074169460948FFF71AF908B172B653
:10359000FEE7099409A905480A94FEF759FF002897
:1035A00001D072B6FEE70CB010BD0000280D00205F
:1035B00010B586B000241648009401940294039438
:1035C000049412490594C0E900145321C0E9024152
:1035D00004618461FEF784FF08B172B6FEE74FF420
:1035E0008050009069460A48FFF77CF808B172B62F
:1035F000FEE7049404A906480594FEF729FF002875
:1036000001D072B6FEE706B010BD00000004004015
:10361000700D002010B586B0002416480094019467
:103620000294039404941249059401605321C0E963
:103630000114611EC0E903148461FEF751FF08B153
:1036400072B6FEE74FF48050009069460948FFF7D4
:1036500049F808B172B6FEE7049404A90548059438
:10366000FEF7F6FE002801D072B6FEE706B010BDE8
:10367000000C0040B80D0020FEE7000010B500224D
:103680004FF400710548FEF743FABDE810400022F0
:103690004FF400410248FEF73BBA00000008024028
:1036A0000004024010B5012251020548FEF730FA2D
:1036B0000122BDE81040D1030248FEF729BA0000FC
:1036C0000008024000040240FEE7000010B5044676
:1036D0002DED048B80ED070ABDEEE00A10EE100A16
:1036E000A4F86800B4F9680001F02DFF41EC100B5C
:1036F00053EC102B9FED900B51EC100B01F06EFD75
:1037000041EC100B84ED140B94ED140B53EC102BC7
:103710009FED8B0B51EC100B01F060FD41EC100B99
:1037200084ED160B94ED120B94ED141B53EC102B3F
:1037300051EC110B01F052FD9FED831B53EC112B4B
:1037400001F098FC01F0A2FE206600218048FDF700
:1037500035FA10EE100A02F087F941EC100B84EDF7
:103760000C0B606E01F006FF41EC180B94ED160B8C
:103770009FED781B51EC100B53EC112B01F04AFF1D
:1037800053EC182B01F046FF94ED121B53EC112B58
:1037900001F040FF41EC100B84ED0A0B94ED0A0B95
:1037A00051EC100B01F034FC00EE100A01F010FA9D
:1037B000B0EE408A94ED070AF0EE608A10EE100A2F
:1037C00002F052F953EC182B01F024FF94ED0A0B90
:1037D00041EC180B51EC100B01F01AFC00EE100A32
:1037E00001F0DEF9B0EE409A94ED060AF0EE609A30
:1037F00010EE100A02F038F953EC192B01F00AFF11
:1038000053EC182B02F046F801F002FC00EE100A0F
:1038100084ED080A94ED0A0B51EC100B01F0F8FB53
:1038200000EE100A01F0BCF9B0EE408A94ED070AF0
:10383000F0EE608A10EE100A02F016F953EC182B25
:1038400001F0E8FE94ED0A0B41EC180B51EC100B63
:1038500001F0DEFB00EE100A01F0BAF9B0EE409A7A
:1038600094ED060AF0EE609A10EE100A02F0FCF8F1
:1038700053EC192B01F0CEFE53EC182B01F0FAFBA0
:1038800001F0C6FB00EE100AF3EE080A84ED090A07
:1038900094ED080A324880EE201AB7EE000A71EE65
:1038A000001AB6EE001A61EE811AC4ED211AD4EDA9
:1038B000091A81EEA02A72EE000A60EE810AC4EDB8
:1038C000220A94ED211ADFED250A026821EE201A62
:1038D000BDEEC11A11EE101A516394ED211A02685F
:1038E00030EE411A21EE201ABDEEC11A11EE101A67
:1038F000916394ED221A026821EE201ABDEEC11ADE
:1039000011EE101AD16394ED221A006830EE410ACC
:1039100020EE200ABDEEC00A10EE101A0164606E9F
:10392000401C6066606E216E884201D30020606694
:10393000BDEC048B10BD0000333333333333F33F1E
:10394000000000000000F03FFCA9F1D24D62503FA2
:10395000180F00207FBDC282FB21194000400346A2
:10396000E00C00209FED181B9FED192B80ED041B30
:1039700080ED061B80ED081B80ED0A1B80ED141BFB
:1039800080ED161B80ED101B80ED121B80ED0C2BC3
:103990009FED112B80ED0E2B80ED240B9FED100A77
:1039A000DFED100A80EC020A80ED020A80ED201B98
:1039B00080ED221B80ED1C1B80ED1E1B80ED181B73
:1039C00080ED1A1B7047000000000000000000009E
:1039D000000000000000384000000000000038C077
:1039E000CDCCCC3F8FC2753C9FED181B9FED192BA2
:1039F00080ED041B80ED061B80ED081B80ED0A1B8B
:103A000080ED201B80ED221B80ED1C1B80ED1E1B1A
:103A100080ED182B9FED112B80ED1A2B80ED240BE0
:103A20009FED100AF6EE000A80EC020A80ED020A11
:103A300080ED141B80ED161B80ED101B80ED121B1A
:103A400080ED0C1B80ED0E1B704700000000000095
:103A50000000000000000000000010400000000016
:103A6000000010C0CDCC4C3D7047000001EE901A14
:103A7000C0ED010A80ED020AF8EE611A818170EE54
:103A8000C00AC28181EE812AFCEEC21A11EE901AA0
:103A900001EE902A89B2F8EE611A00EE101A018345
:103AA00081EE812AB8EE400ABCEEC21A11EE102A4D
:103AB00080EE801A92B200EE102A4283B8EE400ADD
:103AC00080ED041A80EE801A9FED050A80ED051A3C
:103AD00080ED000A9FED030A80ED080A70470000A0
:103AE000000000000000704280ED000A90ED081A0E
:103AF000D0ED040A012171EE200AF4EEC00AF1EEC5
:103B000010FA09D2F4EEC00A0022F1EE10FA0277A0
:103B1000C0ED080A12DA14E0D0ED050A71EE600A71
:103B2000F4EEC00AF1EE10FA0EDDF4EEC00A022245
:103B3000F1EE10FA0277C0ED080A02D880ED080A0B
:103B4000017790ED080A7047017780ED080AF8E7E1
:103B50002DE9F0415149524A0025012601F5405412
:103B600020B1012828D002286ED06FE094F8880E8A
:103B700001286BD14FF4FA60A4F88E0EB4F88C0EC5
:103B8000B4F88E3E98425CD2908BB4F88C2E21F81B
:103B900012004448B4F88C2E90ED1A0ABDEEC00A0B
:103BA00010EE100A01EB4201A1F8A20FB4F88C0E3E
:103BB000401CA4F88C0E49E094F8880E012845D1E9
:103BC0004FF47A70A4F88E0EB4F88C0EB4F88E3ED2
:103BD000984236D23448B0F86830642713FB07F3B4
:103BE000B4F88CCE0F4621F81C30918B642211FB67
:103BF00002F1B4F88C2E07EB4202A2F8A21F90ED5E
:103C00000A0B9FED2A1B51EC100B53EC112B04F601
:103C10008C6401F0FFFC01F039FC218807EB4101C5
:103C200001F58051A1F8440F208807EB400000F512
:103C30000050A0F8E65E2088401C2080A4F68C642A
:103C400004E084F8896E01E094F8880E94F8890EF7
:103C5000012820D194F8880E01281CD184F8885EB0
:103C6000A4F88C5E84F88A6E1248FEF723FD0022C9
:103C700010211148FDF74CFF0E4841F254510268E3
:103C80005163026840F67C319163026841F2680139
:103C9000D16300680164BDE8F08100007813002062
:103CA000D00E002030520020C8110020000000007B
:103CB00000005940E00C0020000402403EB5244CB6
:103CC00094F88A0E012835D1B4F88C0EB4F88E1E03
:103CD000884230D2B4F88C1EB4F88C2EA4F5405033
:103CE00000EB420202F50052B2F9E62EB4F88C3E27
:103CF00000EB430303F58053B3F9443F0093CDE950
:103D00000121B4F88C1E00EB4101B1F9A23FB4F8D7
:103D10008C1E30F911200FA1124804F68C64FCF7B8
:103D200043FB64231E220F490F48FFF739F920880F
:103D3000401C20803EBD002084F88A0E03B01E2364
:103D4000BDE83040092209A10748FFF729B9000062
:103D5000784300200A2564202564202564202564FA
:103D600020256400600B0020440E00200A446F6E82
:103D700065212121000000002DE9F04104462DEDD0
:103D80000C8BB7EE009AB0F82C0110B1012816D0B8
:103D900019E0FE48B0F91C00FD4900EE100AB8EE2B
:103DA000C00AB0EEC00A10EE100A88427EDDD4E9E7
:103DB0002110401E814279D10120A4F82C0194EDFC
:103DC000150A84ED140A94ED140A00F001FFB0EE18
:103DD000408A94ED2E0AF0EE608AB1EE400A10EEB1
:103DE000100A01F041FE53EC182B01F013FC01F016
:103DF0000FF9E06794ED140A00F0D2FEB0EE408AAD
:103E0000F0EE608AD4F8B80001F02EFE53EC182BC7
:103E100001F000FC01F0FCF800EE100ADD4884ED32
:103E2000200A90ED0EAA84ED04AAD4ED1F0A70EECC
:103E3000CA0AC4ED1D0AD0ED0F9AC4ED069A30EE01
:103E4000690A84ED1E0A606901F00EFE266841ECE5
:103E50001C0B304601F008FE656841EC1B0B284640
:103E600001F002FE94ED0E8B53EC182B01F0B6F925
:103E700053EC1B2B01F00EFD53EC1C2B01F0CAFB85
:103E800041EC1B0B1AEE100A01F0EEFD41EC1A0B8F
:103E9000284601F0E9FD53EC182B01F09FF953EC93
:103EA0001A2B01F0B7FB41EC1A0B00E043E1A06ACA
:103EB00001F0DAFD53EC1A2B01F0ECFC53EC1B2B58
:103EC00001F0D8F801F0A4F80AEE100A84ED0CAA6B
:103ED000E06901F0C9FD41EC1C0B304601F0C4FD66
:103EE00041EC1B0B284601F0BFFD53EC182B01F0F1
:103EF00075F953EC1B2B01F0CDFC53EC1C2B01F09E
:103F000089FB41EC1B0B19EE900A01F0ADFD41EC71
:103F10001C0B284601F0A8FD53EC182B01F05EF9AC
:103F200053EC1C2B01F076FB41EC180BE06A01F01E
:103F30009BFD53EC182B01F0ADFC53EC1B2B01F057
:103F400099F801F065F86063B0EE4A0A9248FFF70D
:103F500011F984ED120A94ED0D0A9048FFF70AF961
:103F600084ED130AF0EE400A94ED120AB1EE400A15
:103F7000FCF7D4FCB5EEC00A84ED180AF1EE10FA95
:103F800011D210EE100A864988420CD210EE100AA7
:103F900001F06AFD9FED831B53EC112B01F06AF8D1
:103FA00001F036F8206694ED180A84ED150A84EDC8
:103FB000140AA06C01F058FD656841EC1A0B284604
:103FC00001F052FD41EC100B94ED0E8B53EC102BD5
:103FD00051EC180B01F002F953EC1A2B01F01AFB0B
:103FE00041EC1A0B206901F03FFD41EC1B0B284608
:103FF00001F03AFD276841EC1C0B384601F034FD16
:1040000053EC182B01F006FB53EC1C2B01F0E6F8E7
:104010009FED66DB53EC1D2B01F030FC53EC1B2BAA
:1040200001F0F8FA94ED1F0AD4ED1C9AD4ED1D0AA4
:1040300041EC1B0B09EEE00A10EE100A01F014FD32
:1040400053EC1B2B01F026FC53EC1A2B01F012F859
:1040500041EC1A0B284601F007FD53EC182B01F038
:10406000BDF853EC1A2B01F0D5FA00F0D1FF06464B
:104070002062E06C01F0F8FC41EC1A0B284601F0DC
:10408000F3FC41EC100B51EC180B53EC102B01F02E
:10409000A5F853EC1A2B01F0BDFA41EC1A0BA069FC
:1040A00001F0E2FC41EC1C0B284601F0DDFC41EC88
:1040B0001B0B384601F0D8FC53EC182B01F0AAFA80
:1040C00053EC1B2B01F08AF853EC1D2B01F0D6FBAF
:1040D00053EC1C2B01F09EFA94ED200AD4ED1E0A3D
:1040E00041EC1B0B09EEE00A10EE100A01F0BCFCDB
:1040F00053EC1B2B01F0CEFB53EC1A2B00F0BAFF54
:1041000041EC1A0B284601F0AFFC53EC182B01F0E0
:1041100065F853EC1A2B01F07DFA00F079FF254980
:10412000254AFBEE090AB3EE090A60628E4205DDFC
:1041300084ED300A09E084ED2E9A44E6964202D9D5
:10414000C4ED300A01E0C4F8C060884202DD84EDAD
:10415000310A06E0904202D9C4ED310A01E0C4F808
:10416000C40094ED301AC1EE000A30EE891AF6EE62
:10417000000A21EE201A84ED321A94ED311AC1EEB4
:10418000001A31EE890A20EE200A17E0D00E002036
:104190000000F041281100206053002090530020BF
:1041A000DC0F49C07FBDC282FB2119400000000026
:1041B0000000F03F0000C8410000C8C184ED330A90
:1041C000D4ED320A9FED200A204860EE800A026892
:1041D000FDEEE00A10EE901A5163D4ED320A026847
:1041E00079EE600A60EE800AFDEEE00A10EE901AA9
:1041F0009163D4ED330A026860EE800AFDEEE00AB6
:1042000010EE901AD163D4ED330A006879EE600A9B
:1042100020EE800ABDEEC00A10EE101A016494ED83
:10422000040A84ED050A94ED060A84ED070A94ED6C
:10423000080A84ED0A0A94ED090A84ED0B0ABDEC24
:104240000C8BBDE8F081000000400346E00C00202C
:104250009FED4E0B642180ED0E0BC0F8881063219A
:10426000C0F884104B4991ED060A80ED000A91EDEB
:10427000050A80ED010AD1ED030AC0ED020A91EDB5
:10428000010A002180ED2C0AB1EE401A80ED2D1AB2
:1042900020F80C1F9FED401A012220EE010A80EE4B
:1042A000201A9FED3E0ADFED3F0A80ED201A80EDD7
:1042B000210A9FED3B0A9FED3C1B80ED220A80ED19
:1042C000230A80ED240A80ED250A80ED260A80ED80
:1042D000270A80ED280AC0ED190A80ED090A80ED51
:1042E0000A0A80ED1A0A80ED1B0A80ED1C0A80ED97
:1042F0001D0A80ED010A80ED020A80ED030A80EDBF
:10430000040A80ED050A80ED070A80ED060A80EDBB
:10431000080A80ED120A80ED110A80ED150AA0F856
:10432000C41080ED2B0A80ED0F0A80ED100A80ED9D
:104330002D0A80ED2E0A80ED2F0A80ED300A80EDE7
:10434000331B80ED351B80ED371B80ED391B80ED75
:104350003B1B80ED3D1B80ED3F1B80ED411B9FED26
:10436000141B80ED431B9FED141B80ED451B80F853
:104370001C21A0F81E11A0F82211A0F8201180ED38
:10438000160A80ED170A80ED180A70472D431CEBC2
:10439000E2360A3F880E00200AD7233CCDCCCC3D24
:1043A000000000001F856B3F0000000000000000BF
:1043B00000000000000059409A9999999999B93FD5
:1043C00070B53A4C3A4D0026207860B9FFF756F99F
:1043D000606844F62061884202D2401C606002E0BE
:1043E0006660686E18B12078012805D025E0314953
:1043F0000120207081F8880EFFF754F961782E486B
:1044000039B9026841F294115163026840F6D861EB
:104410009163026841F21011516302684FF47C61AC
:104420009163026841F26801D163006801646068C9
:10443000B0F5FA5F1ED2401C60602078032818D1C6
:104440006078D8B1012822D0022828D0032810D0C3
:1044500004280ED178211948FFF78EFC184CA08A49
:10446000401CA082A08A502803D30020FFF770FBD5
:10447000A68270BD032066602070E1E7BDE8704051
:10448000DFED100AB3EE040A0948FFF71FB99FEDEC
:104490000E0A85ED000AB1EE080A85ED020ABDE8B4
:1044A00070400A4A0A490248FCF714BCC00E0020BA
:1044B000C811002078430020E00C0020305200207A
:1044C000B01100200000C84200000000F80F0020DA
:1044D000600F0020034900220A7048704A600A7287
:1044E00070470000C00E00207047000010B500EEBD
:1044F000101A04462DED068BB8EEC00A4248FFF7AD
:10450000F3FABDEEC00A10EE100A00B200EE100A77
:10451000A081D4ED1A0AB8EEC00A30EE608AB7EE78
:10452000000A84ED298A94ED239AD4ED258AC0EE01
:10453000090A94ED260A38EEC01A94ED2B0A00EE13
:10454000810A84ED2A0A10EE100A01F08DFA41EC7E
:104550001A0BD4F8900001F087FA41EC100B94ED9F
:104560000E1B53EC102B51EC110B00F037FE9FED9E
:10457000271B53EC112B01F081F953EC1A2B01F09E
:1045800049F841EC1A0B18EE100A01F06DFA53ECE1
:104590001A2B01F07FF941EC1A0B19EE100A01F009
:1045A00063FA53EC1A2B01F035F841EC190B18EEB5
:1045B000900A01F059FA53EC192B00F05BFD00F062
:1045C00027FD00EE100A84ED270AD4ED2C0AB4EE84
:1045D000E00AF1EE10FA06DCF1EE600AB4EEE00A51
:1045E000F1EE10FA02D2C4ED280A01E084ED280AA7
:1045F00084ED2B8A84ED260A94ED280A84ED250AA1
:10460000BDEC068B10BD00000C5200200000000025
:104610000000F03FFDF7A2BB30B593B030216846F3
:10462000FBF746FF14210CA8FBF742FF1D480025AD
:10463000016841F080510160006800F080501190E5
:104640001948016841F4804101600068022400F4C7
:104650008040119001200090000401908001CDE97C
:10466000064008AA0420A82182E813000B9068469F
:10467000FDF7F8FC08B172B6FEE70CA90F2081E83F
:1046800031004FF4A0500F904FF48050109005214E
:104690000CA8FDF7FDFB002801D072B6FEE713B0B1
:1046A00030BD000040380240007000400248016800
:1046B00041F470010160704788ED00E00148FEF7A9
:1046C0004BB90000E00C00200148FEF745B900009E
:1046D000700D0020F0B50268254C264D264E274F60
:1046E000274B4FF0804CA04209D0604507D0A8422C
:1046F00005D0B04203D0B84201D0984204D122F094
:10470000700E4A6842EA0E02A0421BD0604519D0E2
:10471000A84217D0B04215D0B84213D0984211D059
:10472000184DA8420ED0184DA8420BD0174DA842E4
:1047300008D0174DA84205D0164DA84202D0164DFC
:10474000A84203D122F44075CA682A434D6922F079
:1047500080022A4302608A68C2620A688262A042BA
:1047600001D0984201D10969016301214161F0BD85
:10477000000001400004004000080040000C004020
:104780000004014000400140004401400048014055
:1047900000180040001C00400020004010B501F04F
:1047A0001F030121046A99408C430462016A9A4004
:1047B0001143016210BD10B5846842EA032224F45B
:1047C0007F440A432243826010BD826822F0700257
:1047D0000A4342F00701816070470000F0B5026AA9
:1047E00022F001020262036A42688469124E24F0D8
:1047F00073050C682C4323F002058B682B430D4D89
:10480000A84201D0B04205D123F00807CB683B4352
:1048100023F00403A84201D0B04205D14D6922F42F
:10482000407215438A692A43426084614968416342
:104830000362F0BD0000014000040140F0B5026ACF
:1048400022F010020262026A436884690D6824F44F
:10485000E64444EA05248D6822F0200242EA05126B
:104860000F4D104EA84201D0B04206D1CF6822F0C1
:10487000800242EA071222F04002A84201D0B04270
:1048800007D14D6923F4406343EA85038D6943EA08
:10489000850343608461496881630262F0BD000062
:1048A0000000014000040140F0B5026A22F4807269
:1048B0000262026A4368C46922F4007224F073053C
:1048C0000C68124E2C438D6842EA05220E4DA84218
:1048D00001D0B04206D1CF6822F4006242EA07223A
:1048E00022F48062A84201D0B04207D14D6923F47E
:1048F000405343EA05138D6943EA05134360C461DD
:104900004968C1630262F0BD00000140000401403B
:1049100030B5026A22F480520262046A4268C369B6
:104920000D6823F4E64343EA05238D6824F400541C
:1049300044EA0534084DA84202D0084DA84204D1EB
:104940004D6922F4804242EA85124260C36149689F
:104950000164046230BD0000000001400004014019
:1049600010B5036A046A24F001040462846924F027
:10497000F00444EA021423F00A020A43846102624A
:1049800010BD10B5036A23F0100303628369046A43
:1049900023F4704343EA023224F0A00343EA0111F6
:1049A0008261016210BD000030B4002211464FF454
:1049B000FA6400BF20F8121000EB4203A3F8A21F14
:1049C00041F64475E95203F50053A3F8E61E521C64
:1049D000A242EFDBA0F5BC7000F580400170417091
:1049E00081708180C1800172012230BC11030148B5
:1049F000FDF78EB80008024070B5044600680169F2
:104A0000E26821F44051114301612169A068E26923
:104A100008436169114308432168CA6849F20C637D
:104A20009A430243CA6020684169A26921F4407137
:104A30001143416131492068884202D0304988429F
:104A400002D1FDF7CFFA01E0FDF7BCFAE2690023DD
:104A5000192164253226B2F5004F626828D0A0FBE8
:104A60000101930F9200FBF727FC0146B0FBF5F024
:104A70006FF01802504301EB800006EB0010B0FB12
:104A8000F5F000F0F002B1FBF5F002EB0012B1FB23
:104A9000F5F06FF01803584301EB800006EB0010AF
:104AA000B0FBF5F000F00F0021681044886070BD85
:104AB000A0FB010192185B41FBF7FEFB0146B0FB36
:104AC000F5F00201B1FBF5F06FF01803584301EB6C
:104AD000800006EBC000B0FBF5F000F0F80002EB40
:104AE0004002B1FBF5F0584301EB800006EBC0003B
:104AF000B0FBF5F000F00700D6E700000010014021
:104B0000001401402DE9F041984617460E46044630
:104B1000069D27E0681C25D02DB1FCF7FFFFA0EB18
:104B20000800A8421ED920680C3050E8001F21F46C
:104B3000D07140E80012002AF5D12068143050E806
:104B4000001F21F0010140E80012002AF5D12020C9
:104B500084F83D0084F83E00002084F83C000320E7
:104B6000BDE8F0812068006836EA000004D000202B
:104B7000B842CFD00020F3E70120F9E7FEE70907AC
:104B8000090E002804DB00F1E02080F800147047D3
:104B900000F00F0000F1E02080F8141D70470000C5
:104BA00010B510EE100A00F05FFF9FED071B53ECED
:104BB000112B00F063FE00F02BFABDE8104000EE70
:104BC000100A00F005B800007FBDC282FB21F93F4A
:104BD00070B52E4C304D2DED048BF0EE408A9FEDDC
:104BE0002C9BB0EE688A18EE100AA04210DC18EE7A
:104BF000100AA8420CD221E018EE100A00F034FF8F
:104C000053EC192B00F046FE00F002FA08EE100AF1
:104C100018EE100AA042EFDC0CE000BF18EE100AFC
:104C200000F022FF53EC192B00F024FA00F0F0F909
:104C300008EE100A18EE100AA842EFD29FED170AEC
:104C400028EE000A10EE100A00F00EFF9FED141B74
:104C500053EC112B00F0C2FA00F018FCF5EEC08AFC
:104C60001149F1EE10FA06DB01EBC00090ED000BEC
:104C7000BDEC048B70BDA1EBC00090ED000B51ECBE
:104C8000100B00F0B9F941EC100BF1E7DC0FC94053
:104C90007FBDC282FB211940DC0FC9C00000344334
:104CA0007FBDC282FB210940000000202DED0A8B50
:104CB00082B0FDF75BF8FFF7AFFCFEF757FBB44897
:104CC0000024016841F4800101600068224600F47C
:104CD0008000009021463820FDF7A8F83820FDF725
:104CE00097F8FEF7B7FAFEF7F3FAFEF723FBAA48A8
:104CF000A849AA4E0160C0E901640D14C0E903454A
:104D000044618461C4610462FCF70EFF08B172B6AD
:104D1000FEE7A148A24954300160C0E90164C0E93E
:104D2000034544618461C4610462FCF7FDFE08B17F
:104D300072B6FEE7FEF78AFBFEF704FC9A48994933
:104D40000C2501604FF49651C0E90114C460C0E91C
:104D500004458461C461FEF7A0F808B172B6FEE7AD
:104D6000FEF726FCFEF756FC8F4890494438016058
:104D70004FF4E131C0E90114C460C0E90445846125
:104D8000C461FEF78AF808B172B6FEE7884C0122CA
:104D900008212046FCF7BCFE012210212046FCF72A
:104DA000B7FEFEF76BFC7C480021A830FDF748FFFA
:104DB00079480421A830FDF743FF77480821A8303F
:104DC000FDF73EFF74480C21A830FDF739FF72480B
:104DD000B838FCF747FA7748FBF78CFC6E48A830E8
:104DE000FDF728FC70488C38FDF7E8FB6A483C2149
:104DF000F030FDF769FD6C484430FEF7DFF96D488F
:104E00008830FCF7C3F86C4C67484FF47A7594ED22
:104E1000000B042229468C30FBF7B8FF9FED670B8F
:104E2000614804222946D430FBF7B0FF6548FFF7FC
:104E30000FFA9FED65AB5F48B0EE4A0AF0EE6A0AE2
:104E4000A030FBF701FFDFED628A6D002946B0EE6E
:104E5000680A6048FEF7FEF85E48B0EE680A294628
:104E60006030FEF7F7F85B48B0EE680A29469030EC
:104E7000FEF7F0F894ED00BB51EC1B0B00F0C8F806
:104E800008EE100A9FED549B51EC1B0B53EC192BB1
:104E900000F0C0FB41EC100B53EC102B9FED50BB0E
:104EA00051EC1B0B00F09AF900F020FB81B249484D
:104EB000B0EE480A3038FEF7CDF894ED00CB51EC57
:104EC0001C0B00F0A5F808EE100A53EC192B51EC5E
:104ED0001C0B00F09FFB41EC100B51EC1B0B53EC37
:104EE000102B00F07BF900F001FB81B23948B0EEE5
:104EF000480AC030FEF7AEF83648B0EE680A2946D8
:104F00003030FEF7A7F8B0EE680A32213648FEF7D7
:104F1000A1F83548B0EE680A32213030FEF79AF831
:104F2000B0EE4A0AF0EE6A0A3048FEF71BFD2F4841
:104F3000B0EE4A0AF0EE6A0A9830FEF713FD1D48FB
:104F400094ED000B9838FEF74FFD2248F030FFF744
:104F50002BFD94ED000B51EC100B00F059F801EE15
:104F6000100A18480122DFED220A9FED220A11469D
:104F70002438FEF77BFD0020FFF7ACFA0420FFF792
:104F8000A9FAFEF78FFB00BFFEF798FEFCE70000D2
:104F90003038024000540040380C0020A086010048
:104FA0000058004000480040440E002000440040EB
:104FB0000004024028110020480B002000000000DF
:104FC00000000000305200202D431CEBE2360A3F67
:104FD00017B75138881200200000000000005E4022
:104FE000000000000000F03F60530020600F002030
:104FF0000000C8420000C8C281F00041704780F044
:105000000040704721F00041704720F00040704799
:1050100021F00042A2F16052B2F5801F01F000437E
:1050200028BFD2F17F6C0BD95FEA001C43EAC202B1
:1050300042EB507018BF704728BF20F00100704746
:10504000B2F5801FBCBF184670474FEA410C1CF5F3
:10505000001F02D2084600F07DBD70B500F084FB51
:1050600000000089FFF7F6BF4FF00040A0F5800078
:105070007047000010B591EA030F48BF83F000436A
:1050800000F11084841A71EB030C05D2121943EB62
:105090000C03001B61EB0C01DFF824E14FEA115413
:1050A000A4EB135C1EEA430F18BF9EEA445F73D063
:1050B00023EA0E03DCF1200E21EA045143F48013AD
:1050C00032D322FA0CFE10EB0E0023FA0CFE41EB59
:1050D0000E01CCF1200E03FA0EFE10EB0E0051F182
:1050E0000001B1F5801FCCF1200E32D201EB04514A
:1050F00012FA0EF2BDE8104058BF7047401C38BF8E
:105100005FEA420218BF7047002814BF20F0010078
:1051100041F100014FEA410313F5001F38BF70470A
:10512000A1F1C04100F06EBB012A43EB0302ACF1D8
:10513000200CDCF11F0E32BF4FF0000E23FA0CF3EF
:1051400010EB030041EB0451B4EB115FD0D0A1EBA5
:10515000045101F5801149085FEA300001EB045168
:105160000ED350F1000038BF12FA0EFE08D1BDE890
:105170001040C9E7401C38BF5FEA4202CAD1C3E70A
:10518000BDE810404FEA410313F5001F38BF7047D8
:10519000A1F1C04100F036BB9EEA445F08D011EA9D
:1051A0005E0FBDE8104004BF01F0004100207047D1
:1051B000BDE8104070B500F0D7FA00BF64FBBE3EFA
:1051C0000000E0FF491058BFC1F140415B1058BFDB
:1051D000C3F140438B42EFF3008070472DE9C0419B
:1051E00030B4DFF8A0C23CEA111418BF3CEA131433
:1051F00000F0EC8081EA03051CEA111444EAD5743E
:1052000018BF1CEA131500F0C780A4EB05044FF08B
:10521000004545EAC12145EAC32341EA505143EA2A
:10522000525304F17F74994204F500344FEAC020D0
:105230004FEAC22208BF904200F09C804FEA1365FB
:105240000FF24016765D4FEA134506FB05F7C7F1EE
:10525000807706FB07F74FEAD737A7FB036876424C
:10526000C8F58038A7FB06CE38BFA8F1010807FBB8
:1052700008E64FF0000EA6FB028CE6FB03CEDCF145
:10528000000CCEF1004E38BFAEF1010EA6FB0C585B
:105290004FF000074FF00005E6FB0E87A1FB08C6A4
:1052A000A0FB07CE16EB0E0645F10005E1FB0765F6
:1052B00015F1E04E7EBFA4F580345FEA46066D41ED
:1052C00016F1800745F100054FEA17274FEA0666F9
:1052D00047EA0567A6F1DE46B6F1805F4FEA15257D
:1052E0001FD9384624F0010C05EBC471BCF1FE6FE8
:1052F00001EB0C1102D8F0BCBDE8008124425CBF78
:1053000001F5801E9EEAC47F02D4F0BCBDE8008196
:10531000244238D4F0BCA1F1C041BDE8004100F006
:1053200071BA4FEAD22242EA43524FEAD323A7FB93
:1053300002864FEAD02040EA415007FB03661EEA8E
:105340000E0F4FEAD12105FB026658BFA6EB0056AF
:10535000B6EB00564FEA520E4EEAC37E18EB0E0E25
:1053600056EB530EBDD518EB02085E417F1C55F17C
:105370000005B6E74FF480154FF000074FF0000628
:105380004FF00008ADE7F0BC4FF0000001F1C04164
:1053900001F00041BDE8008111EA0C1F0CEA131571
:1053A00000D00CE013EA0C1F00F025804FF0000045
:1053B000F0BC81EA030101F00041BDE80081F0BCCE
:1053C000BDE8004181EA030100F01CBAF0BCBDE871
:1053D000004170B500F0C8F9097EFC3E00F007B846
:1053E00081EA03014FF0000001F00041704781EABB
:1053F000030100F007BAF0BCBDE800414FF0000027
:1054000021497047FFFDFBF9F7F5F4F2F0EEEDEB03
:10541000E9E8E6E4E3E1E0DEDDDBDAD8D7D5D4D3B2
:10542000D1D0CFCDCCCBCAC8C7C6C5C4C2C1C0BFFE
:10543000BEBDBCBBBAB9B8B7B6B5B4B3B2B1B0AF04
:10544000AEADACABAAA9A8A8A7A6A5A4A3A3A2A1E8
:10545000A09F9F9E9D9C9C9B9A99999897979695A3
:1054600095949393929191908F8F8E8E8D8C8C8B3F
:105470008B8A8989888887878685858484838382C7
:10548000828181800000FF070000F87F4FEA41031E
:105490004FEA5353A3F58063D3F11E03C8BFD3F182
:1054A000210C0CDD4FF0004242EAC12242EA505288
:1054B00032FA03FC8CEAE17CACEBE1707047102B14
:1054C000C4BF0020704703F5787CBCF1FF3F04D0D7
:1054D0006FF0004282EA2100704770B500F044F995
:1054E0004992248000207047F2E700004FEA1153F0
:1054F000A3F58063D3F11E03A8BFD3F1200C08DB12
:105500004FF0004242EAC12252EA505232FA03F00E
:10551000704709420BD4102BC4BF0020704703F51D
:10552000787CBCF1FF3F05D04FF0FF3070474FF063
:105530000000704770B500F017F900BF4992248051
:1055400000207047F0E710F0004248BF4042B0FA38
:1055500080F310FA03F10AD0C3F11D0303F5806351
:105560004FEA415002EB035202EBD12170474FF05A
:1055700000007047B0FA80F310FA03F10AD0C3F1CB
:105580001D0303F580634FEA41504FEA035202EBDB
:10559000D12170474FF000007047000051EA030C22
:1055A00017D41CF5801F58BFBCF5801F00F1068082
:1055B000994218BF704708BF9042704707D711F54E
:1055C000801F58BF13F5801F19D499427047894234
:1055D00070471CF5801F08D5BCF5801FF7D58B429E
:1055E00018BF704708BF824270474FF4001C1CEB85
:1055F000410F38BF1CEB430F01D28B42704770B58F
:1056000000F0B2F8922449004FF000514FF080535F
:10561000FFF7D8BDDFF848C170B51CEA111E1EBFE8
:105620001CEA13159EEA0C0F95EA0C0F00F06F8030
:1056300081EA030423EA4C134EEAD47E21EA4C119A
:1056400041F4801143F48013AE44A1FB024CA0FB53
:105650000365AEF17F7E361955EB0C05A1FB034CBB
:105660004CF10003A0FB021C16EB0C06654153F144
:105670000003094218BF46F0010613F4007F0BD166
:105680004FEA03314FEA0530340341EA155140EA4D
:1056900016506FF003020AE04FEAC3214FEAC5201B
:1056A000F40241EA555140EA56506FF0020202EB13
:1056B0002E4201EB025585EACE710AD05FEA440C16
:1056C00018BF24F0004450F1000041F1000120EA2D
:1056D000D47040F2FE7C624500D270BDA84214BF77
:1056E0004FF080444FF04044002E08BF0024BEF12C
:1056F000806FA8BFA1F1C041BDE8704080F28280F8
:105700004FF0000001F1C04101F0004170479EEAF6
:105710000C0F0CEA131518BF95EA0C0F06D04FF0CA
:10572000000081EA030E0EF0004170BD00F01CF88D
:105730008900013E00F007B800F009B84FEA430CB9
:105740005FEA5C5C08D081EA030100F05BB84FEAD5
:10575000410C5FEA5C5CF6D14FF0000001497047F4
:105760000000FF070000F87F0EF1020E2EF0030E7E
:105770005EF8046B364205D4012A43EB030515F5A8
:10578000001F12D8012841EB010C1CF5001F0CD89A
:105790000ED14FEAD17C15F5001F0CEB4C0C0CF12F
:1057A000020C08BF4CEBD37C04E04FF0080C01E086
:1057B0004FEAD37C0CEB4C0526FA05F606F00706FB
:1057C000B6F1040C06D20EEB860CBDE870404CF02E
:1057D000010C6047DFE80CF0090B02024FF00041BA
:1057E0004FF00000A1F5002170BD194610460128B8
:1057F00051EB010418BFD4F5001484BF002001F060
:10580000004170BD0808A0F500114FEA3101704752
:1058100053EA010C17D41CF5801F58BFBCF5801F3C
:1058200000F106808B4218BF704708BF8242704764
:1058300007D713F5801F58BF11F5801F19D48B426D
:1058400070479B4270471CF5801F08D5BCF5801F30
:10585000F7D5994218BF704708BF904270474FF480
:10586000001C1CEB430F38BF1CEB410F01D29942C7
:1058700070470FB40CBC03BCFFF7C1BE91EA030F25
:1058800010B581F000413FF5FDAB83F0004300F01F
:1058900009B8000010B591EA030F48BF83F0004338
:1058A0003FF5F0AB841A71EB030C07D212198CF0A0
:1058B000004C43EB0C03001B61EB0C01DFF8A4E18F
:1058C0004FEA1154A4EB135C1EEA430F18BF9EEA83
:1058D000445F00F0B08023EA6E03524221EA045193
:1058E000C3EB6E0338BF5B1EDCF1200E25D322FA1A
:1058F0000CFE10EB0E0043FA0CFE41EB0E01CCF156
:10590000200E03FA0EFE10EB0E0051F10001CCF157
:10591000200E29D412FA0EF201EB0451BDE810401A
:1059200058BF7047401C1CBFB2F1004F70470028A1
:105930000CBF491C20F00100704712EB020E43EB34
:10594000030218BF4FF0010E4EEA4202ACF1200CE8
:10595000DCF11E0E54D943FA0CFE10EB0E0051F18F
:10596000FF31CCF11E0ED5D50EF1010E12FA0EFE4E
:10597000404141EB010101EB445C5FEA5C5C10D902
:1059800010EBDE7001EB045138BFBEF1004FBDE8F3
:10599000104018BF704700280CBF491C20F00100C0
:1059A000704730D24FEAD42C11F5001124F4006472
:1059B0001BD0B1FA81F20B3AA41AA41ED2F1200333
:1059C000914030FA03F31943904001EBCC71002C65
:1059D00001EB0451BDE81040A8BF704701F1C04180
:1059E0004FF0000001F000417047B0FA80F310FA68
:1059F00003F100D110BDE41A173C4805C90AE4E7D9
:105A000001EB045110BD491001EB0451BDE81040F9
:105A10004FEA300002E04FF0000170474A0008BF33
:105A20000042F8D0B2F5001F28BF704701F00041D6
:105A30004FF0000070479EEA445F07D011EA5E0F06
:105A4000BDE8104004BF002100207047BDE81040B1
:105A500070B5FFF789FE00BF40DFF63E83F00041DE
:105A6000104670470000E0FF43004FEAD30C4FEAB6
:105A70003C0C43401FBF40070CF1605113F0FE4F38
:105A800070471CF0006F03D100200CF000417047FC
:105A90000CF0004343EA507010B540EACC0000F02F
:105AA0000EF800BF000000924FEA0001FFF7AABE07
:105AB0004FF000414FF00000A1F5002170470EF1BA
:105AC000020E2EF0030E5EF8044B244204D44FEA7B
:105AD0004102B2F17F4F11D84FEA4003B3F17F4F3B
