:020000040800F2
:10000000F84C002031020008913700080730000842
:1000100041370008FD0800081145000800000000F5
:100020000000000000000000000000002D3F00085C
:10003000E10D000800000000253C0008913F000889
:100040004B0200084B0200084B0200084B0200085C
:100050004B0200084B0200084B0200084B0200084C
:100060004B0200084B0200084B0200084B0200083C
:100070004B0200084B0200084B0200084B0200082C
:100080004B0200084B0200084B0200084B0200081C
:100090004B0200084B0200084B0200084B0200080C
:1000A0004B020008394000084B0200084B020008D0
:1000B0004B020008454000084B0200084B020008B4
:1000C0004B0200084B0200084B0200084B020008DC
:1000D0004B0200084B0200084B0200084B020008CC
:1000E0004B0200084B0200084B0200084B020008BC
:1000F0004B0200084B0200084B0200084B020008AC
:100100004B0200084B0200084B0200084B0200089B
:100110004B0200084B0200084B0200084B0200088B
:10012000310D00084B0200084B0200084B0200088A
:100130004B02000800000000000000004B02000815
:100140004B0200084B0200084B0200084B0200085B
:100150004B0200084B0200084B0200084B0200084B
:100160004B0200084B0200084B0200084B0200083B
:100170004B0200084B0200080000000000000000D5
:100180004B0200084B02000800F002F800F041F8B2
:100190000AA090E8000C82448344AAF10107DA45E2
:1001A00001D100F036F8AFF2090EBAE80F0013F0F3
:1001B000010F18BFFB1A43F0010318474C5600000B
:1001C0006C560000103A24BF78C878C1FAD852079C
:1001D00024BF30C830C144BF04680C6070470000C1
:1001E0000023002400250026103A28BF78C1FBD840
:1001F000520728BF30C148BF0B607047642900F028
:10020000F780002070471FB505F063F81FBD10B5DB
:1002100010BD00F0CFF91146FFF7F5FF04F08AF9A1
:1002200000F0EDF903B4FFF7F2FF03BC00F0F0F9C2
:100230000948804709480047FEE7FEE7FEE7FEE77A
:10024000FEE7FEE7FEE7FEE7FEE7FEE704480549B6
:10025000054A064B70470000294000088901000844
:10026000F8460020F84C0020F8480020F84800200C
:1002700053EA020C00F069802DE9F04B4FF00006C4
:10028000002B1FBFB3FA83F503FA05F424FA05F631
:100290005E4012BF1643B2FA82F502FA05F4C5F1C8
:1002A00020051EBF22FA05FC44EA0C04203556EA5C
:1002B000044C4FEA144418BF641C4FF000084FF080
:1002C0000009904271EB030C39D3002919BFB1FA30
:1002D00081F701FA07F6B0FA80F700FA07F6C7F1DE
:1002E00020071EBF20FA07FC46EA0C062037B6FBA3
:1002F000F4FCA7EB0507103F07F01F0BCBF120061E
:100300000CFA0BFB2CFA06F644BFB3460026202F4E
:10031000A4BF5E464FF0000B5BEA060C08BF4FF02F
:10032000010B19EB0B09ABFB027C48EB0608C01B69
:1003300006FB02CC0BFB03CC71EB0C01C1E70B46B7
:10034000024641464846BDE8F08B13B54FF0000029
:100350004FF00001AFF30080BDE81C407047000083
:100360000FB41CB5074B06AA7B446946009005985C
:1003700000F003F90020694600F012F91CBC5DF89A
:1003800014FB0000350200002DE9F0410E46044642
:10039000002020622046E168884730B3252805D038
:1003A000D4E901219047206A401CF2E7E168204629
:1003B00000278847050018D0A5F14100192802D868
:1003C00020354FF400673246294620462760FFF764
:1003D00015FF40B1012804D0F61D26F007060836A7
:1003E000D8E7361DD6E72846DAE7206ABDE8F0816F
:1003F0002DE9F0410646002410687529314616A5FE
:1004000010D0AFF30080002802DA404213A507E0C5
:1004100031688A0701D512A502E0490704D511A564
:10042000012401E0AFF3008000210A2206F1240735
:1004300009E0B0FBF2FCB0FBF2F302FB1C00303031
:1004400078541846491C0028F3D123462A463046E2
:10045000BDE8F04100F032B8000000002D000000BF
:100460002B000000200000004FF0000200B51346F2
:1004700094469646203922BFA0E80C50A0E80C50C4
:10048000B1F12001BFF4F7AF090728BFA0E80C5075
:1004900048BF0CC05DF804EB890028BF40F8042B6E
:1004A00008BF704748BF20F8022B11F0804F18BFDB
:1004B00000F8012B70477047704770472DE9F047EF
:1004C0000D4699469246044600F1240801688806C4
:1004D00004D5E06921F01001216000E00120A8426C
:1004E00001DD471B00E00027A1697A1902EB090032
:1004F000081AA0612078C00602D42046AFF300801D
:10050000002608E0D4E901211AF806009047206A85
:10051000401C761C20624E45F4DB2078C0060AD5CC
:100520002046AFF3008006E0D4E901213020904757
:10053000206A401C2062381EA7F10107F4DC07E0A6
:10054000D4E9012118F805009047206A401C206278
:10055000281EA5F10105F3DC2046AFF300802078CA
:10056000000602D50220BDE8F0870120FBE700006D
:1005700001694A1C02610878704700B58FB0CDE967
:1005800001310021059105497944CDE90310114657
:100590006846FFF7F9FE0FB000BD0000E5FFFFFF62
:1005A0000A6802F8010B0A607047000000487047B3
:1005B000944600207546FFF7F9FFAE4605006946F0
:1005C000534620F00700854618B020B5FFF73EFEE1
:1005D000BDE820404FF000064FF000074FF0000844
:1005E0004FF0000B21F00701AC46ACE8C009ACE8C5
:1005F000C009ACE8C009ACE8C0098D46704710B529
:100600000446AFF300802046BDE81040FFF70ABE65
:1006100001491820ABBEFEE726000200704710B566
:100620000146806B026C12F0500F05D0026CD206AE
:1006300026D500F0D1FC10BD016C41F400710164BD
:1006400001688A6812F0405F17D1027EAAB9CA6AAF
:1006500012F4700F02D08A6852050ED44A6822F054
:1006600020024A60016C21F480710164016CC904AC
:1006700003D4016C41F00101016400F0ABFC10BD3A
:10068000806BC26CBDE810400846104710B5806B07
:1006900040210164416C41F00401416400F09CFC84
:1006A00010BD10B5806B00F096FC10BD70B504460F
:1006B0002DED068B0020014624F81010401C032865
:1006C000FADB00259FED3A0A9FED3AAB84ED060A6E
:1006D0009FED3A0B84ED100B02222146394800F0C1
:1006E000B1FD208804F00AFB94ED108B53EC182B1D
:1006F00004F054FB41EC190BE06904F079FD53EC74
:10070000192B04F07BF804F047F8E061608804F0EE
:10071000F5FA53EC182B04F041FB41EC180B206A5E
:1007200004F066FD53EC182B04F068F804F034F87C
:100730006D1CEDB22062642DCED3D4ED070A9FED7F
:10074000220A80EE801A00EE900A1E4884ED071AF5
:1007500080EE801A84ED081A00F01EFE9FED1B0A41
:10076000DFED1B0A84ED020A84ED030A84ED090A19
:1007700084ED0A0A84ED0C0A84ED0D0AC4ED0F0A1B
:1007800084ED040AF3EE080AC4ED050A84ED0E0AAE
:1007900094ED050A10EE100A04F02AFD53EC1A2B12
:1007A00004F0FCFAC4E91201BDEC068B70BD000038
:1007B0009A995140000000000000303F00000040C6
:1007C00033334A3F380000200000C84200000000D8
:1007D000A4703D3E464910B54A6822F440324A6052
:1007E0004A6843681A434A6001684A6822F4807282
:1007F0004A6001684A68036942EA03224A60016864
:100800004A6822F040724A6001684A6883681A4365
:100810004A6001688A6822F400628A6001688A6816
:10082000C3681A438A60816A6FF07062D1420168BE
:100830008A6822F070628A6001688A680CD0836AD4
:100840001A438A6001688A6822F040528A6001680F
:100850008A68C36A1A4301E022F040528A60016844
:100860008A6822F002028A6001688A68037E42EA8E
:1008700043028A6090F82010002901684A680FD06E
:1008800042F400624A6001684A6822F460424A60A9
:1008900001684A68174C436A04EB43331A4301E08A
:1008A00022F400624A600168CA6A22F47002CA62D5
:1008B0000168CA6A838B104C04EB03531A43CA6263
:1008C00001688A6822F400728A6001688A6890F878
:1008D000303042EA43228A6001688A6822F48062EA
:1008E0008A6001688A68406942EA8020886010BD99
:1008F0000023014000E0FFFF0000F0FFFEE70000E2
:1009000010B5044601462DED028B0222224800F06C
:1009100099FC208804F0F2F994ED108B53EC182B1D
:1009200004F03CFA03F038FF00EE100A84ED020AEE
:10093000608804F0E3F953EC182B04F02FFA03F06D
:100940002BFF00EE100A154884ED030A94ED020A0D
:1009500002F07EFC84ED090A94ED030A0F4802F0D0
:1009600077FC84ED0A0A94ED070AD4ED090A70EECB
:10097000600A94ED0F0A80EE801A84ED0C1AD4ED13
:10098000080A94ED0A1A70EEC10A80EE801A84ED0E
:100990000D1ABDEC028B10BD38000020200700208E
:1009A00090F84120174B1968AAB10968C1F30012E9
:1009B00082621968496A0161A2B1D2B14269914269
:1009C00001DD03681A44511A00EE101AB8EEC00A8D
:1009D00080ED0C0A0FE0496A4161012180F8411065
:1009E000002070474269914201DA03681944891A6C
:1009F000EAE790ED0C0ABDEEC00A10EE100A00B254
:100A000070470000E001002010B504462848016846
:100A10000968C1F30011A1620068406A206194F87E
:100A20004020012A2CD001209FED220A84ED0C0ADF
:100A300084F8400094ED0C0AD4ED0B0A20EE200A55
:100A4000BCEEC00A10EE100AA083A08B00EE100AC4
:100A50001948B8EE400A02F0FBFBBCEEC00A10EEEB
:100A6000100AA083A08B04F049F99FED141B53ECEE
:100A7000112B03F077FFC4E908012069606110BD04
:100A800079B10029D6D06169884201DD226811441C
:100A9000B1EB000000EE100AB8EEC00A84ED0C0ABB
:100AA000C8E76169884201DA22681044401AF1E718
:100AB000E001002000000000F0060020B7627FD9AE
:100AC0003D1923409FED1F1A9FED1F2B80ED001A4B
:100AD00080ED011A80ED021A80ED031A80ED041AF0
:100AE00080ED051A80ED061A80ED071A80ED081AD0
:100AF00080ED091A80ED0A2B80ED0C2B0021A0F867
:100B0000401080ED0E1A80ED0F1AA0F8421080ED13
:100B1000120B80ED142B80ED162B01664166A0F8B8
:100B2000681080ED1C2B8167094980ED1F1A096848
:100B3000C96A89B2A0F880104908A0F88210A0F80C
:100B4000841070470000000000000000000000005A
:100B50009801002070B504466E4815462DED028BB5
:100B60000E46007A70B16C48FFF71AFF03E000BF31
:100B7000B4F840005038A4F84000B4F840005028C1
:100B8000F6D202E00020A4F84000B4F8400024F8B7
:100B9000420F34F8060B614901EBC00090ED000BE9
:100BA00051EC100B03F0F8FD00EE100A04ED040AFE
:100BB00034F8060C5A4901EBC00090ED000B51ECE3
:100BC000100B03F0E9FD00EE100A564804ED030A8D
:100BD00054ED040A90ED0C0A14ED031A20EE200ADD
:100BE000D0ED0D0A00EE810A04ED110A90ED0D0A18
:100BF00054ED040A14ED031A20EE200AD0ED0C0A7D
:100C000000EEC10A04ED0F0A14ED110A10EE100AED
:100C100004F0EEFA14ED120A41EC180B10EE100A73
:100C200004F0E6FA41EC100BB0EE481AF0EE681A48
:100C3000304602F023FF04ED0C0A14ED0F0A10EE0B
:100C4000100A04F0D5FA14ED100A41EC180B10EE5E
:100C5000100A04F0CDFA41EC100BB0EE481AF0EE99
:100C6000681A284602F00AFF04ED0B0A14ED0C0A7C
:100C700054ED040A14ED031A2B4820EE200A54ED1B
:100C80000B0AF7EE001A00EEC10A04ED0A0A14ED91
:100C90000C0A54ED030A14ED041A20EE200A54ED58
:100CA0000B0A00EE810A04ED090A14ED0A1A90ED10
:100CB000020A208FC1EE000A30EEA11A00EE900A5F
:100CC000F8EE600A21EE201AF6EE000A21EE201A54
:100CD000BDEEC11A11EE101A618714ED091A81EEEA
:100CE000002A00EE100AB8EE400A32EE211A21EE78
:100CF000000A20EE200ABDEEC00A10EE100AA087FE
:100D0000618F0A4802685163A18F00688163BDEC5E
:100D1000028B70BD34030020880300206855000852
:100D2000E852000898050020FC02002098010020ED
:100D3000014800F075BC000034460020016818230B
:100D4000CAB2103AB2FBF3F2054B6FF30901032A62
:100D50009B5CC36500D9091D81650846704700008A
:100D6000E857000810B5014600208B698A6A4FF0E9
:100D7000C07453B1B3F5005F15D072B1012A0CD025
:100D8000022A0AD0032A09D104E01AB1012A06D0A6
:100D9000022A03D1C96AC90100D5012010BDC96A60
:100DA000A142FAD010BD002AF7D0012AF2D0022ABF
:100DB000F3D0032AF3D010BD30B50468256825F4BC
:100DC00080252560046863608368402B036803D036
:100DD00099600068C26030BD9A600068C16030BD33
:100DE0007047000070B504462DED028B01FB02F048
:100DF000B0EE408AF0EE608A206084ED028B002520
:100E0000A562A56125616561A5839FED130B84ED46
:100E1000080B9FED130A84ED0C0A84F8405003F090
:100E200056FF53EC182B03F0B9FF41EC100B53ECB9
:100E3000102B9FED0C0B51EC100B03F093FD03F006
:100E4000ABFC9FED0A0BE06284ED0E0B84F8415081
:100E5000BDEC028B70BD000000000000000000002F
:100E6000000000000000000000004E404D463AA87F
:100E700069BC593F72B6FEE70021016041608160A4
:100E80008181C1817047000078B50024009490F8FA
:100E90003C20012A19D0012280F83C200A6807234F
:100EA0000568092A13D9EE680A3A02EB4202934018
:100EB0009E43EE600B788A680A3B03EB43039A403B
:100EC0000368DD682A43DA6010E0022078BD2E69ED
:100ED00002EB420293409E432E610B788A6803EB3B
:100EE00043039A4003681D692A431A614A681F2315
:100EF000072A13D205686E6B521E02EB82029340E2
:100F00009E436E630B790A885B1E92B203EB8303E8
:100F10009A4003685D6B2A435A6327E005680D2AEF
:100F200012D22E6BD21F02EB820293409E432E639D
:100F30000B790A88DB1F92B203EB83039A400368A4
:100F40001D6B2A431A6311E0EE6A0D3A02EB82022E
:100F500093409E43EE620B790A880D3B92B203EBFD
:100F600083039A400368DD6A2A43DA62164B0568F8
:100F7000144A9D4206D10D68122D03D1556845F4DF
:100F80008005556005689D4218D10B68102B01D073
:100F9000112B13D1536843F40003536009681029DF
:100FA0000CD10A490A4A0968B1FBF2F101EB81014F
:100FB000490000E0491E00910029FBD180F83C4027
:100FC000002078BD002301400020014014000020D3
:100FD00040420F0070477047704770B504004FF0F3
:100FE000000503D0206C002610B107E0012070BD81
:100FF000204600F01DF8666484F83C60206CC00652
:1010000010D4206C20F4885040F002002064204668
:10101000FFF7E0FB6664206C20F0020040F0010066
:10102000206400E0012584F83C60284670BD000083
:10103000F0B587B0064614216846FFF715FA3B491C
:10104000394F33680025394814390324384ABB42E4
:101050004FD1036843F480730360006800F480702C
:101060000590086840F001000860086800F0010081
:101070000590086840F004000860086800F004006B
:101080000590086840F0020008600868694600F0B2
:1010900002000590A0208DE83100104600F032FCDF
:1010A00030208DE831006946224800F02BFC009486
:1010B00069462148CDE9014500F024FC204C1F4839
:1010C000C4E900050015A560C4E903504000606153
:1010D0008000C4E906054FF44030C4E90805204605
:1010E00000F06EFB08B1FFF7C5FEB463A66307B05E
:1010F000F0BD144EB342FAD1036843F400730360A9
:10110000006800F400700590086840F00100086075
:101110000868694600F00100059040208DE8310024
:10112000104600F0EFFBE2E70020014044380240A7
:101130000000024000080240000402401064024027
:10114000344600200021014018B50021009190F89C
:101150003C20012A07D0012280F83C2002689368D5
:10116000DB0702D011E0022018BD936843F00103B1
:1011700093602E4A2E4B1268B2FBF3F202EB42024E
:1011800000E0521E0092002AFBD102689368DB0740
:1011900042D0036C40F20164A34343F480730364C0
:1011A00053685B0505D5036C23F4005343F4805367
:1011B0000364036CDB0404D5436C23F0060343642F
:1011C00000E0416480F83C101A496FF0220313607C
:1011D00049680068CA06184906D0884224D1816847
:1011E00011F0405F13D01FE08842F8D0134A9042BC
:1011F00003D1D1F80423D206F1D0114A904213D181
:10120000D1F8041301F01F011029E8D30CE0816824
:1012100041F08041816007E0016C41F01001016400
:10122000416C41F001014164002018BD1400002010
:1012300040420F00002301400020014000210140F6
:1012400000220140F8B5044600200E46009094F8B4
:101250003C10012907D0012184F83C1021688B68DB
:10126000DB0702D011E00220F8BD8B6843F00103D8
:101270008B604049404B0968B1FBF3F101EB410140
:1012800000E0491E00910029FBD121688B68DB0535
:1012900003D58B6823F480738B6021688B68DB0730
:1012A0005DD0236C40F20165AB4343F4807323644B
:1012B0004968490505D5216C21F4005141F480515C
:1012C0002164216CC90404D5616C21F006016164BC
:1012D00000E0606484F83C00A16B2948274DC86396
:1012E000A16B28480864A16B2748C86421686FF087
:1012F000220008602068416841F0806141602068F8
:10130000816841F4807181602168134632464C3116
:10131000A06B00F0BFFA68681C49C006206806D0C0
:10132000884224D1816811F0405F13D01FE08842C9
:10133000F8D0174A904203D1D1F80423D206F1D055
:10134000144A904213D1D1F8041301F01F0110295F
:10135000E8D30CE0816841F08041816007E0206CB7
:1013600040F010002064606C40F0010060640020D8
:10137000F8BD00001400002040420F00002301408F
:101380001F060008A30600088D0600080020014083
:10139000002101400022014010B50446002094F8CD
:1013A0003C1001290CD0012184F83C1021688A6886
:1013B00022F001028A6021688A68D20702D01DE00B
:1013C000022010BD8A6822F480728A60A16B91F8B5
:1013D0003520022A07D1084600F0D8F818B1216C50
:1013E00041F04001216421684A6822F080624A602D
:1013F000216C21F4885141F001012164002184F81D
:101400003C1010BD70B5040003D094F8200010B15A
:1014100004E0012070BD204600F082F820680168D9
:1014200041F00101016000F073FB0546052604E070
:1014300000F06EFB401B0A2811D820684068C007E6
:10144000F6D02068016821F00201016000F060FB25
:1014500005460BE000F05CFB401B0A2806D9606AD9
:1014600040F40030606284F82060D2E72068406871
:101470008007EFD4207E0128206801683DD021F04C
:1014800080010160607E01282068016838D021F069
:1014900040010160A07E01282068016833D021F05E
:1014A00020010160E07E0128206801682ED041F013
:1014B00010010160207F01282068016829D021F0F7
:1014C00008010160607F01282068016824D021F0B4
:1014D00004010160D4E902010843D4E90412114374
:1014E00008436168491E08432168C86100206062A2
:1014F000012084F82000002070BD41F08001C0E789
:1015000041F04001C5E741F02001CAE721F0100198
:10151000CFE741F00801D4E741F00401D9E700002A
:1015200010B586B0044614216846FEF79DFF1449A5
:101530002068884221D113480021026842F00072DD
:101540000260006800F0007005900E4810380268D4
:1015500042F002020260006800F0020005904FF4C1
:10156000407000900220CDE9010103200390092082
:1015700004906946044800F0C5F906B010BD0000AB
:101580000064004040380240000402402DE9F04170
:101590000446876D00F0BCFA064694F83500002535
:1015A000022806D08020606584F834500120BDE810
:1015B000F0812068016821F016010160206841690E
:1015C00021F080014161206C08B9A06C20B1206835
:1015D000016821F0080101602068016821F0010123
:1015E00001600CE000F094FA801B052807D9202048
:1015F0006065032084F8350084F83450D7E720680C
:101600000068C007EED194F85C103F208840B860B5
:10161000012084F8350084F834500020C7E700002A
:101620002DE9F84304464FF00009CDF800906348D7
:101630004FF41651A56D0068B0FBF1F72E6894F8D1
:101640005C10082000FA01F131420FD021680A68CD
:1016500052070BD50A6822F004020A6094F85C1065
:101660008840A860606D40F00100606594F85C10EF
:101670004FF0010808FA01F0304208D021684969AA
:10168000090604D5A860606D40F00200606594F81A
:101690005C1004208840304208D02168096889071E
:1016A00004D5A860606D40F00400606594F85C109B
:1016B00010208840304218D021680968090714D5E5
:1016C000A86020680168490304D50068000308D5B4
:1016D000A16C07E00168C90503D4016821F0080185
:1016E0000160216C09B12046884794F85C102020E5
:1016F0008840304231D021680968C9062DD5A860DC
:1017000094F8350005282068016806D0490347D5BC
:10171000006800031DD4616C1CE021F0160101601B
:101720002068416921F080014161206C08B9A06CFA
:1017300020B12068016821F00801016094F85C1074
:101740003F208840A86084F8358084F83490216D6B
:101750001FE0E16B09B120468847606D00282BD05F
:10176000606DC00714D0052084F83500206801683A
:1017700021F0010101600098401C0090B84203D89C
:1017800020680068C007F6D184F8358084F834906A
:10179000E16C002910D001B02046BDE8F0430847B5
:1017A0000168C905D5D4016821F01001016084F8F1
:1017B000358084F83490CCE7BDE8F883140000202D
:1017C0002DE9F041044600F0A3F906465CB1022081
:1017D00084F83500002584F834502068016821F031
:1017E000010101600DE00120BDE8F08100F090F9F9
:1017F000801B052805D920206065032084F835006A
:10180000F2E720680068C007F0D12268116820481C
:101810000140D4E901031843D4E9033633431843A4
:1018200063691843A3691843E3691843236A18439B
:101830000843616A042903D1D4E90B13194308430F
:10184000106020684069666A20F0070130460E4348
:10185000012704280CD1A06A0643E06A40B1204663
:10186000FFF780FA20B14020606584F83570BAE750
:10187000206846612046FFF761FA94F85C203F211A
:1018800091408160656584F835700020ACE7000008
:101890003F8010F02DE9F0410446866D90F8340049
:1018A000002501280DD0012084F8340094F835700B
:1018B0000020012F07D084F8340002252846BDE817
:1018C000F0810220FBE7022784F83570606520462E
:1018D000FFF772FA94F85C103F208840B0602068EF
:1018E000016841F016010160206C20B12068016898
:1018F00041F0080101602068016841F001010160C8
:10190000DCE700002DE9F84FDFF8BCA1002201253B
:1019100003264FF00F090AF1040BAAF1040E00BFD1
:101920000B6805FA02F42340A34270D10F7907F047
:101930000307012F01D0022F16D187684FEA420812
:1019400006FA08FC27EA0C07D1F80CC00CFA08FCD0
:101950004CEA070CC0F808C04768A7430C79C4F3E9
:10196000001494403C4344600C79E443A4070AD03B
:10197000C4684FEA420C06FA0CF7BC438F6807FABA
:101980000CF72743C7600C7904F00304022C12D132
:10199000D40800EB840CDCF820405707FF0E09FA4E
:1019A00007F824EA0804D1F8108008FA07F848EA92
:1019B0000408CCF8208004684FEA420C06FA0CF7C1
:1019C000BC430F7907F0030707FA0CF727430760BA
:1019D0004C6814F4403F70D03C4C276847F4804773
:1019E0002760246822F0030704F480440094384CF4
:1019F00007EB040CDCF8084897074FEA177809FA58
:101A000008F7BC43334FB84202D1002724E054E02A
:101A1000314FB84201D101271EE0304FB84201D109
:101A2000022719E02E4FB84201D1032714E02D4FB1
:101A3000B84201D104270FE02B4FB84201D105274E
:101A40000AE02A4FB84201D1062705E0284FB842E4
:101A500001D1072700E0082707FA08F72743CCF849
:101A60000878DAF800405746D1F804C09C435FEA92
:101A7000CC2C00D51C433C60DBF800405F46D1F81D
:101A800004C09C435FEA8C2C00D51C433C60DEF80C
:101A900000407746D1F804C09C435FEA8C3C00D5F7
:101AA0001C433C60084F083F3C68D1F804C09C438D
:101AB0005FEACC3C00D51C433C60521C102AFFF46A
:101AC0002FAFBDE8F88F0000083C014044380240C9
:101AD00000300140000002400004024000080240C3
:101AE000000C0240001002400014024000180240A6
:101AF000001C0240426921EA02030A4043EA024113
:101B0000816170470AB1816170470904FBE70000F9
:101B100001488068704700000800002070B504008C
:101B200025D094F83D00002520B984F83C5020468B
:101B300000F0B8F8242084F83D002068016821F006
:101B4000010101602068016841F4004101602068E2
:101B5000016821F40041016000F02EFA4D4A6168ED
:101B6000914201D84C4900E04C49884201D2012001
:101B700070BD4B492368B0FBF1F15E6826F03F066B
:101B80000E435E606368934206D94FF496735943DF
:101B90004FF47A73B1FBF3F12368491C1E6A26F0F7
:101BA0003F06314319626168914210D84900401ED6
:101BB000B0FBF1F2521CC2F30B02042A01D2042042
:101BC00022E0B0FBF1F0401CC0F30B001CE0A26867
:101BD000F2B301EBC10303EB0116431EB3FBF6F3B3
:101BE0005B1C43F480431B0549D092B301EBC10257
:101BF00002EB0111401EB0FBF1F0401CC0F30B00E2
:101C000040F4804040F400402168CA694CF6FF73FC
:101C10009A431043C861D4E9071001432068026861
:101C200022F0C00211430160D4E90301014320689E
:101C3000826848F2FF339A4311438160D4E9050179
:101C400008432168CA6822F0FF021043C86001E01F
:101C50000EE016E02068016841F001010160256492
:101C6000202084F83D00256384F83E50002070BD9C
:101C700001EB4106431EB3FBF6F35B1CB3E7012007
:101C8000C2E701EB4101401EB0FBF1F0401CC0F384
:101C90000B00B7E7A086010080841E0000093D000C
:101CA00040420F00F0B587B0044614216846FEF7A5
:101CB000DBFB2768234CDFF888C000222149122370
:101CC0000325042620481034674518D10F6847F0D3
:101CD00002070F60096802AF01F002010591C021FF
:101CE000CDE9001387E864006946FFF70BFE206822
:101CF00040F400102060206800F400101CE0DFF8C1
:101D00004CC0674519D10F6847F002070F6009689A
:101D100002AF01F0020105914FF44061CDE90013DB
:101D200087E864006946FFF7EDFD206840F4800015
:101D30002060206800F48000059007B0F0BD00002E
:101D40000054004030380240000402400058004077
:101D500002488168027811448160704708000020C1
:101D60000B4810B5016841F400710160016841F44D
:101D700080610160016841F480710160032000F01E
:101D80006FF80F2000F006F800F024F8002010BDD6
:101D9000003C024070B50D4D04464FF47A7128782E
:101DA000B1FBF0F00A490968B1FBF0F000F00CFB60
:101DB00048B9102C07D200222146501E00F030F8FE
:101DC00000206C6070BD012070BD00000800002084
:101DD000140000200A4808B5016841F48041016000
:101DE000006800F4804000900548001F016841F041
:101DF00080510160006800F08050009008BD000034
:101E000044380240002809DB00F01F020121914004
:101E10004009800000F1E020C0F800117047000088
:101E2000F0B40E4B1B680C46C3F30223C3F1070545
:101E3000042D00D90425191D072901D2002300E033
:101E4000DB1E012606FA05F1491E214099409E40FD
:101E5000761E16403143F0BC02F05BBB0CED00E097
:101E6000064900F0070208684FF6FF03184040EAF1
:101E70000220034A10430860704700000CED00E0A8
:101E80000000FA052DE9F0470E46050065D0DFF8A1
:101E90001481D8F80000F7B200F00700B04207D272
:101EA00088F80070D8F8000000F00700B04254D164
:101EB00028683D4C810712D5400703D5206840F4BF
:101EC000E05020602878000703D5206840F4604087
:101ED00020602068A96820F0F0000843206028787E
:101EE000C0072DD0304968680839012812D002286F
:101EF00013D0032811D00968890700292DDA216839
:101F000021F0030101432160FFF702FE814641F207
:101F1000883A0EE009688903EFE709688901ECE770
:101F2000FFF7F6FDA0EB0901514502D90320BDE8FA
:101F3000F0872068696800F00C00B0EB810FEFD1EA
:101F4000D8F80010404601F00701B14207D90770E8
:101F5000006800F00700B04201D00120E7E72878D0
:101F6000400705D52068E96820F4E0500843206068
:101F70002878000706D52068296920F4604040EAE7
:101F8000C100206000F038F82168084AC1F303114D
:101F9000515CC8400649086006480068FFF7FAFE31
:101FA0000020C4E7003C024008380240F057000817
:101FB000140000200C00002004480549006809684E
:101FC000044AC1F38221515CC840704714000020CC
:101FD00008380240005800080448054900680968AC
:101FE000044AC1F34231515CC840704714000020DC
:101FF0000838024000580008154810B5006810F075
:102000000C02144813D01449042A0FD0082A0ED108
:102010000F4C241F2268236802F03F025B0207D5A1
:102020002068C0F38810A0FB010106E0084610BD3F
:102030002168C1F38811A1FB00010023FEF718F904
:102040002168C1F30141491C4900B0FBF1F010BD0A
:10205000083802400024F40040787D012DE9F84F53
:1020600004006ED02078DFF84C93C007A9F1040576
:102070004AD009F104000168C1F38101012908D0A7
:102080000068C0F3810002280AD1D9F8000040029C
:1020900006D52868800337D560680028E1D033E092
:1020A0006068B0F5803F10D0B0F5A02F286810D040
:1020B00020F480302860286820F480202860606840
:1020C000A8B1FFF725FD06460DE0286840F48030F2
:1020D000F4E740F480202860F7E700BFFFF718FD21
:1020E000801B642873D828688003F7D50CE0FFF7BD
:1020F0000FFD064605E000BFFFF70AFD801B6428C0
:10210000F0D828688003F7D42078DFF8AC82800705
:102110004FF0000A3ED5A748001D016811F00C0FD2
:1021200008D00068C0F3810002280BD1D9F8000064
:10213000400207D42868800716D5E068012800D13E
:1021400012E033E1E068B8B10120C8F80000FFF701
:10215000DFFC064605E000BFFFF7DAFC801B022823
:10216000C0D828688007F7D52868216920F0F800D2
:1021700040EAC10028600DE0C8F800A0FFF7C8FCE5
:10218000064604E0FFF7C4FC801B02281FD828681D
:102190008007F7D42078000722D5864F87486169E9
:1021A000703771B101210160FFF7B2FC064604E00F
:1021B000FFF7AEFC801B022809D838688007F7D5E6
:1021C0000EE0C0F800A0FFF7A3FC064605E082E0A1
:1021D000FFF79EFC801B02287DD838688007F7D463
:1021E0002078400768D5DFF8CCB100270BF13C0B15
:1021F000DBF80000C0000BD4DBF8001041F0805188
:10220000CBF80010DBF80000012700F080500090B0
:102210006B4E3068C00510D4306840F48070306078
:10222000FFF776FC009005E0FFF772FC0099401A7A
:10223000022850D83068C005F6D55E4EA0686C36CE
:1022400001280FD00528306810D020F00100306040
:10225000306820F004003060A068B8B1FFF758FC87
:1022600000900FE0306840F00100F4E740F0040017
:102270003060F7E7FFF74CFC0099411A41F28830D3
:10228000814266D830688007F4D50EE0FFF740FC45
:10229000009007E0FFF73CFC0099411A41F28830BA
:1022A000814256D830688007F4D42FB1DBF8001093
:1022B00021F08051CBF80010A069C8B33D49091D39
:1022C0000968C1F3810102294AD00228504607D08B
:1022D000C8F8600000E03CE0FFF71AFC04463BE071
:1022E0004746C8F86000FFF713FC064605E000BF4C
:1022F000FFF70EFC801B02282BD828688001F7D43A
:10230000D4E907010843A16A2E4A490802EB0141BA
:10231000626A41EA8211084394F82C1040EA016194
:10232000C9F8001001203866FFF7F2FB044606E00A
:102330003EE000BFFFF7ECFB001B022809D828682D
:102340008001F7D534E000BFFFF7E2FB001B022855
:1023500002D90320BDE8F88F28688001F4D427E073
:102360000128F7D0D9F80000E26900F48001914219
:102370001CD1226A00F03F01914217D147F6C0718B
:10238000626A0140B1EB821F10D1A26A4FF0FF33A5
:1023900000F4403103EB5202B1EB024F06D194F846
:1023A0002C1000F07060B0EB016F01D00120D1E77C
:1023B0000020CFE70438024000004742800E474229
:1023C000007000400000FFFF10B5401EB0F1807F9C
:1023D00001D3012010BD4FF0E02460610F21601790
:1023E00002F097F80020A06107202061002010BDB6
:1023F0007047704710B590F83C20012A22D0012286
:1024000080F83C20CA688C6822F4407222434C68F1
:1024100022F4806222430C6822F4006222430C6999
:1024200022F4805222434C6922F400522243C969AB
:10243000002322F480420A4301684A6480F83C3059
:10244000002010BD022010BD70B590F83C20012A7C
:1024500032D0012480F83C40022280F83D200368FD
:102460005A689D6822F070060A6832435A60134B1E
:1024700002689A4214D0B2F1804F11D0104B9A42A8
:102480000ED0104B9A420BD00F4B9A4208D00F4BF4
:102490009A4205D00E4B9A4202D00E4B9A4204D17A
:1024A000496825F080031943916080F83D40002180
:1024B00080F83C10084670BD022070BD000001404D
:1024C0000004004000080040000C004000040140EF
:1024D000004001400018004010B50446022249B1F6
:1024E00004290ED0082913D094F84500012816D0ED
:1024F000012010BD94F842000128F9D184F842204F
:102500000FE094F843000128F2D184F8432008E05A
:1025100094F844000128EBD184F8442001E084F8C9
:1025200045200422206801F004FE2068416C41F43B
:102530000041416411492068884214D0B0F1804FB5
:1025400011D00F4988420ED00E4988420BD00E4957
:10255000884208D00D49884205D00D49884202D0F2
:102560000C49884204D1816801F00701062903D093
:10257000016841F001010160002010BD0000014030
:102580000004004000080040000C0040000401402E
:10259000004001400018004010B5040003D094F83A
:1025A0003D0010B107E0012010BD002084F83C0080
:1025B000204600F01FF8022084F83D00211D20680D
:1025C00001F046FD012084F8460084F83E0084F8BE
:1025D0003F0084F8400084F8410084F8420084F809
:1025E000430084F8440084F8450084F83D0000204E
:1025F00010BD000008B501681A4881420FD11A4881
:10260000016841F0010101600068002200F0010052
:10261000009001211920FFF703FC192012E0124855
:10262000124A001F914211D1016841F0020101607C
:102630000068002200F00200009011461D20FFF704
:10264000EFFB1D20BDE80840FFF7DCBB084A9142C4
:1026500007D1016841F008010160006800F008003E
:10266000009008BD000001404438024000040040D2
:10267000000C004090F83D10012901D00120704766
:10268000022180F83D1000681149884214D0B0F151
:10269000804F11D00F4988420ED00F4988420BD08D
:1026A0000E49884208D00E49884205D00D4988421B
:1026B00002D00D49884204D1816801F00701062942
:1026C00003D0016841F00101016000207047000063
:1026D000000001400004004000080040000C0040E1
:1026E00000040140004001400018004090F83D10F7
:1026F000012901D001207047022180F83D100168B6
:10270000CA6842F00102CA6000681149884214D0C8
:10271000B0F1804F11D00F4988420ED00E49884247
:102720000BD00E49884208D00D49884205D00D498A
:10273000884202D00C49884204D1816801F0070127
:10274000062903D0016841F00101016000207047B3
:10275000000001400004004000080040000C004060
:1027600000040140004001400018004070B50446DC
:1027700090F83C000025012817D0012684F83C6021
:10278000022084F83D002068826822F0770222F45B
:102790007F4282600868502838D00DDC20284FD056
:1027A00005DC90B3102811D14AE0022070BD30281A
:1027B00046D040280AD13BE060282FD070280DD0A9
:1027C000B0F5805F03D0B0F5005F12D0012584F82A
:1027D0003D60002084F83C00284670BDCB68D1E9FC
:1027E0000121206801F0B2FC2068816841F0770186
:1027F00009E0CB68D1E90121206801F0A7FC20683D
:10280000816841F480418160E1E719E0CA68496864
:10281000206801F06FFD5021206806E0CA68496811
:10282000206801F078FD6021206801F099FCCEE776
:10283000CA684968206801F05DFD40212068F4E71E
:10284000226801461046F0E72DE9F0410D460400EC
:1028500003D094F83D0018B108E00120BDE8F081F4
:10286000002084F83C00204600F040F8022084F864
:102870003D002068816844F2070291438160211D78
:10288000206801F0E5FB226890689169166A2B6860
:10289000AF69034340F20330814341EA0721A8684E
:1028A000EF6908434FF6FC418843E96840EA072096
:1028B000014328692F6A000140EA0730084369682C
:1028C0006D6926F0AA0646EA051529439360226839
:1028D000906154F8460B0162012004F81F09E0756D
:1028E0002076E0762077A0750020B7E710B586B097
:1028F000044614216846FDF7B7FD2068B0F1804F0B
:102900001FD111480021026842F0010202600068F4
:1029100000F0010005900C481038026842F00102F6
:102920000260006800F00100059003200090022082
:10293000CDE901010120CDE9031069460348FEF706
:10294000E1FF06B010BD0000403802400000024028
:1029500070B590F83E60044690F83F5090F84230D1
:1029600090F84320022021B104290ED0012E1BD162
:1029700014E0012E18D1012B16D184F83E0084F802
:10298000420001220021206820E0012D0CD1012A03
:102990000AD184F83F0084F8430014E0012D03D1EC
:1029A000012B01D1012A01D0012070BD84F83E0025
:1029B00084F83F0084F8420084F84300012200219B
:1029C000206801F0A9FB01220421206801F0A4FB8A
:1029D0002068016841F001010160002070BD70476E
:1029E00070B50446006801694FF00005C9438907C6
:1029F00015D4C168C943890711D4E91E01610120BA
:102A00002077206880698007204602D0FFF7E7FF23
:102A100004E000F0D9F8204600F06BF92577206833
:102A20000169C943490717D4C168C943490713D489
:102A30006FF004010161022020772068806910F4A2
:102A4000407F204602D0FFF7CAFF04E000F0BCF848
:102A5000204600F04EF9257720680169C94309072F
:102A600016D4C168C943090712D46FF00801016187
:102A7000042020772068C0698007204602D0FFF735
:102A8000AEFF04E000F0A0F8204600F032F9257710
:102A900020680169C943C90617D4C168C943C9067A
:102AA00013D46FF010010161082020772068C069FD
:102AB00010F4407F204602D0FFF791FF04E000F0C1
:102AC00083F8204600F015F9257720680169C9438D
:102AD000C90708D1C168C943C90704D1891E01616A
:102AE000204600F06BF920680169C943090609D442
:102AF000C168C943090605D46FF080010161204611
:102B0000FFF776FC20680169C943490609D4C1680A
:102B1000C943490605D46FF040010161204600F029
:102B2000B1F920680169C94389060BD4C168C9435A
:102B3000890607D46FF0200101612046BDE870408E
:102B4000FFF757BC70BD000070B586B00446142175
:102B50006846FDF789FC18492068884229D1174842
:102B60000024016841F002010160016801F00201E6
:102B70000591016841F0010101600068022500F043
:102B8000010005904FF4C0400090CDE901540126AA
:102B9000CDE9034669460A48FEF7B4FE4FF440709B
:102BA0000090CDE90154CDE9034669460548FEF79A
:102BB000A9FE06B070BD00000000014030380240A0
:102BC0000004024000000240704770B5044690F8CF
:102BD0003C0000260D4601280FD0012084F83C005F
:102BE0006AB1042A1DD0082A2FD00C2A3FD0012612
:102BF000002084F83C00304670BD022070BD206883
:102C000001F0B6FA2068816941F00801816120680D
:102C1000816921F004018161206881692A69114379
:102C200011E0206801F0D4FA2068816941F4006164
:102C300081612068816921F48061816120688169F6
:102C40002A6941EA02218161D2E7206801F0F6FA9F
:102C50002068C16941F00801C1612068C16921F0A3
:102C60000401C1612068C1692A69114311E020682B
:102C700001F018FB2068C16941F40061C16120685E
:102C8000C16921F48061C1612068C1692A6941EA92
:102C90000221C161ACE710B5040003D094F83D00F7
:102CA00010B107E0012010BD002084F83C00204650
:102CB00000F01EF8022084F83D00211D206801F07C
:102CC000C7F9012084F8460084F83E0084F83F00EC
:102CD00084F8400084F8410084F8420084F84300FE
:102CE00084F8440084F8450084F83D00002010BDBD
:102CF0007047704710B50446022249B104290ED02E
:102D0000082913D094F84100012816D0012010BDE5
:102D100094F83E000128F9D184F83E200FE094F8A1
:102D20003F000128F2D184F83F2008E094F84000E9
:102D30000128EBD184F8402001E084F841200122F1
:102D4000206801F0E9F916492068164A884201D046
:102D5000904203D1436C43F40043436420688842AB
:102D600013D0B0F1804F10D00F4988420DD00F49D9
:102D700088420AD00E49884207D0904205D00D49BA
:102D8000884202D00C49884204D1816801F00701D1
:102D9000062903D0016841F001010160002010BD47
:102DA0000000014000040140000400400008004011
:102DB000000C004000400140001800402DE9F041A7
:102DC0002A49064600680968294F0025294C88428F
:102DD00023D104F11000284990ED030A10EE100AE7
:102DE000884206DD00F0AEFC002210213846FEF7D6
:102DF00089FE6068401C60606068022806D36560D8
:102E00001C485038FDF77CFD01F00EF82068401C8E
:102E100020602068282800D325601449306890314C
:102E2000096888421FD11548017803291BD14078D1
:102E3000022818D1E089401CE081E089142812D3CF
:102E4000E5810E480C30FDF7DFFD0A499FED0C0AC5
:102E5000E83901F1F80000F0B3FF3846BDE8F04171
:102E60000821FEF747BEBDE8F08100009801002070
:102E700000040240E80500200000B04034030020B8
:102E80000000F042704770B5040004D094F83D0093
:102E9000002510B106E0012070BD84F83C502046AA
:102EA00000F022F8242084F83D002068C16821F455
:102EB0000051C160204601F069FA2068016921F4DF
:102EC000904101612068416921F02A014161206837
:102ED000C16841F40051C1602564202084F83D00A0
:102EE00084F83E00002070BD10B586B00446142161
:102EF0006846FDF7B9FA14492068884221D1134881
:102F00000021026842F480220260006800F4802000
:102F100005900E481038026842F004020260006812
:102F200000F0040005904FF4406000900220CDE9CD
:102F30000101032003900720049069460448FEF72E
:102F4000E1FC06B010BD00000048004040380240DF
:102F5000000802402DE9F843044690F83D001F4662
:102F600016460D4620284CD1C5B1BEB194F83C00A0
:102F7000012846D0012084F83C004FF00008C4F836
:102F80004080212084F83D00FEF7C2FDA6848146E2
:102F9000E684A068B0F5805F03D004E00120BDE8BE
:102FA000F883206928B12E465FF0000584F83C8044
:102FB0000EE00026FAE78021204601F06DFAA0B964
:102FC000AEB116F8010B21684860E08C401EE08429
:102FD000E08C4B464FF0000200970028EBD14FF0F9
:102FE0004001204601F058FA30B10320D7E735F808
:102FF000020BC0F30800E6E7202084F83D00002023
:10300000CDE70220CBE7FEE710B504462DED068B99
:1030100053EC112B51EC100B02F000F841EC190BA2
:1030200084ED049B94ED220B94ED1E8B53EC102B3E
:1030300051EC180B01F0F2FFD4ED020AB7EE001AC2
:1030400041EC1A0B81EE200A10EE100A02F0D0F8C3
:1030500053EC1A2B01F0A2FE94ED061B53EC112B3E
:1030600001F0CCFB41EC1A0B84ED0AAB606802F076
:10307000BFF841EC100B94ED241B53EC102B51ECDA
:10308000110B01F06FFC9FED281B53EC112B01F08D
:10309000B9FF53EC1A2B01F081FE53EC192B01F010
:1030A000B1FF41EC190B206802F0A2F853EC192B88
:1030B00001F074FE53EC182B01F0A0FB41EC100B57
:1030C00084ED200B94ED181B53EC112B01F064FFE1
:1030D00002D294ED180B0FE094ED1A1B94ED200B27
:1030E00053EC112B51EC100B01F01CFE02D294EDAD
:1030F0001A0B01E094ED200B84ED1C0B94ED040BF6
:1031000084ED060B94ED200B84ED220B94ED1C0B4B
:1031100084ED1E0B51EC100B01F03EFBBDEC068B59
:1031200000EE100A10BD0000000000000000F03F9B
:1031300010B500EE901A2DED088BB0EE408AF8EE37
:10314000600A0446C0ED010A80ED008A10EE900A84
:1031500002F04EF841EC190B18EE100A02F048F894
:103160009FED341B53EC112B01F018FE53EC192B7F
:1031700001F014FE41EC100B53EC102B9FED2F0BC4
:1031800051EC100B01F0EEFB01F006FB08EE100A0B
:10319000B7EE000AF0EE000A38EE009A08EE200AB8
:1031A00084ED068A69EE098A18EE900AC0EE280AB4
:1031B000C4ED020A02F01CF841EC1B0B18EE100AD9
:1031C00002F016F89FED1FAB53EC1A2B01F0E6FD51
:1031D00053EC1B2B01F0C6FB01F0DEFAE06019EEA8
:1031E000100A02F005F841EC190B18EE100A01F074
:1031F000FFFF53EC1A2B01F0D1FD53EC192B01F01A
:10320000B1FB01F0C9FA28EE080A2061C0EE280AD5
:103210009FED0E0AC4ED050A84ED070A84ED080A45
:1032200084ED090A84ED0A0A84ED0B0ABDEC088BD3
:1032300010BD00001F85EB51B81E194000000000B2
:103240000000F03F00000000000000C0000000008F
:10325000F0EE400AC0ED0A0A90ED040A90ED081A5B
:10326000D0ED051A90ED092A20EE410A01EEC20ABE
:10327000D0ED021A90ED0B2A01EEA00AD0ED031A50
:1032800001EE820A80ED070A80ED091A80ED080A36
:10329000C0ED0B0A7047000010B5B3EE080A80EDD0
:1032A000000A80ED020AB1EE080A80ED010A9FEDE6
:1032B000160A044680ED030A9FED140B51EC100B27
:1032C00001F06AFA9FED130A206184ED050A9FED73
:1032D000120A84ED060A9FED110A84ED090A9FED9A
:1032E000100A84ED0B0A9FED0F0A84ED080A9FED8A
:1032F0000E0A84ED0A0AB2EE010A84ED070A9FED78
:103300000B0A84ED0D0A10BD00000243B670F4F7FD
:10331000243A2B407CF2B03B14AE073F96438B3BE4
:1033200059D90034000048429A99593E6666E63FF2
:103330007FB500241B48009401940294184903941B
:10334000016001254FF480310561C0E90114047664
:1033500080F820401449C0E90A140226C661C460FE
:1033600080F830404461FDF738FE08B172B6FEE7E0
:103370000920CDE90005694602940A48FDF784FD5D
:1033800008B172B6FEE70820CDE900066946054897
:10339000FDF77AFD002801D072B6FEE77FBD000080
:1033A00000200140380000200100000F7FB50024FC
:1033B00015480094019402941249039401604FF45B
:1033C0008031C0E901140461047680F820400F497F
:1033D000C0E90A140125C561C46080F83040456128
:1033E000FDF7FBFD08B172B6FEE70620CDE900054A
:1033F000694602940448FDF747FD002801D072B6E3
:10340000FEE77FBD00210140800000200100000F89
:103410000C4810B50A49016010214160002181600B
:10342000C16001614161017641768176C1760177A3
:103430004177FDF7E7FF002801D072B6FEE710BD27
:1034400000640040C80000202DE9F04387B014213B
:103450006846FDF709F831480024016841F004018D
:103460000160016801F004010591016841F08001EB
:103470000160016801F080010591016841F00101DE
:103480000160016801F001010591016841F002014C
:1034900001600068DFF8888000F0020048F218063A
:1034A0000590002231464046FEF72CFBDFF8749071
:1034B0004FF49857002239464846FEF723FB4FF455
:1034C000C04001258DE8310069464846FEF71AFAEA
:1034D00048F2C000CDE90004694648460294FEF770
:1034E00011FA4FF48150CDE9000469464046029438
:1034F000FEF708FA0096CDE9015469464046039468
:10350000FEF700FA0097CDE9015469464846039456
:10351000FEF7F8F907B0BDE8F0830000303802404C
:10352000000402400008024010B596B000240F9439
:1035300010941194129413941C2168461494FCF76F
:1035400093FF202107A8FCF78FFF2E482C49C0E9E4
:1035500000142021816041F26701C0E90314802139
:10356000C0E90541FFF718F808B172B6FEE74FF45D
:1035700080500F900FA92348FFF7F8F808B172B6F2
:10358000FEE72048FFF787FB08B172B6FEE7139409
:1035900013A91C481494FEF757FF08B172B6FEE752
:1035A0006020CDE90004029403944FF40070049469
:1035B000CDE90540002269461248FFF706FB08B135
:1035C00072B6FEE7042269460E48FFF7FEFA08B11C
:1035D00072B6FEE70794089409944FF400500A94D9
:1035E000CDE90B4007A907480E94FEF703FF08B189
:1035F00072B6FEE70348FFF7A7FA16B010BD000049
:10360000000001409801002010B58CB024216846CC
:10361000FCF72AFF0024164809944FF080410A94D1
:10362000C0E900144FF47A61C0E902410461846189
:103630000320CDE900040120CDE902040A21049110
:10364000CDE90540CDE9074169460948FFF7FCF897
:1036500008B172B6FEE7099409A905480A94FEF775
:10366000F3FE002801D072B6FEE70CB010BD0000DA
:10367000E001002010B586B00024174800940194A2
:103680000294039404941349059401606421C0E9F1
:10369000011440F24731C0E903148461FEF77CFF56
:1036A00008B172B6FEE74FF48050009069460A48B0
:1036B000FFF75CF808B172B6FEE7049404A9064867
:1036C0000594FEF7C1FE002801D072B6FEE706B0F1
:1036D00010BD0000000400402802002010B586B094
:1036E000002416480094019402940394049412490F
:1036F000059401605321C0E90114611EC0E903145F
:103700008461FEF749FF08B172B6FEE74FF48050BE
:10371000009069460948FFF729F808B172B6FEE73C
:10372000049404A905480594FEF78EFE002801D0F4
:1037300072B6FEE706B010BD000C0040700200201B
:10374000FEE7000010B500224FF400710548FEF7B7
:10375000D9F9BDE8104000224FF400410248FEF7BD
:10376000D1B90000000802400004024010B5012257
:1037700051020548FEF7C6F90122BDE81040D10309
:103780000248FEF7BFB900000008024000040240F2
:10379000FEE7000070B504462DED028B80ED070AB0
:1037A000BCEEE00A10EE100A24F8680F34F83C0969
:1037B00001F0A4FA41EC100B53EC102B9FED810BA0
:1037C00051EC100B01F0CEF841EC100B84ED090B1D
:1037D00094ED090B53EC102B9FED7C0B51EC100B6F
:1037E00001F0C0F841EC100B84ED0B0B94ED070BCE
:1037F00094ED091B53EC102B51EC110B01F0B2F8B6
:103800009FED741B53EC112B00F0F8FF01F032FA1E
:103810006063A06B01F072FA41EC180B94ED0B0B96
:103820009FED6E1B51EC100B53EC112B01F0B6FA0F
:1038300053EC182B01F0B2FA94ED071B53EC112B4B
:1038400001F0ACFA41EC100B04ED010B14ED010B8F
:103850009FED641B51EC100B53EC112B01F09EFA01
:1038600001F0D8F9A08214ED040A10EE100A01F05C
:10387000BFFC41EC100BA08A5C4D05EBC00090ED45
:10388000001B51EC100B53EC112B01F087FA14EDD7
:10389000050A41EC180B10EE100A01F0A9FC41ECEE
:1038A000100BA08A05F5207606EBC00090ED001BFA
:1038B00051EC100B53EC112B01F070FA53EC182B58
:1038C00001F0ACFB00F068FF00EE100A04ED030A03
:1038D00014ED040A10EE100A01F08AFC41EC100B02
:1038E000A08A06EBC00090ED001B51EC100B53ECCE
:1038F000112B01F053FA14ED050A41EC180B10EEF0
:10390000100A01F075FC41EC100BA08A05EBC00019
:1039100090ED001B51EC100B53EC112B01F03EFA13
:1039200053EC182B00F06AFF00F036FF00EE100A8F
:103930002F4804ED020A14ED031A90ED020AF7EE87
:10394000001AB4F85400C1EE000A30EEA11A00EEDD
:10395000900AF8EE600A21EE201AF6EE000A21EE37
:10396000201ABDEEC11A11EE101AA4F8561014ED6B
:10397000021A81EE002A00EE100AB8EE400A32EE7A
:10398000211A21EE000A20EE200ABDEEC00A10EE38
:10399000100A24F8580F34F8021C164802685163C4
:1039A00034F82019006881632068401C206054F8B6
:1039B000040954F86019884201D300206066BDEC08
:1039C000028B70BD333333333333F33F00000000D9
:1039D0000000F03F7B14AE47E17A843F0000000016
:1039E000000000400000000000004440E8520008D1
:1039F000FC020020980100209FED181B9FED192B61
:103A000080ED041B80ED061B80ED081B80ED0A1B7A
:103A100080ED141B80ED161B80ED101B80ED121B3A
:103A200080ED0C2B9FED112B80ED0E2B80ED240BE8
:103A30009FED100ADFED100A80EC020A80ED020A09
:103A400080ED201B80ED221B80ED1C1B80ED1E1BDA
:103A500080ED181B80ED1A1B70470000000000006D
:103A600000000000000000000000384000000000DE
:103A7000000038C0CDCCCC3FBC74133C10B504461C
:103A80002DED068B53EC112B51EC100B01F0C6FA07
:103A900041EC190B84ED049B94ED160B94ED128B05
:103AA00053EC102B51EC180B01F0B8FAD4ED020ACC
:103AB000B7EE001A41EC1A0B81EE200A10EE100A44
:103AC00001F096FB53EC1A2B01F068F994ED061BFC
:103AD00053EC112B00F092FE41EC1A0B84ED0AAB73
:103AE000606801F085FB41EC100B94ED241B53EC56
:103AF000102B51EC110B00F035FF9FED281B53EC00
:103B0000112B01F07FFA53EC1A2B01F047F953EC1B
:103B1000192B01F077FA41EC190B206801F068FBD2
:103B200053EC192B01F03AF953EC182B00F066FE18
:103B300041EC100B84ED140B94ED0C1B53EC112B8A
:103B400001F02AFA02D294ED0C0B0FE094ED0E1B5B
:103B500094ED140B53EC112B51EC100B01F0E2F827
:103B600002D294ED0E0B01E094ED140B84ED100BDA
:103B700094ED040B84ED060B94ED140B84ED160B01
:103B800094ED100B84ED120B51EC100B00F004FEC1
:103B9000BDEC068B00EE100A10BD00000000000016
:103BA0000000F03F9FED181B9FED192B80ED041BCB
:103BB00080ED061B80ED081B80ED0A1B80ED201BAD
:103BC00080ED221B80ED1C1B80ED1E1B80ED182B51
:103BD0009FED112B80ED1A2B80ED240B9FED100A29
:103BE000F6EE000A80EC020A80ED020A80ED141B5A
:103BF00080ED161B80ED101B80ED121B80ED0C1B61
:103C000080ED0E1B70470000000000000000000067
:103C1000000000000000104000000000000010C084
:103C20008FC2753C7047000001EE901AC0ED010A8A
:103C300080ED020AF8EE611A818170EEC00AC2813D
:103C400081EE812AFCEEC21A11EE901A01EE902A42
:103C500089B2F8EE611A00EE101A018381EE812A12
:103C6000B8EE400ABCEEC21A11EE102A80EE801A9D
:103C700092B200EE102A4283B8EE400A80ED041A98
:103C800080EE801A9FED040A80ED051A80ED000A8F
:103C900080ED080A704700000000000080ED000A77
:103CA00090ED081AD0ED040A012171EE200AF4EE1D
:103CB000C00AF1EE10FA09D2F4EEC00A0022F1EEC9
:103CC00010FA0277C0ED080A12DA14E0D0ED050A06
:103CD00071EE600AF4EEC00AF1EE10FA0EDDF4EEB9
:103CE000C00A0222F1EE10FA0277C0ED080A02D8EB
:103CF00080ED080A017790ED080A7047017780EDA2
:103D0000080AF8E73EB5244C94F88A0E012835D10C
:103D1000B4F88C0EB4F88E1E884230D2B4F88C1EE3
:103D2000B4F88C2EA4F5405000EB420202F500528C
:103D3000B2F9E62EB4F88C3E00EB430303F5805352
:103D4000B3F9443F0093CDE90121B4F88C1E00EB98
:103D50004101B1F9A23FB4F88C1E30F911200FA136
:103D6000124804F68C64FCF7FBFA64231E220F4908
:103D70000F48FFF7EFF82088401C20803EBD002050
:103D800084F88A0E03B01E23BDE83040092209A141
:103D90000748FFF7DFB80000803700200A256420BD
:103DA0002564202564202564202564001800002057
:103DB000B80200200A446F6E652121210000000036
:103DC00070B504462DED028B0D461348FFF766FFD4
:103DD000BCEEC00A10EE100A24F8680F9FED0F0A1F
:103DE0000F4804ED1A0A808B00F088FF41EC180B95
:103DF000208800F083FF41EC100BB0EE481AF0EE83
:103E0000681A2846FFF700F9064904ED180A012050
:103E10000872BDEC028B70BD10460020000000004F
:103E2000400300203403002070B5334C334D00268E
:103E30002DED028BB7EE008A2078DFED318A60B974
:103E4000FFF780FC606844F62061884202D2401C83
:103E5000606002E06660686E18B12078012805D0C5
:103E600017E028490120207081F8880EFFF77EFCBA
:103E7000607800B385ED008AC5ED028A224A2349A5
:103E80001E48FCF767FE6068B0F5FA6F1DD2401C53
:103E90006060207803282CD16078D0B1012823D02D
:103EA000022826D1BDEC028B174ABDE870401749A5
:103EB0001248FCF74FBE164840F69801026851635D
:103EC000006840F634018163DDE7032066602070FE
:103ED000E2E7BDEC028BB2EE040ABDE87040DFED14
:103EE0000D0A0648FFF756BCC5ED008A85ED028A2B
:103EF000D8E7BDEC028B70BD34030020F80500202C
:103F0000000000008037002068040020D00300205B
:103F1000980100200000F042034900220A70487016
:103F20004A600A72704700003403002070470000A6
:103F30009FED120A002180ED000A80ED010A80ED5C
:103F4000020A80F828109FED0E0B80ED040B9FED08
:103F50000E0B80ED060B80ED080B80ED140B80ED51
:103F60000C0B80ED160B80ED0E0B80ED180B80ED29
:103F7000100B80ED1A0B80ED120B70470000000053
:103F80002D431CEBE236FA3E00000000000000006A
:103F9000FDF7DEBE30B593B030216846FCF764FA19
:103FA00014210CA8FCF760FA1D480025016841F0B7
:103FB00080510160006800F080501190194801683C
:103FC00041F4804101600068022400F480401190B7
:103FD0000120039010200490009406940820CDE95D
:103FE0000750A820CDE9090404200B906846FEF78D
:103FF00035F808B172B6FEE70CA90F2081E8310050
:104000004FF4A0500F904FF48050109005210CA851
:10401000FDF738FF002801D072B6FEE713B030BDBF
:1040200040380240007000400248016841F47001CD
:104030000160704788ED00E00148FEF7D1BC000048
:10404000980100200148FEF7CBBC000028020020A8
:10405000F0B50268254C264D264E274F274B4FF0D2
:10406000804CA04209D0604507D0A84205D0B0429C
:1040700003D0B84201D0984204D122F0700E4A68B1
:1040800042EA0E02A0421BD0604519D0A84217D0C8
:10409000B04215D0B84213D0984211D0184DA84262
:1040A0000ED0184DA8420BD0174DA84208D0174D7E
:1040B000A84205D0164DA84202D0164DA84203D101
:1040C00022F44075CA682A434D6922F080022A43CF
:1040D00002608A68C2620A688262A04201D0984285
:1040E00001D10969016301214161F0BD0000014076
:1040F0000004004000080040000C004000040140A3
:1041000000400140004401400048014000180040C8
:10411000001C00400020004010B501F01F030121E9
:10412000046A99408C430462016A9A401143016217
:1041300010BD10B501F01F030421046A99408C439F
:104140000462016A9A401143016210BD10B584688F
:1041500042EA032224F47F440A432243826010BDD2
:10416000826822F070020A4342F0070181607047C2
:10417000F0B5026A22F001020262036A42688469B1
:10418000124E24F073050C682C4323F002058B6853
:104190002B430D4DA84201D0B04205D123F00807B2
:1041A000CB683B4323F00403A84201D0B04205D1C1
:1041B0004D6922F4407215438A692A434260846142
:1041C000496841630362F0BD000001400004014002
:1041D000F0B5026A22F010020262026A4368846942
:1041E0000D6824F4E64444EA05248D6822F0200298
:1041F00042EA05120F4D104EA84201D0B04206D13E
:10420000CF6822F0800242EA071222F04002A84260
:1042100001D0B04207D14D6923F4406343EA8503DE
:104220008D6943EA85034360846149688163026262
:10423000F0BD00000000014000040140F0B5026A3A
:1042400022F480720262026A4368C46922F4007236
:1042500024F073050C68124E2C438D6842EA052247
:104260000E4DA84201D0B04206D1CF6822F40062C0
:1042700042EA072222F48062A84201D0B04207D16C
:104280004D6923F4405343EA05138D6943EA05134E
:104290004360C4614968C1630262F0BD000001402F
:1042A0000004014030B5026A22F480520262046ABE
:1042B0004268C3690D6823F4E64343EA05238D6829
:1042C00024F4005444EA0534084DA84202D0084DB5
:1042D000A84204D14D6922F4804242EA851242602C
:1042E000C36149680164046230BD00000000014000
:1042F0000004014010B5036A046A24F0010404625A
:10430000846924F0F00444EA021423F00A020A4308
:104310008461026210BD10B5036A23F010030362CA
:104320008369046A23F4704343EA023224F0A00351
:1043300043EA01118261016210BD000030B4002225
:1043400011464FF4FA6400BF20F8121000EB42034C
:10435000A3F8A21F41F64475E95203F50053A3F8F0
:10436000E61E521CA242EFDBA0F5BC7000F58040B7
:104370000170417081708180C180012230BC1103C5
:104380000148FDF7BFBB00000008024070B50446BD
:1043900000680169E26821F440511143016121691B
:1043A000A068E26908436169114308432168CA684B
:1043B00049F20C639A430243CA6020684169A269CA
:1043C00021F440711143416131492068884202D093
:1043D0003049884202D1FDF7FFFD01E0FDF7ECFD19
:1043E000E2690023192164253226B2F5004F626884
:1043F00028D0A0FB0101930F9200FBF739FF014683
:10440000B0FBF5F06FF01802504301EB800006EBB3
:104410000010B0FBF5F000F0F002B1FBF5F002EB9C
:104420000012B1FBF5F06FF01803584301EB800068
:1044300006EB0010B0FBF5F000F00F00216810440F
:10444000886070BDA0FB010192185B41FBF710FF73
:104450000146B0FBF5F00201B1FBF5F06FF0180377
:10446000584301EB800006EBC000B0FBF5F000F014
:10447000F80002EB4002B1FBF5F0584301EB80007D
:1044800006EBC000B0FBF5F000F00700D6E7000037
:1044900000100140001401402DE9F04198461746F4
:1044A0000E460446069D27E0681C25D02DB1FDF779
:1044B0002FFBA0EB0800A8421ED920680C3050E862
:1044C000001F21F4D07140E80012002AF5D12068C5
:1044D000143050E8001F21F0010140E80012002ACA
:1044E000F5D1202084F83D0084F83E00002084F8B7
:1044F0003C000320BDE8F0812068006836EA000037
:1045000004D00020B842CFD00020F3E70120F9E723
:10451000FEE70907090E002804DB00F1E02080F81F
:104520000014704700F00F0000F1E02080F8141D27
:10453000704700002DED048B82B0FDF711FCFFF7F2
:1045400029FDFEF781FF80480024016841F48001C5
:1045500001600068224600F4800000902146382067
:10456000FDF75EFC3820FDF74DFCFEF7E1FEFEF79F
:104570001DFFFEF74DFF76487449764E0160C0E995
:1045800001640D14C0E9034544618461C46104629F
:10459000FDF7C4FA08B172B6FEE76D486E495430B3
:1045A0000160C0E90164C0E9034544618461C461FC
:1045B0000462FDF7B3FA08B172B6FEE7FEF7B4FF86
:1045C000FFF722F86648654901604FF41661C0E9BB
:1045D00001140C21C460C0E904418461C461FEF788
:1045E00052FC08B172B6FEE7FFF744F8FFF776F821
:1045F0005C4C012208212046FDF784FA012210219B
:104600002046FDF77FFAFFF79DF851480021A830BA
:10461000FEF770FB4E480021A830FDF75DFF4C48C7
:104620000421A830FEF766FB49480421A830FDF7B5
:1046300053FF4748B838FCF787FD4548A830FEF7D8
:1046400055F847489038FEF751F845484838FEF786
:1046500011F843483C21D838FEF77AF940484430F5
:10466000FEF71AFE4048FCF707FC3F485038FCF7BD
:104670001DF83E4C3A484FF47A7594ED000B042235
:1046800029468830FCF7AEFB35489FED390B0422F4
:104690002946D030FCF7A6FB9FED379B3248B0EEA1
:1046A000490AF0EE690A1030FCF70CFA2E489830EF
:1046B000FFF73EFC9FED320A29463248FEF738FDEF
:1046C0009FED318A2F480A21B0EE480A3038FEF7B4
:1046D0002FFD2C48B0EE480A0A213030FEF728FDA5
:1046E000B0EE490AF0EE690A2848FFF785F9274835
:1046F000B0EE490AF0EE690A9830FFF77DF91A48E2
:1047000094ED000BE838FFF74DFA1E486030FFF7D4
:1047100015FE94ED000B51EC100B00F03DF801EE8E
:10472000100A0F48012244309FED190AD0ED030A08
:1047300011461848FFF778FA0020FFF7EDFB00BF9D
:10474000FFF7E0FAFCE70000303802400054004078
:10475000F0000020A0860100005800400048004002
:10476000B802002000040240E805002000000020FC
:1047700000000000000000002D431CEBE2360A3F61
:1047800017B7D138200700200AD7233CD0030020D8
:10479000000000001046002021F00042A2F160520B
:1047A000B2F5801F01F0004328BFD2F17F6C0BD916
:1047B0005FEA001C43EAC20242EB507018BF704728
:1047C00028BF20F001007047B2F5801FBCBF18461B
:1047D00070474FEA410C1CF5001F02D2084600F05A
:1047E0007DBD70B500F084FB00000089FFF7F6BFC7
:1047F0004FF00040A0F580007047000010B591EA2E
:10480000030F48BF83F0004300F11084841A71EB5A
:10481000030C05D2121943EB0C03001B61EB0C01D6
:10482000DFF824E14FEA1154A4EB135C1EEA430FB6
:1048300018BF9EEA445F73D023EA0E03DCF1200E1A
:1048400021EA045143F4801332D322FA0CFE10EB18
:104850000E0023FA0CFE41EB0E01CCF1200E03FA00
:104860000EFE10EB0E0051F10001B1F5801FCCF1EE
:10487000200E32D201EB045112FA0EF2BDE81040C4
:1048800058BF7047401C38BF5FEA420218BF7047EC
:10489000002814BF20F0010041F100014FEA41035C
:1048A00013F5001F38BF7047A1F1C04100F06EBB87
:1048B000012A43EB0302ACF1200CDCF11F0E32BFE6
:1048C0004FF0000E23FA0CF310EB030041EB045100
:1048D000B4EB115FD0D0A1EB045101F58011490870
:1048E0005FEA300001EB04510ED350F1000038BFF5
:1048F00012FA0EFE08D1BDE81040C9E7401C38BFCF
:104900005FEA4202CAD1C3E7BDE810404FEA410363
:1049100013F5001F38BF7047A1F1C04100F036BB4E
:104920009EEA445F08D011EA5E0FBDE8104004BF64
:1049300001F0004100207047BDE8104070B500F064
:10494000D7FA00BF64FBBE3E0000E0FF491058BF2D
:10495000C1F140415B1058BFC3F140438B42EFF3BC
:10496000008070472DE9C04130B4DFF8A0C23CEAB6
:10497000111418BF3CEA131400F0EC8081EA03051F
:104980001CEA111444EAD57418BF1CEA131500F090
:10499000C780A4EB05044FF0004545EAC12145EA74
:1049A000C32341EA505143EA525304F17F749942C0
:1049B00004F500344FEAC0204FEAC22208BF9042FB
:1049C00000F09C804FEA13650FF24016765D4FEAC7
:1049D000134506FB05F7C7F1807706FB07F74FEA9B
:1049E000D737A7FB03687642C8F58038A7FB06CE09
:1049F00038BFA8F1010807FB08E64FF0000EA6FB40
:104A0000028CE6FB03CEDCF1000CCEF1004E38BF89
:104A1000AEF1010EA6FB0C584FF000074FF0000559
:104A2000E6FB0E87A1FB08C6A0FB07CE16EB0E0621
:104A300045F10005E1FB076515F1E04E7EBFA4F5E9
:104A400080345FEA46066D4116F1800745F10005A6
:104A50004FEA17274FEA066647EA0567A6F1DE46E2
:104A6000B6F1805F4FEA15251FD9384624F0010CB6
:104A700005EBC471BCF1FE6F01EB0C1102D8F0BC68
:104A8000BDE8008124425CBF01F5801E9EEAC47F20
:104A900002D4F0BCBDE80081244238D4F0BCA1F1BE
:104AA000C041BDE8004100F071BA4FEAD22242EAAB
:104AB00043524FEAD323A7FB02864FEAD02040EAB5
:104AC000415007FB03661EEA0E0F4FEAD12105FB9A
:104AD000026658BFA6EB0056B6EB00564FEA520EE0
:104AE0004EEAC37E18EB0E0E56EB530EBDD518EBF7
:104AF00002085E417F1C55F10005B6E74FF48015B2
:104B00004FF000074FF000064FF00008ADE7F0BC93
:104B10004FF0000001F1C04101F00041BDE800810B
:104B200011EA0C1F0CEA131500D00CE013EA0C1F5D
:104B300000F025804FF00000F0BC81EA030101F095
:104B40000041BDE80081F0BCBDE8004181EA0301FD
:104B500000F01CBAF0BCBDE8004170B500F0C8F927
:104B6000097EFC3E00F007B881EA03014FF0000027
:104B700001F00041704781EA030100F007BAF0BC80
:104B8000BDE800414FF0000021497047FFFDFBF9EF
:104B9000F7F5F4F2F0EEEDEBE9E8E6E4E3E1E0DE70
:104BA000DDDBDAD8D7D5D4D3D1D0CFCDCCCBCAC8E2
:104BB000C7C6C5C4C2C1C0BFBEBDBCBBBAB9B8B709
:104BC000B6B5B4B3B2B1B0AFAEADACABAAA9A8A8FC
:104BD000A7A6A5A4A3A3A2A1A09F9F9E9D9C9C9BCA
:104BE0009A99999897979695959493939291919075
:104BF0008F8F8E8E8D8C8C8B8B8A89898888878706
:104C00008685858484838382828181800000FF077A
:104C10000000F87F4FEA41034FEA5353A3F5806346
:104C2000D3F11E03C8BFD3F1210C0CDD4FF00042BD
:104C300042EAC12242EA505232FA03FC8CEAE17C99
:104C4000ACEBE1707047102BC4BF0020704703F538
:104C5000787CBCF1FF3F04D06FF0004282EA210073
:104C6000704770B500F044F94992248000207047E5
:104C7000F2E700004FEA1153A3F58063D3F11E035E
:104C8000A8BFD3F1200C08DB4FF0004242EAC1225A
:104C900052EA505232FA03F0704709420BD4102BFB
:104CA000C4BF0020704703F5787CBCF1FF3F05D0FE
:104CB0004FF0FF3070474FF00000704770B500F0C4
:104CC00017F900BF4992248000207047F0E710F0E8
:104CD000004248BF4042B0FA80F310FA03F10AD014
:104CE000C3F11D0303F580634FEA415002EB035209
:104CF00002EBD12170474FF000007047B0FA80F30B
:104D000010FA03F10AD0C3F11D0303F580634FEAE3
:104D100041504FEA035202EBD12170474FF000009F
:104D20007047000051EA030C17D41CF5801F58BFD0
:104D3000BCF5801F00F10680994218BF704708BF7C
:104D40009042704707D711F5801F58BF13F5801F99
:104D500019D499427047894270471CF5801F08D5C5
:104D6000BCF5801FF7D58B4218BF704708BF824241
:104D700070474FF4001C1CEB410F38BF1CEB430F76
:104D800001D28B42704770B500F0B2F8922449000E
:104D90004FF000514FF08053FFF7D8BDDFF848C106
:104DA00070B51CEA111E1EBF1CEA13159EEA0C0FFB
:104DB00095EA0C0F00F06F8081EA030423EA4C139C
:104DC0004EEAD47E21EA4C1141F4801143F4801361
:104DD000AE44A1FB024CA0FB0365AEF17F7E361909
:104DE00055EB0C05A1FB034C4CF10003A0FB021C8E
:104DF00016EB0C06654153F10003094218BF46F05B
:104E0000010613F4007F0BD14FEA03314FEA05305E
:104E1000340341EA155140EA16506FF003020AE0EC
:104E20004FEAC3214FEAC520F40241EA555140EA56
:104E300056506FF0020202EB2E4201EB025585EA5A
:104E4000CE710AD05FEA440C18BF24F0004450F140
:104E5000000041F1000120EAD47040F2FE7C62457E
:104E600000D270BDA84214BF4FF080444FF04044C0
:104E7000002E08BF0024BEF1806FA8BFA1F1C04181
:104E8000BDE8704080F282804FF0000001F1C04127
:104E900001F0004170479EEA0C0F0CEA131518BF91
:104EA00095EA0C0F06D04FF0000081EA030E0EF0D9
:104EB000004170BD00F01CF88900013E00F007B809
:104EC00000F009B84FEA430C5FEA5C5C08D081EA65
:104ED000030100F05BB84FEA410C5FEA5C5CF6D17D
:104EE0004FF00000014970470000FF070000F87F05
:104EF0000EF1020E2EF0030E5EF8046B364205D45E
:104F0000012A43EB030515F5001F12D8012841EBD8
:104F1000010C1CF5001F0CD80ED14FEAD17C15F501
:104F2000001F0CEB4C0C0CF1020C08BF4CEBD37CBB
:104F300004E04FF0080C01E04FEAD37C0CEB4C0589
:104F400026FA05F606F00706B6F1040C06D20EEBBB
:104F5000860CBDE870404CF0010C6047DFE80CF0B7
:104F6000090B02024FF000414FF00000A1F50021B3
:104F700070BD19461046012851EB010418BFD4F545
:104F8000001484BF002001F0004170BD0808A0F5A6
:104F900000114FEA3101704753EA010C17D41CF598
:104FA000801F58BFBCF5801F00F106808B4218BFE0
:104FB000704708BF8242704707D713F5801F58BF5C
:104FC00011F5801F19D48B4270479B4270471CF526
:104FD000801F08D5BCF5801FF7D5994218BF7047D0
:104FE00008BF904270474FF4001C1CEB430F38BFC2
:104FF0001CEB410F01D2994270470FB40CBC03BCAB
:10500000FFF7C1BE91EA030F10B581F000413FF5F3
:10501000FDAB83F0004300F009B8000010B591EA41
:10502000030F48BF83F000433FF5F0AB841A71EBE8
:10503000030C07D212198CF0004C43EB0C03001B3D
:1050400061EB0C01DFF8A4E14FEA1154A4EB135C0F
:105050001EEA430F18BF9EEA445F00F0B08023EAC7
:105060006E03524221EA0451C3EB6E0338BF5B1E4C
:10507000DCF1200E25D322FA0CFE10EB0E0043FAD1
:105080000CFE41EB0E01CCF1200E03FA0EFE10EBEC
:105090000E0051F10001CCF1200E29D412FA0EF2CB
:1050A00001EB0451BDE8104058BF7047401C1CBFC5
:1050B000B2F1004F704700280CBF491C20F00100DE
:1050C000704712EB020E43EB030218BF4FF0010EC4
:1050D0004EEA4202ACF1200CDCF11E0E54D943FA28
:1050E0000CFE10EB0E0051F1FF31CCF11E0ED5D5A8
:1050F0000EF1010E12FA0EFE404141EB010101EBEF
:10510000445C5FEA5C5C10D910EBDE7001EB04518B
:1051100038BFBEF1004FBDE8104018BF70470028EF
:105120000CBF491C20F00100704730D24FEAD42C4C
:1051300011F5001124F400641BD0B1FA81F20B3A8E
:10514000A41AA41ED2F12003914030FA03F31943AC
:10515000904001EBCC71002C01EB0451BDE81040F4
:10516000A8BF704701F1C0414FF0000001F00041BD
:105170007047B0FA80F310FA03F100D110BDE41AC1
:10518000173C4805C90AE4E701EB045110BD49107A
:1051900001EB0451BDE810404FEA300002E04FF04F
:1051A000000170474A0008BF0042F8D0B2F5001F66
:1051B00028BF704701F000414FF0000070479EEAA1
:1051C000445F07D011EA5E0FBDE8104004BF002124
:1051D00000207047BDE8104070B5FFF789FE00BFA2
:1051E00040DFF63E83F00041104670470000E0FFCC
:1051F00043004FEAD30C4FEA3C0C43401FBF40072B
:105200000CF1605113F0FE4F70471CF0006F03D19A
:1052100000200CF0004170470CF0004343EA50704E
:1052200010B540EACC0000F00EF800BF000000927C
:105230004FEA0001FFF7AABE4FF000414FF0000017
:10524000A1F5002170470EF1020E2EF0030E5EF85C
:10525000044B244204D44FEA4102B2F17F4F11D8EB
:105260004FEA4003B3F17F4F0CD80ED14FEAD07C08
:10527000B2F17F4F0CEB4C0C0CF1020C08BF4CEB65
:10528000D17C04E04FF0080C01E04FEAD17C0CEB3C
:105290004C0324FA03F404F00704B4F1040C06D21E
:1052A0000EEB840CBDE810404CF0010C6047DFE8C9
:1052B0000CF0070802024FF00040A0F5800010BD7E
:1052C0000846420018BFD2F1807288BF00F000404B
:1052D00010BD4FF04070E1EE100A7047FF2141EA27
:1052E000D050C00570470000000000000000000022
:1052F000124E0B5EF415B43FF67F0EF3E505C43F86
:105300005227A089B0E1CD3FBBD573D2FBC6D33FB6
:1053100076543541D47DD83FAE81AD122C0EDD3FA1
:10532000B81E85EB51B8E03F904E5DF92CCFE23FBF
:10533000F163CC5D4BC8E43FFF959526A5A0E63F01
:10534000BEA4315A4755E83FDDEA39E97DE3E93F3C
:10535000B75D68AED348EB3F33164D672783EC3F0C
:105360001CB62DCA6C90ED3F90149161156FEE3F05
:105370009291B3B0A71DEF3F7AC2120F289BEF3F67
:10538000664E97C5C4E6EF3F000000000000F03F06
:10539000664E97C5C4E6EF3F7AC2120F289BEF3FD7
:1053A0009291B3B0A71DEF3F90149161156FEE3F3E
:1053B0001CB62DCA6C90ED3F33164D672783EC3F2A
:1053C000B75D68AED348EB3FDDEA39E97DE3E93FFD
:1053D000BEA4315A4755E83FFF959526A5A0E63F64
:1053E000F163CC5D4BC8E43F904E5DF92CCFE23FBA
:1053F000B81E85EB51B8E03FAE81AD122C0EDD3FFB
:1054000076543541D47DD83FBBD573D2FBC6D33F4C
:105410005227A089B0E1CD3FF67F0EF3E505C43FEA
:10542000124E0B5EF415B43F0000000000000000B7
:10543000124E0B5EF415B4BFF67F0EF3E505C4BF44
:105440005227A089B0E1CDBFBBD573D2FBC6D3BF75
:1054500076543541D47DD8BFAE81AD122C0EDDBF60
:10546000B81E85EB51B8E0BF904E5DF92CCFE2BF7E
:10547000F163CC5D4BC8E4BFFF959526A5A0E6BFC0
:10548000BEA4315A4755E8BFDDEA39E97DE3E9BFFB
:10549000B75D68AED348EBBF33164D672783ECBFCB
:1054A0001CB62DCA6C90EDBF90149161156FEEBFC4
:1054B0009291B3B0A71DEFBF7AC2120F289BEFBF26
:1054C000664E97C5C4E6EFBF000000000000F0BFC5
:1054D000664E97C5C4E6EFBF7AC2120F289BEFBF96
:1054E0009291B3B0A71DEFBF90149161156FEEBFFD
:1054F0001CB62DCA6C90EDBF33164D672783ECBFE9
:10550000B75D68AED348EBBFDDEA39E97DE3E9BFBB
:10551000BEA4315A4755E8BFFF959526A5A0E6BF22
:10552000F163CC5D4BC8E4BF904E5DF92CCFE2BF78
:10553000B81E85EB51B8E0BFAE81AD122C0EDDBFB9
:1055400076543541D47DD8BFBBD573D2FBC6D3BF0B
:105550005227A089B0E1CDBFF67F0EF3E505C4BFA9
:10556000124E0B5EF415B4BF000000000000F03FC7
:10557000664E97C5C4E6EF3F7AC2120F289BEF3FF5
:105580009291B3B0A71DEF3F90149161156FEE3F5C
:105590001CB62DCA6C90ED3F33164D672783EC3F48
:1055A000B75D68AED348EB3FDDEA39E97DE3E93F1B
:1055B000BEA4315A4755E83FFF959526A5A0E63F82
:1055C000F163CC5D4BC8E43F904E5DF92CCFE23FD8
:1055D000B81E85EB51B8E03FAE81AD122C0EDD3F19
:1055E00076543541D47DD83FBBD573D2FBC6D33F6B
:1055F0005227A089B0E1CD3FF67F0EF3E505C43F09
:10560000124E0B5EF415B43F0000000000000000D5
:10561000124E0B5EF415B4BFF67F0EF3E505C4BF62
:105620005227A089B0E1CDBFBBD573D2FBC6D3BF93
:1056300076543541D47DD8BFAE81AD122C0EDDBF7E
:10564000B81E85EB51B8E0BF904E5DF92CCFE2BF9C
:10565000F163CC5D4BC8E4BFFF959526A5A0E6BFDE
:10566000BEA4315A4755E8BFDDEA39E97DE3E9BF19
:10567000B75D68AED348EBBF33164D672783ECBFE9
:105680001CB62DCA6C90EDBF90149161156FEEBFE2
:105690009291B3B0A71DEFBF7AC2120F289BEFBF44
:1056A000664E97C5C4E6EFBF000000000000F0BFE3
:1056B000664E97C5C4E6EFBF7AC2120F289BEFBFB4
:1056C0009291B3B0A71DEFBF90149161156FEEBF1B
:1056D0001CB62DCA6C90EDBF33164D672783ECBF07
:1056E000B75D68AED348EBBFDDEA39E97DE3E9BFDA
:1056F000BEA4315A4755E8BFFF959526A5A0E6BF41
:10570000F163CC5D4BC8E4BF904E5DF92CCFE2BF96
:10571000B81E85EB51B8E0BFAE81AD122C0EDDBFD7
:1057200076543541D47DD8BFBBD573D2FBC6D3BF29
:105730005227A089B0E1CDBFF67F0EF3E505C4BFC7
:10574000124E0B5EF415B4BF000000000000000014
:10575000124E0B5EF415B43FF67F0EF3E505C43F21
:105760005227A089B0E1CD3FBBD573D2FBC6D33F52
:1057700076543541D47DD83FAE81AD122C0EDD3F3D
:10578000B81E85EB51B8E03F904E5DF92CCFE23F5B
:10579000F163CC5D4BC8E43FFF959526A5A0E63F9D
:1057A000BEA4315A4755E83FDDEA39E97DE3E93FD8
:1057B000B75D68AED348EB3F33164D672783EC3FA8
:1057C0001CB62DCA6C90ED3F90149161156FEE3FA1
:1057D0009291B3B0A71DEF3F7AC2120F289BEF3F03
:1057E000664E97C5C4E6EF3F000610160006101679
:1057F0000000000000000000010203040607080981
:1058000000000000010203042858000800000020E6
:1058100018000000C40100084058000818000020CB
:10582000E04C0000E00100087B14AE47E17A943FB1
:105830000100000010000000000000000024F4003F
:040000050800018965
:00000001FF
